{
  "_format": "hh-sol-artifact-1",
  "contractName": "FolderNFT",
  "sourceName": "contracts/FILDOS.sol",
  "abi": [
    {
      "inputs": [],
      "stateMutability": "nonpayable",
      "type": "constructor"
    },
    {
      "inputs": [],
      "name": "ERC721EnumerableForbiddenBatchMint",
      "type": "error"
    },
    {
      "inputs": [
        {
          "internalType": "address",
          "name": "sender",
          "type": "address"
        },
        {
          "internalType": "uint256",
          "name": "tokenId",
          "type": "uint256"
        },
        {
          "internalType": "address",
          "name": "owner",
          "type": "address"
        }
      ],
      "name": "ERC721IncorrectOwner",
      "type": "error"
    },
    {
      "inputs": [
        {
          "internalType": "address",
          "name": "operator",
          "type": "address"
        },
        {
          "internalType": "uint256",
          "name": "tokenId",
          "type": "uint256"
        }
      ],
      "name": "ERC721InsufficientApproval",
      "type": "error"
    },
    {
      "inputs": [
        {
          "internalType": "address",
          "name": "approver",
          "type": "address"
        }
      ],
      "name": "ERC721InvalidApprover",
      "type": "error"
    },
    {
      "inputs": [
        {
          "internalType": "address",
          "name": "operator",
          "type": "address"
        }
      ],
      "name": "ERC721InvalidOperator",
      "type": "error"
    },
    {
      "inputs": [
        {
          "internalType": "address",
          "name": "owner",
          "type": "address"
        }
      ],
      "name": "ERC721InvalidOwner",
      "type": "error"
    },
    {
      "inputs": [
        {
          "internalType": "address",
          "name": "receiver",
          "type": "address"
        }
      ],
      "name": "ERC721InvalidReceiver",
      "type": "error"
    },
    {
      "inputs": [
        {
          "internalType": "address",
          "name": "sender",
          "type": "address"
        }
      ],
      "name": "ERC721InvalidSender",
      "type": "error"
    },
    {
      "inputs": [
        {
          "internalType": "uint256",
          "name": "tokenId",
          "type": "uint256"
        }
      ],
      "name": "ERC721NonexistentToken",
      "type": "error"
    },
    {
      "inputs": [
        {
          "internalType": "address",
          "name": "owner",
          "type": "address"
        },
        {
          "internalType": "uint256",
          "name": "index",
          "type": "uint256"
        }
      ],
      "name": "ERC721OutOfBoundsIndex",
      "type": "error"
    },
    {
      "inputs": [
        {
          "internalType": "uint256",
          "name": "tokenId",
          "type": "uint256"
        }
      ],
      "name": "FolderDoesNotExist",
      "type": "error"
    },
    {
      "inputs": [
        {
          "internalType": "string",
          "name": "cid",
          "type": "string"
        }
      ],
      "name": "InvalidCID",
      "type": "error"
    },
    {
      "inputs": [
        {
          "internalType": "uint256",
          "name": "tokenId",
          "type": "uint256"
        }
      ],
      "name": "NotFolderAccess",
      "type": "error"
    },
    {
      "inputs": [
        {
          "internalType": "uint256",
          "name": "tokenId",
          "type": "uint256"
        }
      ],
      "name": "NotFolderOwner",
      "type": "error"
    },
    {
      "inputs": [
        {
          "internalType": "uint256",
          "name": "shareId",
          "type": "uint256"
        }
      ],
      "name": "NotShareOwner",
      "type": "error"
    },
    {
      "inputs": [
        {
          "internalType": "address",
          "name": "owner",
          "type": "address"
        }
      ],
      "name": "OwnableInvalidOwner",
      "type": "error"
    },
    {
      "inputs": [
        {
          "internalType": "address",
          "name": "account",
          "type": "address"
        }
      ],
      "name": "OwnableUnauthorizedAccount",
      "type": "error"
    },
    {
      "inputs": [
        {
          "internalType": "uint256",
          "name": "shareId",
          "type": "uint256"
        }
      ],
      "name": "ShareNotFound",
      "type": "error"
    },
    {
      "anonymous": false,
      "inputs": [
        {
          "indexed": true,
          "internalType": "address",
          "name": "owner",
          "type": "address"
        },
        {
          "indexed": true,
          "internalType": "address",
          "name": "approved",
          "type": "address"
        },
        {
          "indexed": true,
          "internalType": "uint256",
          "name": "tokenId",
          "type": "uint256"
        }
      ],
      "name": "Approval",
      "type": "event"
    },
    {
      "anonymous": false,
      "inputs": [
        {
          "indexed": true,
          "internalType": "address",
          "name": "owner",
          "type": "address"
        },
        {
          "indexed": true,
          "internalType": "address",
          "name": "operator",
          "type": "address"
        },
        {
          "indexed": false,
          "internalType": "bool",
          "name": "approved",
          "type": "bool"
        }
      ],
      "name": "ApprovalForAll",
      "type": "event"
    },
    {
      "anonymous": false,
      "inputs": [
        {
          "indexed": true,
          "internalType": "uint256",
          "name": "tokenId",
          "type": "uint256"
        },
        {
          "indexed": false,
          "internalType": "string",
          "name": "cid",
          "type": "string"
        },
        {
          "indexed": false,
          "internalType": "string",
          "name": "filename",
          "type": "string"
        },
        {
          "indexed": true,
          "internalType": "address",
          "name": "owner",
          "type": "address"
        },
        {
          "indexed": false,
          "internalType": "string[]",
          "name": "tags",
          "type": "string[]"
        }
      ],
      "name": "FileAdded",
      "type": "event"
    },
    {
      "anonymous": false,
      "inputs": [
        {
          "indexed": true,
          "internalType": "uint256",
          "name": "fromTokenId",
          "type": "uint256"
        },
        {
          "indexed": true,
          "internalType": "uint256",
          "name": "toTokenId",
          "type": "uint256"
        },
        {
          "indexed": false,
          "internalType": "string",
          "name": "cid",
          "type": "string"
        },
        {
          "indexed": false,
          "internalType": "string",
          "name": "filename",
          "type": "string"
        },
        {
          "indexed": true,
          "internalType": "address",
          "name": "mover",
          "type": "address"
        }
      ],
      "name": "FileMoved",
      "type": "event"
    },
    {
      "anonymous": false,
      "inputs": [
        {
          "indexed": true,
          "internalType": "uint256",
          "name": "tokenId",
          "type": "uint256"
        },
        {
          "indexed": true,
          "internalType": "address",
          "name": "owner",
          "type": "address"
        },
        {
          "indexed": false,
          "internalType": "string",
          "name": "name",
          "type": "string"
        },
        {
          "indexed": false,
          "internalType": "string",
          "name": "folderType",
          "type": "string"
        }
      ],
      "name": "FolderMinted",
      "type": "event"
    },
    {
      "anonymous": false,
      "inputs": [
        {
          "indexed": true,
          "internalType": "uint256",
          "name": "tokenId",
          "type": "uint256"
        },
        {
          "indexed": false,
          "internalType": "bool",
          "name": "isPublic",
          "type": "bool"
        }
      ],
      "name": "FolderPublicityChanged",
      "type": "event"
    },
    {
      "anonymous": false,
      "inputs": [
        {
          "indexed": true,
          "internalType": "uint256",
          "name": "tokenId",
          "type": "uint256"
        },
        {
          "indexed": false,
          "internalType": "string",
          "name": "newType",
          "type": "string"
        }
      ],
      "name": "FolderTypeChanged",
      "type": "event"
    },
    {
      "anonymous": false,
      "inputs": [
        {
          "indexed": true,
          "internalType": "address",
          "name": "previousOwner",
          "type": "address"
        },
        {
          "indexed": true,
          "internalType": "address",
          "name": "newOwner",
          "type": "address"
        }
      ],
      "name": "OwnershipTransferred",
      "type": "event"
    },
    {
      "anonymous": false,
      "inputs": [
        {
          "indexed": true,
          "internalType": "uint256",
          "name": "shareId",
          "type": "uint256"
        },
        {
          "indexed": true,
          "internalType": "uint256",
          "name": "folderId",
          "type": "uint256"
        },
        {
          "indexed": true,
          "internalType": "address",
          "name": "grantee",
          "type": "address"
        },
        {
          "indexed": false,
          "internalType": "bool",
          "name": "canRead",
          "type": "bool"
        },
        {
          "indexed": false,
          "internalType": "bool",
          "name": "canWrite",
          "type": "bool"
        }
      ],
      "name": "ShareCreated",
      "type": "event"
    },
    {
      "anonymous": false,
      "inputs": [
        {
          "indexed": true,
          "internalType": "uint256",
          "name": "shareId",
          "type": "uint256"
        }
      ],
      "name": "ShareRevoked",
      "type": "event"
    },
    {
      "anonymous": false,
      "inputs": [
        {
          "indexed": true,
          "internalType": "address",
          "name": "from",
          "type": "address"
        },
        {
          "indexed": true,
          "internalType": "address",
          "name": "to",
          "type": "address"
        },
        {
          "indexed": true,
          "internalType": "uint256",
          "name": "tokenId",
          "type": "uint256"
        }
      ],
      "name": "Transfer",
      "type": "event"
    },
    {
      "inputs": [
        {
          "internalType": "uint256",
          "name": "tokenId",
          "type": "uint256"
        },
        {
          "internalType": "string",
          "name": "cid",
          "type": "string"
        },
        {
          "internalType": "string",
          "name": "filename",
          "type": "string"
        },
        {
          "internalType": "string[]",
          "name": "tags",
          "type": "string[]"
        }
      ],
      "name": "addFile",
      "outputs": [],
      "stateMutability": "nonpayable",
      "type": "function"
    },
    {
      "inputs": [
        {
          "internalType": "address",
          "name": "to",
          "type": "address"
        },
        {
          "internalType": "uint256",
          "name": "tokenId",
          "type": "uint256"
        }
      ],
      "name": "approve",
      "outputs": [],
      "stateMutability": "nonpayable",
      "type": "function"
    },
    {
      "inputs": [
        {
          "internalType": "address",
          "name": "owner",
          "type": "address"
        }
      ],
      "name": "balanceOf",
      "outputs": [
        {
          "internalType": "uint256",
          "name": "",
          "type": "uint256"
        }
      ],
      "stateMutability": "view",
      "type": "function"
    },
    {
      "inputs": [
        {
          "internalType": "uint256",
          "name": "tokenId",
          "type": "uint256"
        },
        {
          "internalType": "address",
          "name": "user",
          "type": "address"
        }
      ],
      "name": "canRead",
      "outputs": [
        {
          "internalType": "bool",
          "name": "",
          "type": "bool"
        }
      ],
      "stateMutability": "view",
      "type": "function"
    },
    {
      "inputs": [
        {
          "internalType": "uint256",
          "name": "tokenId",
          "type": "uint256"
        },
        {
          "internalType": "address",
          "name": "user",
          "type": "address"
        }
      ],
      "name": "canWrite",
      "outputs": [
        {
          "internalType": "bool",
          "name": "",
          "type": "bool"
        }
      ],
      "stateMutability": "view",
      "type": "function"
    },
    {
      "inputs": [
        {
          "internalType": "uint256",
          "name": "tokenId",
          "type": "uint256"
        }
      ],
      "name": "getApproved",
      "outputs": [
        {
          "internalType": "address",
          "name": "",
          "type": "address"
        }
      ],
      "stateMutability": "view",
      "type": "function"
    },
    {
      "inputs": [
        {
          "internalType": "uint256",
          "name": "tokenId",
          "type": "uint256"
        }
      ],
      "name": "getFiles",
      "outputs": [
        {
          "components": [
            {
              "internalType": "string",
              "name": "cid",
              "type": "string"
            },
            {
              "internalType": "string",
              "name": "filename",
              "type": "string"
            },
            {
              "internalType": "uint256",
              "name": "timestamp",
              "type": "uint256"
            },
            {
              "internalType": "address",
              "name": "owner",
              "type": "address"
            },
            {
              "internalType": "string[]",
              "name": "tags",
              "type": "string[]"
            }
          ],
          "internalType": "struct FolderNFT.FileEntry[]",
          "name": "",
          "type": "tuple[]"
        }
      ],
      "stateMutability": "view",
      "type": "function"
    },
    {
      "inputs": [
        {
          "internalType": "uint256",
          "name": "tokenId",
          "type": "uint256"
        },
        {
          "internalType": "address",
          "name": "user",
          "type": "address"
        }
      ],
      "name": "getFolderAccess",
      "outputs": [
        {
          "internalType": "bool",
          "name": "canRead_",
          "type": "bool"
        },
        {
          "internalType": "bool",
          "name": "canWrite_",
          "type": "bool"
        },
        {
          "internalType": "bool",
          "name": "isOwner",
          "type": "bool"
        }
      ],
      "stateMutability": "view",
      "type": "function"
    },
    {
      "inputs": [
        {
          "internalType": "address",
          "name": "owner",
          "type": "address"
        }
      ],
      "name": "getFoldersOwnedBy",
      "outputs": [
        {
          "internalType": "uint256[]",
          "name": "",
          "type": "uint256[]"
        }
      ],
      "stateMutability": "view",
      "type": "function"
    },
    {
      "inputs": [
        {
          "internalType": "address",
          "name": "user",
          "type": "address"
        }
      ],
      "name": "getFoldersSharedTo",
      "outputs": [
        {
          "internalType": "uint256[]",
          "name": "",
          "type": "uint256[]"
        }
      ],
      "stateMutability": "view",
      "type": "function"
    },
    {
      "inputs": [],
      "name": "getPublicFolders",
      "outputs": [
        {
          "internalType": "uint256[]",
          "name": "",
          "type": "uint256[]"
        }
      ],
      "stateMutability": "view",
      "type": "function"
    },
    {
      "inputs": [
        {
          "internalType": "address",
          "name": "owner",
          "type": "address"
        },
        {
          "internalType": "address",
          "name": "operator",
          "type": "address"
        }
      ],
      "name": "isApprovedForAll",
      "outputs": [
        {
          "internalType": "bool",
          "name": "",
          "type": "bool"
        }
      ],
      "stateMutability": "view",
      "type": "function"
    },
    {
      "inputs": [
        {
          "internalType": "string",
          "name": "name",
          "type": "string"
        },
        {
          "internalType": "string",
          "name": "folderType",
          "type": "string"
        }
      ],
      "name": "mintFolder",
      "outputs": [
        {
          "internalType": "uint256",
          "name": "",
          "type": "uint256"
        }
      ],
      "stateMutability": "nonpayable",
      "type": "function"
    },
    {
      "inputs": [
        {
          "internalType": "uint256",
          "name": "fromTokenId",
          "type": "uint256"
        },
        {
          "internalType": "uint256",
          "name": "toTokenId",
          "type": "uint256"
        },
        {
          "internalType": "string",
          "name": "cid",
          "type": "string"
        }
      ],
      "name": "moveFile",
      "outputs": [],
      "stateMutability": "nonpayable",
      "type": "function"
    },
    {
      "inputs": [],
      "name": "name",
      "outputs": [
        {
          "internalType": "string",
          "name": "",
          "type": "string"
        }
      ],
      "stateMutability": "view",
      "type": "function"
    },
    {
      "inputs": [],
      "name": "owner",
      "outputs": [
        {
          "internalType": "address",
          "name": "",
          "type": "address"
        }
      ],
      "stateMutability": "view",
      "type": "function"
    },
    {
      "inputs": [
        {
          "internalType": "uint256",
          "name": "tokenId",
          "type": "uint256"
        }
      ],
      "name": "ownerOf",
      "outputs": [
        {
          "internalType": "address",
          "name": "",
          "type": "address"
        }
      ],
      "stateMutability": "view",
      "type": "function"
    },
    {
      "inputs": [],
      "name": "renounceOwnership",
      "outputs": [],
      "stateMutability": "nonpayable",
      "type": "function"
    },
    {
      "inputs": [
        {
          "internalType": "uint256",
          "name": "shareId",
          "type": "uint256"
        }
      ],
      "name": "revokeShare",
      "outputs": [],
      "stateMutability": "nonpayable",
      "type": "function"
    },
    {
      "inputs": [
        {
          "internalType": "address",
          "name": "from",
          "type": "address"
        },
        {
          "internalType": "address",
          "name": "to",
          "type": "address"
        },
        {
          "internalType": "uint256",
          "name": "tokenId",
          "type": "uint256"
        }
      ],
      "name": "safeTransferFrom",
      "outputs": [],
      "stateMutability": "nonpayable",
      "type": "function"
    },
    {
      "inputs": [
        {
          "internalType": "address",
          "name": "from",
          "type": "address"
        },
        {
          "internalType": "address",
          "name": "to",
          "type": "address"
        },
        {
          "internalType": "uint256",
          "name": "tokenId",
          "type": "uint256"
        },
        {
          "internalType": "bytes",
          "name": "data",
          "type": "bytes"
        }
      ],
      "name": "safeTransferFrom",
      "outputs": [],
      "stateMutability": "nonpayable",
      "type": "function"
    },
    {
      "inputs": [
        {
          "internalType": "address",
          "name": "operator",
          "type": "address"
        },
        {
          "internalType": "bool",
          "name": "approved",
          "type": "bool"
        }
      ],
      "name": "setApprovalForAll",
      "outputs": [],
      "stateMutability": "nonpayable",
      "type": "function"
    },
    {
      "inputs": [
        {
          "internalType": "uint256",
          "name": "tokenId",
          "type": "uint256"
        },
        {
          "internalType": "bool",
          "name": "isPublic",
          "type": "bool"
        }
      ],
      "name": "setFolderPublic",
      "outputs": [],
      "stateMutability": "nonpayable",
      "type": "function"
    },
    {
      "inputs": [
        {
          "internalType": "uint256",
          "name": "tokenId",
          "type": "uint256"
        },
        {
          "internalType": "address",
          "name": "grantee",
          "type": "address"
        },
        {
          "internalType": "bool",
          "name": "canRead_",
          "type": "bool"
        },
        {
          "internalType": "bool",
          "name": "canWrite_",
          "type": "bool"
        }
      ],
      "name": "shareFolder",
      "outputs": [
        {
          "internalType": "uint256",
          "name": "",
          "type": "uint256"
        }
      ],
      "stateMutability": "nonpayable",
      "type": "function"
    },
    {
      "inputs": [
        {
          "internalType": "bytes4",
          "name": "interfaceId",
          "type": "bytes4"
        }
      ],
      "name": "supportsInterface",
      "outputs": [
        {
          "internalType": "bool",
          "name": "",
          "type": "bool"
        }
      ],
      "stateMutability": "view",
      "type": "function"
    },
    {
      "inputs": [],
      "name": "symbol",
      "outputs": [
        {
          "internalType": "string",
          "name": "",
          "type": "string"
        }
      ],
      "stateMutability": "view",
      "type": "function"
    },
    {
      "inputs": [
        {
          "internalType": "uint256",
          "name": "index",
          "type": "uint256"
        }
      ],
      "name": "tokenByIndex",
      "outputs": [
        {
          "internalType": "uint256",
          "name": "",
          "type": "uint256"
        }
      ],
      "stateMutability": "view",
      "type": "function"
    },
    {
      "inputs": [
        {
          "internalType": "address",
          "name": "owner",
          "type": "address"
        },
        {
          "internalType": "uint256",
          "name": "index",
          "type": "uint256"
        }
      ],
      "name": "tokenOfOwnerByIndex",
      "outputs": [
        {
          "internalType": "uint256",
          "name": "",
          "type": "uint256"
        }
      ],
      "stateMutability": "view",
      "type": "function"
    },
    {
      "inputs": [
        {
          "internalType": "uint256",
          "name": "tokenId",
          "type": "uint256"
        }
      ],
      "name": "tokenURI",
      "outputs": [
        {
          "internalType": "string",
          "name": "",
          "type": "string"
        }
      ],
      "stateMutability": "view",
      "type": "function"
    },
    {
      "inputs": [],
      "name": "totalSupply",
      "outputs": [
        {
          "internalType": "uint256",
          "name": "",
          "type": "uint256"
        }
      ],
      "stateMutability": "view",
      "type": "function"
    },
    {
      "inputs": [
        {
          "internalType": "address",
          "name": "from",
          "type": "address"
        },
        {
          "internalType": "address",
          "name": "to",
          "type": "address"
        },
        {
          "internalType": "uint256",
          "name": "tokenId",
          "type": "uint256"
        }
      ],
      "name": "transferFrom",
      "outputs": [],
      "stateMutability": "nonpayable",
      "type": "function"
    },
    {
      "inputs": [
        {
          "internalType": "address",
          "name": "newOwner",
          "type": "address"
        }
      ],
      "name": "transferOwnership",
      "outputs": [],
      "stateMutability": "nonpayable",
      "type": "function"
    }
  ],
  "bytecode": "0x60806040526001600d553480156200001657600080fd5b503360405180604001604052806009815260200168119bdb19195c93919560ba1b8152506040518060400160405280600381526020016223222960e91b8152508160009081620000679190620001b1565b506001620000768282620001b1565b5050506001600160a01b038116620000a857604051631e4fbdf760e01b81526000600482015260240160405180910390fd5b620000b381620000ba565b506200027d565b600a80546001600160a01b038381166001600160a01b0319831681179093556040519116919082907f8be0079c531659141344cd1fd0a4f28419497f9722a3daafe3b4186f6b6457e090600090a35050565b634e487b7160e01b600052604160045260246000fd5b600181811c908216806200013757607f821691505b6020821081036200015857634e487b7160e01b600052602260045260246000fd5b50919050565b601f821115620001ac57600081815260208120601f850160051c81016020861015620001875750805b601f850160051c820191505b81811015620001a85782815560010162000193565b5050505b505050565b81516001600160401b03811115620001cd57620001cd6200010c565b620001e581620001de845462000122565b846200015e565b602080601f8311600181146200021d5760008415620002045750858301515b600019600386901b1c1916600185901b178555620001a8565b600085815260208120601f198616915b828110156200024e578886015182559484019460019091019084016200022d565b50858210156200026d5787850151600019600388901b60f8161c191681555b5050505050600190811b01905550565b6135a8806200028d6000396000f3fe608060405234801561001057600080fd5b50600436106101f05760003560e01c8063500387371161010f578063a22cb465116100a2578063d6dae36411610071578063d6dae3641461044f578063db47cc6314610462578063e985e9c514610475578063f2fde38b1461048857600080fd5b8063a22cb46514610403578063b88d4fde14610416578063c777ada214610429578063c87b56dd1461043c57600080fd5b8063715018a6116100de578063715018a6146103cf5780637cf1f53e146103d75780638da5cb5b146103ea57806395d89b41146103fb57600080fd5b8063500387371461038357806350f5eda1146103965780636352211e146103a957806370a08231146103bc57600080fd5b806323b872dd116101875780633cd1f0f7116101565780633cd1f0f71461034257806342842e0e14610355578063446db1e0146103685780634f6ccce71461037057600080fd5b806323b872dd146102f6578063299ef2f7146103095780632f745c591461031c578063333c64381461032f57600080fd5b80630c0564d6116101c35780630c0564d61461027257806312506f4d1461029257806318160ddd146102b25780631c321ea3146102c457600080fd5b806301ffc9a7146101f557806306fdde031461021d578063081812fc14610232578063095ea7b31461025d575b600080fd5b610208610203366004612982565b61049b565b60405190151581526020015b60405180910390f35b6102256104c6565b60405161021491906129ef565b610245610240366004612a02565b610558565b6040516001600160a01b039091168152602001610214565b61027061026b366004612a37565b610581565b005b610285610280366004612a61565b610590565b6040516102149190612a7c565b6102a56102a0366004612a02565b610631565b6040516102149190612ac0565b6008545b604051908152602001610214565b6102d76102d2366004612bbf565b610935565b6040805193151584529115156020840152151590820152606001610214565b610270610304366004612beb565b6109a1565b610270610317366004612c6f565b610a2c565b6102b661032a366004612a37565b610c31565b61028561033d366004612a61565b610c96565b610208610350366004612bbf565b610ddf565b610270610363366004612beb565b610ef6565b610285610f16565b6102b661037e366004612a02565b610fd3565b610270610391366004612a02565b61102c565b6102b66103a4366004612d42565b6111b7565b6102456103b7366004612a02565b61134f565b6102b66103ca366004612a61565b61135a565b6102706113a2565b6102b66103e5366004612dbd565b6113b6565b600a546001600160a01b0316610245565b61022561155b565b610270610411366004612e0a565b61156a565b610270610424366004612ed1565b611575565b610208610437366004612bbf565b61158d565b61022561044a366004612a02565b611677565b61027061045d366004612f4c565b6116ec565b610270610470366004612f92565b611d0d565b610208610483366004612fb5565b611dc4565b610270610496366004612a61565b611df2565b60006001600160e01b0319821663780e9d6360e01b14806104c057506104c082611e30565b92915050565b6060600080546104d590612fdf565b80601f016020809104026020016040519081016040528092919081815260200182805461050190612fdf565b801561054e5780601f106105235761010080835404028352916020019161054e565b820191906000526020600020905b81548152906001019060200180831161053157829003601f168201915b5050505050905090565b600061056382611e80565b506000828152600460205260409020546001600160a01b03166104c0565b61058c828233611eb9565b5050565b6060600061059d8361135a565b90506000816001600160401b038111156105b9576105b9612e34565b6040519080825280602002602001820160405280156105e2578160200160208202803683370190505b50905060005b82811015610629576105fa8582610c31565b82828151811061060c5761060c613019565b60209081029190910101528061062181613045565b9150506105e8565b509392505050565b606061063d8233610ddf565b8061065957506000828152600c602052604090206002015460ff165b6106995760405162461bcd60e51b815260206004820152600c60248201526b155b985d5d1a1bdc9a5e995960a21b60448201526064015b60405180910390fd5b6000828152600b6020908152604080832080548251818502810185019093528083529193909284015b8282101561092a57838290600052602060002090600502016040518060a00160405290816000820180546106f590612fdf565b80601f016020809104026020016040519081016040528092919081815260200182805461072190612fdf565b801561076e5780601f106107435761010080835404028352916020019161076e565b820191906000526020600020905b81548152906001019060200180831161075157829003601f168201915b5050505050815260200160018201805461078790612fdf565b80601f01602080910402602001604051908101604052809291908181526020018280546107b390612fdf565b80156108005780601f106107d557610100808354040283529160200191610800565b820191906000526020600020905b8154815290600101906020018083116107e357829003601f168201915b50505050508152602001600282015481526020016003820160009054906101000a90046001600160a01b03166001600160a01b03166001600160a01b0316815260200160048201805480602002602001604051908101604052809291908181526020016000905b8282101561091357838290600052602060002001805461088690612fdf565b80601f01602080910402602001604051908101604052809291908181526020018280546108b290612fdf565b80156108ff5780601f106108d4576101008083540402835291602001916108ff565b820191906000526020600020905b8154815290600101906020018083116108e257829003601f168201915b505050505081526020019060010190610867565b5050505081525050815260200190600101906106c2565b505050509050919050565b600080600061094385611ec6565b61096357604051637399e49160e01b815260048101869052602401610690565b836001600160a01b03166109768661134f565b6001600160a01b031614905061098c8585610ddf565b9250610998858561158d565b91509250925092565b6001600160a01b0382166109cb57604051633250574960e11b815260006004820152602401610690565b60006109d8838333611ee3565b9050836001600160a01b0316816001600160a01b031614610a26576040516364283d7b60e01b81526001600160a01b0380861660048301526024820184905282166044820152606401610690565b50505050565b610a3587611ec6565b610a5557604051637399e49160e01b815260048101889052602401610690565b610a5f873361158d565b610a7f57604051633907167960e21b815260048101889052602401610690565b6000859003610aa457858560405162caca1560e41b8152600401610690929190613087565b600b60008881526020019081526020016000206040518060a0016040528088888080601f016020809104026020016040519081016040528093929190818152602001838380828437600092019190915250505090825250604080516020601f890181900481028201810190925287815291810191908890889081908401838280828437600092019190915250505090825250426020820152336040820152606001610b4f848661309b565b90528154600181018355600092835260209092208151919260050201908190610b789082613178565b5060208201516001820190610b8d9082613178565b506040820151600282015560608201516003820180546001600160a01b0319166001600160a01b0390921691909117905560808201518051610bd9916004840191602090910190612848565b505050336001600160a01b0316877f0708d075a28932b89a86495f1fb44a424539de915441c627a57bc2936de888f2888888888888604051610c2096959493929190613237565b60405180910390a350505050505050565b6000610c3c8361135a565b8210610c6d5760405163295f44f760e21b81526001600160a01b038416600482015260248101839052604401610690565b506001600160a01b03919091166000908152600660209081526040808320938352929052205490565b6001600160a01b0381166000908152600f602052604081208054606092906001600160401b03811115610ccb57610ccb612e34565b604051908082528060200260200182016040528015610cf4578160200160208202803683370190505b5090506000805b8354811015610dd5576000600e6000868481548110610d1c57610d1c613019565b9060005260206000200154815260200190815260200160002090508060000154600014610dc2576000805b84811015610d8e578260000154868281518110610d6657610d66613019565b602002602001015103610d7c5760019150610d8e565b80610d8681613045565b915050610d47565b5080610dc05781548585610da181613045565b965081518110610db357610db3613019565b6020026020010181815250505b505b5080610dcd81613045565b915050610cfb565b5081529392505050565b6000610dea83611ec6565b610e0a57604051637399e49160e01b815260048101849052602401610690565b6000838152600c602052604090206002015460ff1615610e2c575060016104c0565b816001600160a01b0316610e3f8461134f565b6001600160a01b031603610e55575060016104c0565b6001600160a01b0382166000908152600f60205260408120905b8154811015610eeb576000600e6000848481548110610e9057610e90613019565b906000526020600020015481526020019081526020016000209050858160000154148015610ec957506001810154600160a01b900460ff165b15610eda57600193505050506104c0565b50610ee481613045565b9050610e6f565b506000949350505050565b610f1183838360405180602001604052806000815250611575565b505050565b60606000610f2360085490565b6001600160401b03811115610f3a57610f3a612e34565b604051908082528060200260200182016040528015610f63578160200160208202803683370190505b509050600060015b6008548111610fcb576000818152600c602052604090206002015460ff1615610fb957808383610f9a81613045565b945081518110610fac57610fac613019565b6020026020010181815250505b80610fc381613045565b915050610f6b565b508152919050565b6000610fde60085490565b82106110075760405163295f44f760e21b81526000600482015260248101839052604401610690565b6008828154811061101a5761101a613019565b90600052602060002001549050919050565b6000818152600e60205260408120805490910361105f57604051635e308a3760e01b815260048101839052602401610690565b8054339061106c9061134f565b6001600160a01b031614611096576040516336e7a3d960e11b815260048101839052602401610690565b60018101546001600160a01b03166000908152600f60205260408120905b815481101561116857838282815481106110d0576110d0613019565b90600052602060002001540361115657815482906110f0906001906132fd565b8154811061110057611100613019565b906000526020600020015482828154811061111d5761111d613019565b90600052602060002001819055508180548061113b5761113b613310565b60019003818190600052602060002001600090559055611168565b8061116081613045565b9150506110b4565b506000838152600e602052604080822082815560010180546001600160b01b03191690555184917f8c5a6faf8dae8a30a56c22fbcb6e105d3d45c9abfbf62015d17366f59a2ffda491a2505050565b60006111c1611fb8565b3360006111cd60085490565b6111d8906001613326565b90506111e48282611fe5565b6040518060a0016040528088888080601f016020809104026020016040519081016040528093929190818152602001838380828437600092019190915250505090825250604080516020601f890181900481028201810190925287815291810191908890889081908401838280828437600092018290525093855250505060208083018290526001600160a01b03861660408085019190915242606090940193909352848252600c9052208151819061129d9082613178565b50602082015160018201906112b29082613178565b5060408281015160028301805460608601516001600160a81b0319909116921515610100600160a81b031916929092176101006001600160a01b0393841602179055608090930151600390920191909155519083169082907f90bddb5884aa47cbefb24cf96e29bcd7daa1b02fe38a55ef02ff51197cb6d2d39061133d908b908b908b908b90613339565b60405180910390a39695505050505050565b60006104c082611e80565b60006001600160a01b038216611386576040516322718ad960e21b815260006004820152602401610690565b506001600160a01b031660009081526003602052604090205490565b6113aa611fb8565b6113b46000611fff565b565b60006113c185611ec6565b6113e157604051637399e49160e01b815260048101869052602401610690565b336113eb8661134f565b6001600160a01b03161461141557604051633907167960e21b815260048101869052602401610690565b6001600160a01b03841661145d5760405162461bcd60e51b815260206004820152600f60248201526e496e76616c6964206772616e74656560881b6044820152606401610690565b600d80546000918261146e83613045565b90915550604080516080810182528881526001600160a01b0388811660208084018281528a15158587018181528b15156060880181815260008b8152600e87528a812099518a5594516001998a018054945192511515600160a81b0260ff60a81b19931515600160a01b026001600160a81b031990961692909a16919091179390931716969096179055838252600f8352868220805496870181558252908290209094018690558451938452830191909152929350889184917fed6133e45d92afaf23ed76b65a2d239187b039cc66dcf993242e99210f6b1d9e910160405180910390a495945050505050565b6060600180546104d590612fdf565b61058c338383612051565b6115808484846109a1565b610a2633858585856120f0565b600061159883611ec6565b6115b857604051637399e49160e01b815260048101849052602401610690565b816001600160a01b03166115cb8461134f565b6001600160a01b0316036115e1575060016104c0565b6001600160a01b0382166000908152600f60205260408120905b8154811015610eeb576000600e600084848154811061161c5761161c613019565b90600052602060002001548152602001908152602001600020905085816000015414801561165557506001810154600160a81b900460ff165b1561166657600193505050506104c0565b5061167081613045565b90506115fb565b606061168282611e80565b50600061169a60408051602081019091526000815290565b905060008151116116ba57604051806020016040528060008152506116e5565b806116c48461221b565b6040516020016116d592919061336b565b6040516020818303038152906040525b9392505050565b6116f584611ec6565b61171557604051637399e49160e01b815260048101859052602401610690565b61171e83611ec6565b61173e57604051637399e49160e01b815260048101849052602401610690565b611748843361158d565b61176857604051633907167960e21b815260048101859052602401610690565b611772833361158d565b61179257604051633907167960e21b815260048101849052602401610690565b6000848152600b60209081526040808320815160a08101835260608082529381018490529182018490528282019390935260808101919091526000199060005b8354811015611aad5785856040516117eb92919061339a565b604051809103902084828154811061180557611805613019565b906000526020600020906005020160000160405161182391906133aa565b604051809103902003611a9b5780925083818154811061184557611845613019565b90600052602060002090600502016040518060a001604052908160008201805461186e90612fdf565b80601f016020809104026020016040519081016040528092919081815260200182805461189a90612fdf565b80156118e75780601f106118bc576101008083540402835291602001916118e7565b820191906000526020600020905b8154815290600101906020018083116118ca57829003601f168201915b5050505050815260200160018201805461190090612fdf565b80601f016020809104026020016040519081016040528092919081815260200182805461192c90612fdf565b80156119795780601f1061194e57610100808354040283529160200191611979565b820191906000526020600020905b81548152906001019060200180831161195c57829003601f168201915b50505050508152602001600282015481526020016003820160009054906101000a90046001600160a01b03166001600160a01b03166001600160a01b0316815260200160048201805480602002602001604051908101604052809291908181526020016000905b82821015611a8c5783829060005260206000200180546119ff90612fdf565b80601f0160208091040260200160405190810160405280929190818152602001828054611a2b90612fdf565b8015611a785780601f10611a4d57610100808354040283529160200191611a78565b820191906000526020600020905b815481529060010190602001808311611a5b57829003601f168201915b5050505050815260200190600101906119e0565b50505050815250509150611aad565b80611aa581613045565b9150506117d2565b506000198203611aff5760405162461bcd60e51b815260206004820152601f60248201527f46696c65206e6f7420666f756e6420696e20736f7572636520666f6c646572006044820152606401610690565b82548390611b0f906001906132fd565b81548110611b1f57611b1f613019565b9060005260206000209060050201838381548110611b3f57611b3f613019565b6000918252602090912060059091020180611b5a8382613420565b50600181810190611b6d90840182613420565b506002828101549082015560038083015490820180546001600160a01b0319166001600160a01b0390921691909117905560048083018054611bb2928401919061289e565b5090505082805480611bc657611bc6613310565b60008281526020812060001990920191600583020190611be682826128e6565b611bf46001830160006128e6565b6000600283018190556003830180546001600160a01b0319169055611c1d906004840190612920565b505090556000868152600b6020908152604082208054600181018255908352912082518392600502909101908190611c559082613178565b5060208201516001820190611c6a9082613178565b506040820151600282015560608201516003820180546001600160a01b0319166001600160a01b0390921691909117905560808201518051611cb6916004840191602090910190612848565b505050336001600160a01b031686887f6e5df78c414fd81e8f18eaa4771ece772cb2fa0713d18c039a23be9c0cb5120388888660200151604051611cfc939291906134f2565b60405180910390a450505050505050565b611d1682611ec6565b611d3657604051637399e49160e01b815260048101839052602401610690565b33611d408361134f565b6001600160a01b031614611d6a57604051633907167960e21b815260048101839052602401610690565b6000828152600c6020908152604091829020600201805460ff1916841515908117909155915191825283917ff473ca6c6c330ce0e937d075ca2c506af1927f94387452786dab4a6b16e16e19910160405180910390a25050565b6001600160a01b03918216600090815260056020908152604080832093909416825291909152205460ff1690565b611dfa611fb8565b6001600160a01b038116611e2457604051631e4fbdf760e01b815260006004820152602401610690565b611e2d81611fff565b50565b60006001600160e01b031982166380ac58cd60e01b1480611e6157506001600160e01b03198216635b5e139f60e01b145b806104c057506301ffc9a760e01b6001600160e01b03198316146104c0565b6000818152600260205260408120546001600160a01b0316806104c057604051637e27328960e01b815260048101849052602401610690565b610f1183838360016122ad565b6000908152600260205260409020546001600160a01b0316151590565b600080611ef18585856123b3565b90506001600160a01b038116611f4e57611f4984600880546000838152600960205260408120829055600182018355919091527ff3f7a9fe364faab93b216da50a3214154f22a0a2b415b23a84c8169e8b636ee30155565b611f71565b846001600160a01b0316816001600160a01b031614611f7157611f7181856124ac565b6001600160a01b038516611f8d57611f888461252d565b611fb0565b846001600160a01b0316816001600160a01b031614611fb057611fb085856125dc565b949350505050565b600a546001600160a01b031633146113b45760405163118cdaa760e01b8152336004820152602401610690565b61058c82826040518060200160405280600081525061262c565b600a80546001600160a01b038381166001600160a01b0319831681179093556040519116919082907f8be0079c531659141344cd1fd0a4f28419497f9722a3daafe3b4186f6b6457e090600090a35050565b6001600160a01b03821661208357604051630b61174360e31b81526001600160a01b0383166004820152602401610690565b6001600160a01b03838116600081815260056020908152604080832094871680845294825291829020805460ff191686151590811790915591519182527f17307eab39ab6107e8899845ad3d59bd9653f200f220920489ca2b5937696c31910160405180910390a3505050565b6001600160a01b0383163b1561221457604051630a85bd0160e11b81526001600160a01b0384169063150b7a0290612132908890889087908790600401613522565b6020604051808303816000875af192505050801561216d575060408051601f3d908101601f1916820190925261216a91810190613555565b60015b6121d6573d80801561219b576040519150601f19603f3d011682016040523d82523d6000602084013e6121a0565b606091505b5080516000036121ce57604051633250574960e11b81526001600160a01b0385166004820152602401610690565b805181602001fd5b6001600160e01b03198116630a85bd0160e11b1461221257604051633250574960e11b81526001600160a01b0385166004820152602401610690565b505b5050505050565b6060600061222883612644565b60010190506000816001600160401b0381111561224757612247612e34565b6040519080825280601f01601f191660200182016040528015612271576020820181803683370190505b5090508181016020015b600019016f181899199a1a9b1b9c1cb0b131b232b360811b600a86061a8153600a850494508461227b57509392505050565b80806122c157506001600160a01b03821615155b156123835760006122d184611e80565b90506001600160a01b038316158015906122fd5750826001600160a01b0316816001600160a01b031614155b8015612310575061230e8184611dc4565b155b156123395760405163a9fbf51f60e01b81526001600160a01b0384166004820152602401610690565b81156123815783856001600160a01b0316826001600160a01b03167f8c5be1e5ebec7d5bd14f71427d1e84f3dd0314c0f7b2291e5b200ac8c7c3b92560405160405180910390a45b505b5050600090815260046020526040902080546001600160a01b0319166001600160a01b0392909216919091179055565b6000828152600260205260408120546001600160a01b03908116908316156123e0576123e081848661271c565b6001600160a01b0381161561241e576123fd6000856000806122ad565b6001600160a01b038116600090815260036020526040902080546000190190555b6001600160a01b0385161561244d576001600160a01b0385166000908152600360205260409020805460010190555b60008481526002602052604080822080546001600160a01b0319166001600160a01b0389811691821790925591518793918516917fddf252ad1be2c89b69c2b068fc378daa952ba7f163c4a11628f55a4df523b3ef91a4949350505050565b60006124b78361135a565b6000838152600760209081526040808320546001600160a01b038816845260069092529091209192509081831461250e57600083815260208281526040808320548584528184208190558352600790915290208290555b6000938452600760209081526040808620869055938552525081205550565b60085460009061253f906001906132fd565b6000838152600960205260408120546008805493945090928490811061256757612567613019565b90600052602060002001549050806008838154811061258857612588613019565b60009182526020808320909101929092558281526009909152604080822084905585825281205560088054806125c0576125c0613310565b6001900381819060005260206000200160009055905550505050565b600060016125e98461135a565b6125f391906132fd565b6001600160a01b039093166000908152600660209081526040808320868452825280832085905593825260079052919091209190915550565b6126368383612780565b610f113360008585856120f0565b60008072184f03e93ff9f4daa797ed6e38ed64bf6a1f0160401b83106126835772184f03e93ff9f4daa797ed6e38ed64bf6a1f0160401b830492506040015b6d04ee2d6d415b85acef810000000083106126af576d04ee2d6d415b85acef8100000000830492506020015b662386f26fc1000083106126cd57662386f26fc10000830492506010015b6305f5e10083106126e5576305f5e100830492506008015b61271083106126f957612710830492506004015b6064831061270b576064830492506002015b600a83106104c05760010192915050565b6127278383836127e5565b610f11576001600160a01b03831661275557604051637e27328960e01b815260048101829052602401610690565b60405163177e802f60e01b81526001600160a01b038316600482015260248101829052604401610690565b6001600160a01b0382166127aa57604051633250574960e11b815260006004820152602401610690565b60006127b883836000611ee3565b90506001600160a01b03811615610f11576040516339e3563760e11b815260006004820152602401610690565b60006001600160a01b03831615801590611fb05750826001600160a01b0316846001600160a01b0316148061281f575061281f8484611dc4565b80611fb05750506000908152600460205260409020546001600160a01b03908116911614919050565b82805482825590600052602060002090810192821561288e579160200282015b8281111561288e578251829061287e9082613178565b5091602001919060010190612868565b5061289a92915061293a565b5090565b82805482825590600052602060002090810192821561288e5760005260206000209182015b8281111561288e57816128d68482613420565b50916001019190600101906128c3565b5080546128f290612fdf565b6000825580601f10612902575050565b601f016020900490600052602060002090810190611e2d9190612957565b5080546000825590600052602060002090810190611e2d91905b8082111561289a57600061294e82826128e6565b5060010161293a565b5b8082111561289a5760008155600101612958565b6001600160e01b031981168114611e2d57600080fd5b60006020828403121561299457600080fd5b81356116e58161296c565b60005b838110156129ba5781810151838201526020016129a2565b50506000910152565b600081518084526129db81602086016020860161299f565b601f01601f19169290920160200192915050565b6020815260006116e560208301846129c3565b600060208284031215612a1457600080fd5b5035919050565b80356001600160a01b0381168114612a3257600080fd5b919050565b60008060408385031215612a4a57600080fd5b612a5383612a1b565b946020939093013593505050565b600060208284031215612a7357600080fd5b6116e582612a1b565b6020808252825182820181905260009190848201906040850190845b81811015612ab457835183529284019291840191600101612a98565b50909695505050505050565b602080825282518282018190526000919060409081850190600581811b8701840188860187805b85811015612baf57603f198b8503018752825160a08151818752612b0d828801826129c3565b9150508a8201518682038c880152612b2582826129c3565b838c0151888d01526060808501516001600160a01b031690890152608093840151888203948901949094528351808252938d01939092508c8301915080891b83018d01865b82811015612b9857601f19858303018452612b868287516129c3565b958f0195938f01939150600101612b6a565b509a8d019a97505050938a01935050600101612ae7565b50919a9950505050505050505050565b60008060408385031215612bd257600080fd5b82359150612be260208401612a1b565b90509250929050565b600080600060608486031215612c0057600080fd5b612c0984612a1b565b9250612c1760208501612a1b565b9150604084013590509250925092565b60008083601f840112612c3957600080fd5b5081356001600160401b03811115612c5057600080fd5b602083019150836020828501011115612c6857600080fd5b9250929050565b60008060008060008060006080888a031215612c8a57600080fd5b8735965060208801356001600160401b0380821115612ca857600080fd5b612cb48b838c01612c27565b909850965060408a0135915080821115612ccd57600080fd5b612cd98b838c01612c27565b909650945060608a0135915080821115612cf257600080fd5b818a0191508a601f830112612d0657600080fd5b813581811115612d1557600080fd5b8b60208260051b8501011115612d2a57600080fd5b60208301945080935050505092959891949750929550565b60008060008060408587031215612d5857600080fd5b84356001600160401b0380821115612d6f57600080fd5b612d7b88838901612c27565b90965094506020870135915080821115612d9457600080fd5b50612da187828801612c27565b95989497509550505050565b80358015158114612a3257600080fd5b60008060008060808587031215612dd357600080fd5b84359350612de360208601612a1b565b9250612df160408601612dad565b9150612dff60608601612dad565b905092959194509250565b60008060408385031215612e1d57600080fd5b612e2683612a1b565b9150612be260208401612dad565b634e487b7160e01b600052604160045260246000fd5b604051601f8201601f191681016001600160401b0381118282101715612e7257612e72612e34565b604052919050565b60006001600160401b03831115612e9357612e93612e34565b612ea6601f8401601f1916602001612e4a565b9050828152838383011115612eba57600080fd5b828260208301376000602084830101529392505050565b60008060008060808587031215612ee757600080fd5b612ef085612a1b565b9350612efe60208601612a1b565b92506040850135915060608501356001600160401b03811115612f2057600080fd5b8501601f81018713612f3157600080fd5b612f4087823560208401612e7a565b91505092959194509250565b60008060008060608587031215612f6257600080fd5b843593506020850135925060408501356001600160401b03811115612f8657600080fd5b612da187828801612c27565b60008060408385031215612fa557600080fd5b82359150612be260208401612dad565b60008060408385031215612fc857600080fd5b612fd183612a1b565b9150612be260208401612a1b565b600181811c90821680612ff357607f821691505b60208210810361301357634e487b7160e01b600052602260045260246000fd5b50919050565b634e487b7160e01b600052603260045260246000fd5b634e487b7160e01b600052601160045260246000fd5b6000600182016130575761305761302f565b5060010190565b81835281816020850137506000828201602090810191909152601f909101601f19169091010190565b602081526000611fb060208301848661305e565b60006001600160401b03808411156130b5576130b5612e34565b8360051b60206130c6818301612e4a565b8681529185019181810190368411156130de57600080fd5b865b84811015613126578035868111156130f85760008081fd5b880136601f82011261310a5760008081fd5b613118368235878401612e7a565b8452509183019183016130e0565b50979650505050505050565b601f821115610f1157600081815260208120601f850160051c810160208610156131595750805b601f850160051c820191505b8181101561221257828155600101613165565b81516001600160401b0381111561319157613191612e34565b6131a58161319f8454612fdf565b84613132565b602080601f8311600181146131da57600084156131c25750858301515b600019600386901b1c1916600185901b178555612212565b600085815260208120601f198616915b82811015613209578886015182559484019460019091019084016131ea565b50858210156132275787850151600019600388901b60f8161c191681555b5050505050600190811b01905550565b60608152600061324b60608301888a61305e565b60208382038185015261325f82888a61305e565b84810360408601528581529150808201600586901b830182018760005b888110156132eb57858303601f190184528135368b9003601e190181126132a257600080fd5b8a0185810190356001600160401b038111156132bd57600080fd5b8036038213156132cc57600080fd5b6132d785828461305e565b95870195945050509084019060010161327c565b50909c9b505050505050505050505050565b818103818111156104c0576104c061302f565b634e487b7160e01b600052603160045260246000fd5b808201808211156104c0576104c061302f565b60408152600061334d60408301868861305e565b828103602084015261336081858761305e565b979650505050505050565b6000835161337d81846020880161299f565b83519083019061339181836020880161299f565b01949350505050565b8183823760009101908152919050565b60008083546133b881612fdf565b600182811680156133d057600181146133e557613414565b60ff1984168752821515830287019450613414565b8760005260208060002060005b8581101561340b5781548a8201529084019082016133f2565b50505082870194505b50929695505050505050565b81810361342b575050565b6134358254612fdf565b6001600160401b0381111561344c5761344c612e34565b61345a8161319f8454612fdf565b6000601f82116001811461348e57600083156134765750848201545b600019600385901b1c1916600184901b178455612214565b600085815260209020601f19841690600086815260209020845b838110156134c857828601548255600195860195909101906020016134a8565b50858310156132275793015460001960f8600387901b161c19169092555050600190811b01905550565b60408152600061350660408301858761305e565b828103602084015261351881856129c3565b9695505050505050565b6001600160a01b0385811682528416602082015260408101839052608060608201819052600090613518908301846129c3565b60006020828403121561356757600080fd5b81516116e58161296c56fea26469706673582212201839225619b67e7b02c539c23e71b7eb98021621e53ed52763246d46f489076264736f6c63430008140033",
  "linkReferences": {},
  "deployedLinkReferences": {}
}