{
  "_format": "hh-sol-artifact-1",
  "contractName": "FolderNFT",
  "sourceName": "contracts/FILDOS.sol",
  "abi": [
    {
      "inputs": [
        {
          "internalType": "address",
          "name": "_paymentToken",
          "type": "address"
        }
      ],
      "stateMutability": "nonpayable",
      "type": "constructor"
    },
    {
      "inputs": [],
      "name": "ERC721EnumerableForbiddenBatchMint",
      "type": "error"
    },
    {
      "inputs": [
        {
          "internalType": "address",
          "name": "sender",
          "type": "address"
        },
        {
          "internalType": "uint256",
          "name": "tokenId",
          "type": "uint256"
        },
        {
          "internalType": "address",
          "name": "owner",
          "type": "address"
        }
      ],
      "name": "ERC721IncorrectOwner",
      "type": "error"
    },
    {
      "inputs": [
        {
          "internalType": "address",
          "name": "operator",
          "type": "address"
        },
        {
          "internalType": "uint256",
          "name": "tokenId",
          "type": "uint256"
        }
      ],
      "name": "ERC721InsufficientApproval",
      "type": "error"
    },
    {
      "inputs": [
        {
          "internalType": "address",
          "name": "approver",
          "type": "address"
        }
      ],
      "name": "ERC721InvalidApprover",
      "type": "error"
    },
    {
      "inputs": [
        {
          "internalType": "address",
          "name": "operator",
          "type": "address"
        }
      ],
      "name": "ERC721InvalidOperator",
      "type": "error"
    },
    {
      "inputs": [
        {
          "internalType": "address",
          "name": "owner",
          "type": "address"
        }
      ],
      "name": "ERC721InvalidOwner",
      "type": "error"
    },
    {
      "inputs": [
        {
          "internalType": "address",
          "name": "receiver",
          "type": "address"
        }
      ],
      "name": "ERC721InvalidReceiver",
      "type": "error"
    },
    {
      "inputs": [
        {
          "internalType": "address",
          "name": "sender",
          "type": "address"
        }
      ],
      "name": "ERC721InvalidSender",
      "type": "error"
    },
    {
      "inputs": [
        {
          "internalType": "uint256",
          "name": "tokenId",
          "type": "uint256"
        }
      ],
      "name": "ERC721NonexistentToken",
      "type": "error"
    },
    {
      "inputs": [
        {
          "internalType": "address",
          "name": "owner",
          "type": "address"
        },
        {
          "internalType": "uint256",
          "name": "index",
          "type": "uint256"
        }
      ],
      "name": "ERC721OutOfBoundsIndex",
      "type": "error"
    },
    {
      "inputs": [
        {
          "internalType": "uint256",
          "name": "tokenId",
          "type": "uint256"
        }
      ],
      "name": "FolderDoesNotExist",
      "type": "error"
    },
    {
      "inputs": [
        {
          "internalType": "uint256",
          "name": "required",
          "type": "uint256"
        },
        {
          "internalType": "uint256",
          "name": "provided",
          "type": "uint256"
        }
      ],
      "name": "InsufficientPayment",
      "type": "error"
    },
    {
      "inputs": [
        {
          "internalType": "string",
          "name": "cid",
          "type": "string"
        }
      ],
      "name": "InvalidCID",
      "type": "error"
    },
    {
      "inputs": [],
      "name": "InvalidPaymentToken",
      "type": "error"
    },
    {
      "inputs": [
        {
          "internalType": "uint256",
          "name": "tokenId",
          "type": "uint256"
        }
      ],
      "name": "NotFolderAccess",
      "type": "error"
    },
    {
      "inputs": [
        {
          "internalType": "uint256",
          "name": "tokenId",
          "type": "uint256"
        }
      ],
      "name": "NotFolderOwner",
      "type": "error"
    },
    {
      "inputs": [
        {
          "internalType": "uint256",
          "name": "shareId",
          "type": "uint256"
        }
      ],
      "name": "NotShareOwner",
      "type": "error"
    },
    {
      "inputs": [
        {
          "internalType": "address",
          "name": "owner",
          "type": "address"
        }
      ],
      "name": "OwnableInvalidOwner",
      "type": "error"
    },
    {
      "inputs": [
        {
          "internalType": "address",
          "name": "account",
          "type": "address"
        }
      ],
      "name": "OwnableUnauthorizedAccount",
      "type": "error"
    },
    {
      "inputs": [
        {
          "internalType": "uint256",
          "name": "shareId",
          "type": "uint256"
        }
      ],
      "name": "ShareNotFound",
      "type": "error"
    },
    {
      "inputs": [
        {
          "internalType": "uint256",
          "name": "tokenId",
          "type": "uint256"
        }
      ],
      "name": "ViewingPriceNotSet",
      "type": "error"
    },
    {
      "anonymous": false,
      "inputs": [
        {
          "indexed": true,
          "internalType": "address",
          "name": "owner",
          "type": "address"
        },
        {
          "indexed": true,
          "internalType": "address",
          "name": "approved",
          "type": "address"
        },
        {
          "indexed": true,
          "internalType": "uint256",
          "name": "tokenId",
          "type": "uint256"
        }
      ],
      "name": "Approval",
      "type": "event"
    },
    {
      "anonymous": false,
      "inputs": [
        {
          "indexed": true,
          "internalType": "address",
          "name": "owner",
          "type": "address"
        },
        {
          "indexed": true,
          "internalType": "address",
          "name": "operator",
          "type": "address"
        },
        {
          "indexed": false,
          "internalType": "bool",
          "name": "approved",
          "type": "bool"
        }
      ],
      "name": "ApprovalForAll",
      "type": "event"
    },
    {
      "anonymous": false,
      "inputs": [
        {
          "indexed": true,
          "internalType": "uint256",
          "name": "tokenId",
          "type": "uint256"
        },
        {
          "indexed": false,
          "internalType": "string",
          "name": "cid",
          "type": "string"
        },
        {
          "indexed": false,
          "internalType": "string",
          "name": "filename",
          "type": "string"
        },
        {
          "indexed": true,
          "internalType": "address",
          "name": "owner",
          "type": "address"
        },
        {
          "indexed": false,
          "internalType": "string[]",
          "name": "tags",
          "type": "string[]"
        },
        {
          "indexed": false,
          "internalType": "bool",
          "name": "encrypted",
          "type": "bool"
        },
        {
          "indexed": false,
          "internalType": "string",
          "name": "dataToEncryptHash",
          "type": "string"
        },
        {
          "indexed": false,
          "internalType": "string",
          "name": "fileType",
          "type": "string"
        }
      ],
      "name": "FileAdded",
      "type": "event"
    },
    {
      "anonymous": false,
      "inputs": [
        {
          "indexed": true,
          "internalType": "uint256",
          "name": "fromTokenId",
          "type": "uint256"
        },
        {
          "indexed": true,
          "internalType": "uint256",
          "name": "toTokenId",
          "type": "uint256"
        },
        {
          "indexed": false,
          "internalType": "string",
          "name": "cid",
          "type": "string"
        },
        {
          "indexed": false,
          "internalType": "string",
          "name": "filename",
          "type": "string"
        },
        {
          "indexed": true,
          "internalType": "address",
          "name": "mover",
          "type": "address"
        },
        {
          "indexed": false,
          "internalType": "bool",
          "name": "encrypted",
          "type": "bool"
        },
        {
          "indexed": false,
          "internalType": "string",
          "name": "dataToEncryptHash",
          "type": "string"
        },
        {
          "indexed": false,
          "internalType": "string",
          "name": "fileType",
          "type": "string"
        }
      ],
      "name": "FileMoved",
      "type": "event"
    },
    {
      "anonymous": false,
      "inputs": [
        {
          "indexed": true,
          "internalType": "uint256",
          "name": "tokenId",
          "type": "uint256"
        },
        {
          "indexed": false,
          "internalType": "string",
          "name": "cid",
          "type": "string"
        },
        {
          "indexed": false,
          "internalType": "string",
          "name": "filename",
          "type": "string"
        },
        {
          "indexed": true,
          "internalType": "address",
          "name": "remover",
          "type": "address"
        }
      ],
      "name": "FileRemoved",
      "type": "event"
    },
    {
      "anonymous": false,
      "inputs": [
        {
          "indexed": true,
          "internalType": "address",
          "name": "searcher",
          "type": "address"
        },
        {
          "indexed": true,
          "internalType": "uint256",
          "name": "folderId",
          "type": "uint256"
        },
        {
          "indexed": false,
          "internalType": "string",
          "name": "tag",
          "type": "string"
        },
        {
          "indexed": false,
          "internalType": "uint256",
          "name": "resultsCount",
          "type": "uint256"
        }
      ],
      "name": "FilesSearched",
      "type": "event"
    },
    {
      "anonymous": false,
      "inputs": [
        {
          "indexed": true,
          "internalType": "uint256",
          "name": "tokenId",
          "type": "uint256"
        },
        {
          "indexed": true,
          "internalType": "address",
          "name": "owner",
          "type": "address"
        },
        {
          "indexed": false,
          "internalType": "string",
          "name": "name",
          "type": "string"
        },
        {
          "indexed": false,
          "internalType": "string",
          "name": "folderType",
          "type": "string"
        }
      ],
      "name": "FolderMinted",
      "type": "event"
    },
    {
      "anonymous": false,
      "inputs": [
        {
          "indexed": true,
          "internalType": "uint256",
          "name": "tokenId",
          "type": "uint256"
        },
        {
          "indexed": false,
          "internalType": "bool",
          "name": "isPublic",
          "type": "bool"
        }
      ],
      "name": "FolderPublicityChanged",
      "type": "event"
    },
    {
      "anonymous": false,
      "inputs": [
        {
          "indexed": true,
          "internalType": "uint256",
          "name": "tokenId",
          "type": "uint256"
        },
        {
          "indexed": false,
          "internalType": "string",
          "name": "newType",
          "type": "string"
        }
      ],
      "name": "FolderTypeChanged",
      "type": "event"
    },
    {
      "anonymous": false,
      "inputs": [
        {
          "indexed": true,
          "internalType": "address",
          "name": "previousOwner",
          "type": "address"
        },
        {
          "indexed": true,
          "internalType": "address",
          "name": "newOwner",
          "type": "address"
        }
      ],
      "name": "OwnershipTransferred",
      "type": "event"
    },
    {
      "anonymous": false,
      "inputs": [
        {
          "indexed": true,
          "internalType": "address",
          "name": "token",
          "type": "address"
        }
      ],
      "name": "PaymentTokenSet",
      "type": "event"
    },
    {
      "anonymous": false,
      "inputs": [
        {
          "indexed": true,
          "internalType": "uint256",
          "name": "shareId",
          "type": "uint256"
        },
        {
          "indexed": true,
          "internalType": "uint256",
          "name": "folderId",
          "type": "uint256"
        },
        {
          "indexed": true,
          "internalType": "address",
          "name": "grantee",
          "type": "address"
        },
        {
          "indexed": false,
          "internalType": "bool",
          "name": "canRead",
          "type": "bool"
        },
        {
          "indexed": false,
          "internalType": "bool",
          "name": "canWrite",
          "type": "bool"
        }
      ],
      "name": "ShareCreated",
      "type": "event"
    },
    {
      "anonymous": false,
      "inputs": [
        {
          "indexed": true,
          "internalType": "uint256",
          "name": "shareId",
          "type": "uint256"
        }
      ],
      "name": "ShareRevoked",
      "type": "event"
    },
    {
      "anonymous": false,
      "inputs": [
        {
          "indexed": true,
          "internalType": "address",
          "name": "from",
          "type": "address"
        },
        {
          "indexed": true,
          "internalType": "address",
          "name": "to",
          "type": "address"
        },
        {
          "indexed": true,
          "internalType": "uint256",
          "name": "tokenId",
          "type": "uint256"
        }
      ],
      "name": "Transfer",
      "type": "event"
    },
    {
      "anonymous": false,
      "inputs": [
        {
          "indexed": true,
          "internalType": "uint256",
          "name": "tokenId",
          "type": "uint256"
        },
        {
          "indexed": true,
          "internalType": "address",
          "name": "viewer",
          "type": "address"
        },
        {
          "indexed": false,
          "internalType": "uint256",
          "name": "amount",
          "type": "uint256"
        }
      ],
      "name": "ViewAccessPurchased",
      "type": "event"
    },
    {
      "anonymous": false,
      "inputs": [
        {
          "indexed": true,
          "internalType": "uint256",
          "name": "tokenId",
          "type": "uint256"
        },
        {
          "indexed": false,
          "internalType": "uint256",
          "name": "price",
          "type": "uint256"
        }
      ],
      "name": "ViewingPriceSet",
      "type": "event"
    },
    {
      "inputs": [
        {
          "internalType": "uint256",
          "name": "tokenId",
          "type": "uint256"
        },
        {
          "internalType": "string",
          "name": "cid",
          "type": "string"
        },
        {
          "internalType": "string",
          "name": "filename",
          "type": "string"
        },
        {
          "internalType": "string[]",
          "name": "tags",
          "type": "string[]"
        },
        {
          "internalType": "bool",
          "name": "encrypted",
          "type": "bool"
        },
        {
          "internalType": "string",
          "name": "dataToEncryptHash",
          "type": "string"
        },
        {
          "internalType": "string",
          "name": "fileType",
          "type": "string"
        }
      ],
      "name": "addFile",
      "outputs": [],
      "stateMutability": "nonpayable",
      "type": "function"
    },
    {
      "inputs": [
        {
          "internalType": "address",
          "name": "to",
          "type": "address"
        },
        {
          "internalType": "uint256",
          "name": "tokenId",
          "type": "uint256"
        }
      ],
      "name": "approve",
      "outputs": [],
      "stateMutability": "nonpayable",
      "type": "function"
    },
    {
      "inputs": [
        {
          "internalType": "address",
          "name": "owner",
          "type": "address"
        }
      ],
      "name": "balanceOf",
      "outputs": [
        {
          "internalType": "uint256",
          "name": "",
          "type": "uint256"
        }
      ],
      "stateMutability": "view",
      "type": "function"
    },
    {
      "inputs": [
        {
          "internalType": "uint256",
          "name": "tokenId",
          "type": "uint256"
        },
        {
          "internalType": "address",
          "name": "user",
          "type": "address"
        }
      ],
      "name": "canRead",
      "outputs": [
        {
          "internalType": "bool",
          "name": "",
          "type": "bool"
        }
      ],
      "stateMutability": "view",
      "type": "function"
    },
    {
      "inputs": [
        {
          "internalType": "uint256",
          "name": "tokenId",
          "type": "uint256"
        },
        {
          "internalType": "address",
          "name": "user",
          "type": "address"
        }
      ],
      "name": "canWrite",
      "outputs": [
        {
          "internalType": "bool",
          "name": "",
          "type": "bool"
        }
      ],
      "stateMutability": "view",
      "type": "function"
    },
    {
      "inputs": [
        {
          "internalType": "uint256",
          "name": "tokenId",
          "type": "uint256"
        },
        {
          "internalType": "string",
          "name": "cid",
          "type": "string"
        }
      ],
      "name": "fileExists",
      "outputs": [
        {
          "internalType": "bool",
          "name": "",
          "type": "bool"
        }
      ],
      "stateMutability": "view",
      "type": "function"
    },
    {
      "inputs": [
        {
          "internalType": "uint256",
          "name": "tokenId",
          "type": "uint256"
        }
      ],
      "name": "getApproved",
      "outputs": [
        {
          "internalType": "address",
          "name": "",
          "type": "address"
        }
      ],
      "stateMutability": "view",
      "type": "function"
    },
    {
      "inputs": [
        {
          "internalType": "uint256",
          "name": "tokenId",
          "type": "uint256"
        }
      ],
      "name": "getFileCount",
      "outputs": [
        {
          "internalType": "uint256",
          "name": "",
          "type": "uint256"
        }
      ],
      "stateMutability": "view",
      "type": "function"
    },
    {
      "inputs": [
        {
          "internalType": "uint256",
          "name": "tokenId",
          "type": "uint256"
        }
      ],
      "name": "getFiles",
      "outputs": [
        {
          "components": [
            {
              "internalType": "string",
              "name": "cid",
              "type": "string"
            },
            {
              "internalType": "string",
              "name": "filename",
              "type": "string"
            },
            {
              "internalType": "uint256",
              "name": "timestamp",
              "type": "uint256"
            },
            {
              "internalType": "address",
              "name": "owner",
              "type": "address"
            },
            {
              "internalType": "string[]",
              "name": "tags",
              "type": "string[]"
            },
            {
              "internalType": "bool",
              "name": "encrypted",
              "type": "bool"
            },
            {
              "internalType": "string",
              "name": "dataToEncryptHash",
              "type": "string"
            },
            {
              "internalType": "string",
              "name": "fileType",
              "type": "string"
            }
          ],
          "internalType": "struct FolderNFT.FileEntry[]",
          "name": "",
          "type": "tuple[]"
        }
      ],
      "stateMutability": "view",
      "type": "function"
    },
    {
      "inputs": [
        {
          "internalType": "uint256",
          "name": "tokenId",
          "type": "uint256"
        },
        {
          "internalType": "address",
          "name": "user",
          "type": "address"
        }
      ],
      "name": "getFolderAccess",
      "outputs": [
        {
          "internalType": "bool",
          "name": "canRead_",
          "type": "bool"
        },
        {
          "internalType": "bool",
          "name": "canWrite_",
          "type": "bool"
        },
        {
          "internalType": "bool",
          "name": "isOwner",
          "type": "bool"
        }
      ],
      "stateMutability": "view",
      "type": "function"
    },
    {
      "inputs": [
        {
          "internalType": "uint256",
          "name": "tokenId",
          "type": "uint256"
        }
      ],
      "name": "getFolderData",
      "outputs": [
        {
          "components": [
            {
              "internalType": "string",
              "name": "name",
              "type": "string"
            },
            {
              "internalType": "string",
              "name": "folderType",
              "type": "string"
            },
            {
              "internalType": "bool",
              "name": "isPublic",
              "type": "bool"
            },
            {
              "internalType": "address",
              "name": "owner",
              "type": "address"
            },
            {
              "internalType": "uint256",
              "name": "createdAt",
              "type": "uint256"
            },
            {
              "internalType": "uint256",
              "name": "viewingPrice",
              "type": "uint256"
            }
          ],
          "internalType": "struct FolderNFT.FolderInfo",
          "name": "data_",
          "type": "tuple"
        }
      ],
      "stateMutability": "view",
      "type": "function"
    },
    {
      "inputs": [
        {
          "internalType": "uint256",
          "name": "tokenId",
          "type": "uint256"
        }
      ],
      "name": "getFolderSharees",
      "outputs": [
        {
          "internalType": "uint256[]",
          "name": "shareIds",
          "type": "uint256[]"
        },
        {
          "internalType": "address[]",
          "name": "sharees",
          "type": "address[]"
        },
        {
          "internalType": "bool[]",
          "name": "canReadList",
          "type": "bool[]"
        },
        {
          "internalType": "bool[]",
          "name": "canWriteList",
          "type": "bool[]"
        }
      ],
      "stateMutability": "view",
      "type": "function"
    },
    {
      "inputs": [
        {
          "internalType": "uint256",
          "name": "tokenId",
          "type": "uint256"
        }
      ],
      "name": "getFolderTags",
      "outputs": [
        {
          "internalType": "string[]",
          "name": "",
          "type": "string[]"
        }
      ],
      "stateMutability": "view",
      "type": "function"
    },
    {
      "inputs": [
        {
          "internalType": "address",
          "name": "owner",
          "type": "address"
        }
      ],
      "name": "getFoldersOwnedBy",
      "outputs": [
        {
          "internalType": "uint256[]",
          "name": "",
          "type": "uint256[]"
        }
      ],
      "stateMutability": "view",
      "type": "function"
    },
    {
      "inputs": [
        {
          "internalType": "address",
          "name": "user",
          "type": "address"
        }
      ],
      "name": "getFoldersSharedTo",
      "outputs": [
        {
          "internalType": "uint256[]",
          "name": "",
          "type": "uint256[]"
        }
      ],
      "stateMutability": "view",
      "type": "function"
    },
    {
      "inputs": [],
      "name": "getPublicFolders",
      "outputs": [
        {
          "internalType": "uint256[]",
          "name": "",
          "type": "uint256[]"
        }
      ],
      "stateMutability": "view",
      "type": "function"
    },
    {
      "inputs": [
        {
          "internalType": "uint256",
          "name": "tokenId",
          "type": "uint256"
        }
      ],
      "name": "getViewingPrice",
      "outputs": [
        {
          "internalType": "uint256",
          "name": "",
          "type": "uint256"
        }
      ],
      "stateMutability": "view",
      "type": "function"
    },
    {
      "inputs": [
        {
          "internalType": "uint256",
          "name": "tokenId",
          "type": "uint256"
        },
        {
          "internalType": "address",
          "name": "viewer",
          "type": "address"
        }
      ],
      "name": "hasPaidViewAccess",
      "outputs": [
        {
          "internalType": "bool",
          "name": "",
          "type": "bool"
        }
      ],
      "stateMutability": "view",
      "type": "function"
    },
    {
      "inputs": [
        {
          "internalType": "address",
          "name": "owner",
          "type": "address"
        },
        {
          "internalType": "address",
          "name": "operator",
          "type": "address"
        }
      ],
      "name": "isApprovedForAll",
      "outputs": [
        {
          "internalType": "bool",
          "name": "",
          "type": "bool"
        }
      ],
      "stateMutability": "view",
      "type": "function"
    },
    {
      "inputs": [
        {
          "internalType": "string",
          "name": "name",
          "type": "string"
        },
        {
          "internalType": "string",
          "name": "folderType",
          "type": "string"
        }
      ],
      "name": "mintFolder",
      "outputs": [
        {
          "internalType": "uint256",
          "name": "",
          "type": "uint256"
        }
      ],
      "stateMutability": "nonpayable",
      "type": "function"
    },
    {
      "inputs": [
        {
          "internalType": "uint256",
          "name": "fromTokenId",
          "type": "uint256"
        },
        {
          "internalType": "uint256",
          "name": "toTokenId",
          "type": "uint256"
        },
        {
          "internalType": "string",
          "name": "cid",
          "type": "string"
        }
      ],
      "name": "moveFile",
      "outputs": [],
      "stateMutability": "nonpayable",
      "type": "function"
    },
    {
      "inputs": [],
      "name": "name",
      "outputs": [
        {
          "internalType": "string",
          "name": "",
          "type": "string"
        }
      ],
      "stateMutability": "view",
      "type": "function"
    },
    {
      "inputs": [],
      "name": "owner",
      "outputs": [
        {
          "internalType": "address",
          "name": "",
          "type": "address"
        }
      ],
      "stateMutability": "view",
      "type": "function"
    },
    {
      "inputs": [
        {
          "internalType": "uint256",
          "name": "tokenId",
          "type": "uint256"
        }
      ],
      "name": "ownerOf",
      "outputs": [
        {
          "internalType": "address",
          "name": "",
          "type": "address"
        }
      ],
      "stateMutability": "view",
      "type": "function"
    },
    {
      "inputs": [
        {
          "internalType": "uint256",
          "name": "tokenId",
          "type": "uint256"
        }
      ],
      "name": "payForViewAccess",
      "outputs": [],
      "stateMutability": "nonpayable",
      "type": "function"
    },
    {
      "inputs": [],
      "name": "paymentToken",
      "outputs": [
        {
          "internalType": "contract IERC20",
          "name": "",
          "type": "address"
        }
      ],
      "stateMutability": "view",
      "type": "function"
    },
    {
      "inputs": [
        {
          "internalType": "uint256",
          "name": "tokenId",
          "type": "uint256"
        },
        {
          "internalType": "string",
          "name": "cid",
          "type": "string"
        }
      ],
      "name": "removeFile",
      "outputs": [],
      "stateMutability": "nonpayable",
      "type": "function"
    },
    {
      "inputs": [],
      "name": "renounceOwnership",
      "outputs": [],
      "stateMutability": "nonpayable",
      "type": "function"
    },
    {
      "inputs": [
        {
          "internalType": "uint256",
          "name": "shareId",
          "type": "uint256"
        }
      ],
      "name": "revokeShare",
      "outputs": [],
      "stateMutability": "nonpayable",
      "type": "function"
    },
    {
      "inputs": [
        {
          "internalType": "address",
          "name": "from",
          "type": "address"
        },
        {
          "internalType": "address",
          "name": "to",
          "type": "address"
        },
        {
          "internalType": "uint256",
          "name": "tokenId",
          "type": "uint256"
        }
      ],
      "name": "safeTransferFrom",
      "outputs": [],
      "stateMutability": "nonpayable",
      "type": "function"
    },
    {
      "inputs": [
        {
          "internalType": "address",
          "name": "from",
          "type": "address"
        },
        {
          "internalType": "address",
          "name": "to",
          "type": "address"
        },
        {
          "internalType": "uint256",
          "name": "tokenId",
          "type": "uint256"
        },
        {
          "internalType": "bytes",
          "name": "data",
          "type": "bytes"
        }
      ],
      "name": "safeTransferFrom",
      "outputs": [],
      "stateMutability": "nonpayable",
      "type": "function"
    },
    {
      "inputs": [
        {
          "internalType": "uint256",
          "name": "tokenId",
          "type": "uint256"
        },
        {
          "internalType": "string[]",
          "name": "tags",
          "type": "string[]"
        }
      ],
      "name": "searchFilesByMultipleTags",
      "outputs": [
        {
          "components": [
            {
              "internalType": "string",
              "name": "cid",
              "type": "string"
            },
            {
              "internalType": "string",
              "name": "filename",
              "type": "string"
            },
            {
              "internalType": "uint256",
              "name": "timestamp",
              "type": "uint256"
            },
            {
              "internalType": "address",
              "name": "owner",
              "type": "address"
            },
            {
              "internalType": "string[]",
              "name": "tags",
              "type": "string[]"
            },
            {
              "internalType": "bool",
              "name": "encrypted",
              "type": "bool"
            },
            {
              "internalType": "string",
              "name": "dataToEncryptHash",
              "type": "string"
            },
            {
              "internalType": "string",
              "name": "fileType",
              "type": "string"
            }
          ],
          "internalType": "struct FolderNFT.FileEntry[]",
          "name": "",
          "type": "tuple[]"
        }
      ],
      "stateMutability": "nonpayable",
      "type": "function"
    },
    {
      "inputs": [
        {
          "internalType": "uint256",
          "name": "tokenId",
          "type": "uint256"
        },
        {
          "internalType": "string",
          "name": "tag",
          "type": "string"
        }
      ],
      "name": "searchFilesByTag",
      "outputs": [
        {
          "components": [
            {
              "internalType": "string",
              "name": "cid",
              "type": "string"
            },
            {
              "internalType": "string",
              "name": "filename",
              "type": "string"
            },
            {
              "internalType": "uint256",
              "name": "timestamp",
              "type": "uint256"
            },
            {
              "internalType": "address",
              "name": "owner",
              "type": "address"
            },
            {
              "internalType": "string[]",
              "name": "tags",
              "type": "string[]"
            },
            {
              "internalType": "bool",
              "name": "encrypted",
              "type": "bool"
            },
            {
              "internalType": "string",
              "name": "dataToEncryptHash",
              "type": "string"
            },
            {
              "internalType": "string",
              "name": "fileType",
              "type": "string"
            }
          ],
          "internalType": "struct FolderNFT.FileEntry[]",
          "name": "",
          "type": "tuple[]"
        }
      ],
      "stateMutability": "nonpayable",
      "type": "function"
    },
    {
      "inputs": [
        {
          "internalType": "uint256[]",
          "name": "folderIds",
          "type": "uint256[]"
        },
        {
          "internalType": "string",
          "name": "tag",
          "type": "string"
        }
      ],
      "name": "searchFilesByTagAcrossFolders",
      "outputs": [
        {
          "components": [
            {
              "internalType": "string",
              "name": "cid",
              "type": "string"
            },
            {
              "internalType": "string",
              "name": "filename",
              "type": "string"
            },
            {
              "internalType": "uint256",
              "name": "timestamp",
              "type": "uint256"
            },
            {
              "internalType": "address",
              "name": "owner",
              "type": "address"
            },
            {
              "internalType": "string[]",
              "name": "tags",
              "type": "string[]"
            },
            {
              "internalType": "bool",
              "name": "encrypted",
              "type": "bool"
            },
            {
              "internalType": "string",
              "name": "dataToEncryptHash",
              "type": "string"
            },
            {
              "internalType": "string",
              "name": "fileType",
              "type": "string"
            }
          ],
          "internalType": "struct FolderNFT.FileEntry[]",
          "name": "",
          "type": "tuple[]"
        }
      ],
      "stateMutability": "view",
      "type": "function"
    },
    {
      "inputs": [
        {
          "internalType": "string",
          "name": "tag",
          "type": "string"
        }
      ],
      "name": "searchMyFilesByTag",
      "outputs": [
        {
          "components": [
            {
              "internalType": "string",
              "name": "cid",
              "type": "string"
            },
            {
              "internalType": "string",
              "name": "filename",
              "type": "string"
            },
            {
              "internalType": "uint256",
              "name": "timestamp",
              "type": "uint256"
            },
            {
              "internalType": "address",
              "name": "owner",
              "type": "address"
            },
            {
              "internalType": "string[]",
              "name": "tags",
              "type": "string[]"
            },
            {
              "internalType": "bool",
              "name": "encrypted",
              "type": "bool"
            },
            {
              "internalType": "string",
              "name": "dataToEncryptHash",
              "type": "string"
            },
            {
              "internalType": "string",
              "name": "fileType",
              "type": "string"
            }
          ],
          "internalType": "struct FolderNFT.FileEntry[]",
          "name": "",
          "type": "tuple[]"
        }
      ],
      "stateMutability": "view",
      "type": "function"
    },
    {
      "inputs": [
        {
          "internalType": "address",
          "name": "operator",
          "type": "address"
        },
        {
          "internalType": "bool",
          "name": "approved",
          "type": "bool"
        }
      ],
      "name": "setApprovalForAll",
      "outputs": [],
      "stateMutability": "nonpayable",
      "type": "function"
    },
    {
      "inputs": [
        {
          "internalType": "uint256",
          "name": "tokenId",
          "type": "uint256"
        },
        {
          "internalType": "bool",
          "name": "isPublic",
          "type": "bool"
        },
        {
          "internalType": "uint256",
          "name": "viewingPrice",
          "type": "uint256"
        }
      ],
      "name": "setFolderPublic",
      "outputs": [],
      "stateMutability": "nonpayable",
      "type": "function"
    },
    {
      "inputs": [
        {
          "internalType": "address",
          "name": "_paymentToken",
          "type": "address"
        }
      ],
      "name": "setPaymentToken",
      "outputs": [],
      "stateMutability": "nonpayable",
      "type": "function"
    },
    {
      "inputs": [
        {
          "internalType": "uint256",
          "name": "tokenId",
          "type": "uint256"
        },
        {
          "internalType": "uint256",
          "name": "price",
          "type": "uint256"
        }
      ],
      "name": "setViewingPrice",
      "outputs": [],
      "stateMutability": "nonpayable",
      "type": "function"
    },
    {
      "inputs": [
        {
          "internalType": "uint256",
          "name": "tokenId",
          "type": "uint256"
        },
        {
          "internalType": "address",
          "name": "grantee",
          "type": "address"
        },
        {
          "internalType": "bool",
          "name": "canRead_",
          "type": "bool"
        },
        {
          "internalType": "bool",
          "name": "canWrite_",
          "type": "bool"
        }
      ],
      "name": "shareFolder",
      "outputs": [
        {
          "internalType": "uint256",
          "name": "",
          "type": "uint256"
        }
      ],
      "stateMutability": "nonpayable",
      "type": "function"
    },
    {
      "inputs": [
        {
          "internalType": "bytes4",
          "name": "interfaceId",
          "type": "bytes4"
        }
      ],
      "name": "supportsInterface",
      "outputs": [
        {
          "internalType": "bool",
          "name": "",
          "type": "bool"
        }
      ],
      "stateMutability": "view",
      "type": "function"
    },
    {
      "inputs": [],
      "name": "symbol",
      "outputs": [
        {
          "internalType": "string",
          "name": "",
          "type": "string"
        }
      ],
      "stateMutability": "view",
      "type": "function"
    },
    {
      "inputs": [
        {
          "internalType": "uint256",
          "name": "index",
          "type": "uint256"
        }
      ],
      "name": "tokenByIndex",
      "outputs": [
        {
          "internalType": "uint256",
          "name": "",
          "type": "uint256"
        }
      ],
      "stateMutability": "view",
      "type": "function"
    },
    {
      "inputs": [
        {
          "internalType": "address",
          "name": "owner",
          "type": "address"
        },
        {
          "internalType": "uint256",
          "name": "index",
          "type": "uint256"
        }
      ],
      "name": "tokenOfOwnerByIndex",
      "outputs": [
        {
          "internalType": "uint256",
          "name": "",
          "type": "uint256"
        }
      ],
      "stateMutability": "view",
      "type": "function"
    },
    {
      "inputs": [
        {
          "internalType": "uint256",
          "name": "tokenId",
          "type": "uint256"
        }
      ],
      "name": "tokenURI",
      "outputs": [
        {
          "internalType": "string",
          "name": "",
          "type": "string"
        }
      ],
      "stateMutability": "view",
      "type": "function"
    },
    {
      "inputs": [],
      "name": "totalSupply",
      "outputs": [
        {
          "internalType": "uint256",
          "name": "",
          "type": "uint256"
        }
      ],
      "stateMutability": "view",
      "type": "function"
    },
    {
      "inputs": [
        {
          "internalType": "address",
          "name": "from",
          "type": "address"
        },
        {
          "internalType": "address",
          "name": "to",
          "type": "address"
        },
        {
          "internalType": "uint256",
          "name": "tokenId",
          "type": "uint256"
        }
      ],
      "name": "transferFrom",
      "outputs": [],
      "stateMutability": "nonpayable",
      "type": "function"
    },
    {
      "inputs": [
        {
          "internalType": "address",
          "name": "newOwner",
          "type": "address"
        }
      ],
      "name": "transferOwnership",
      "outputs": [],
      "stateMutability": "nonpayable",
      "type": "function"
    }
  ],
  "bytecode": "0x6080346200040357601f19906001600160401b0390601f62005083388190038281018616840185811185821017620003ed578492829160405283396020938491810103126200040357516001600160a01b03808216949092909185900362000403576200006b62000408565b936009855268119bdb19195c93919560ba1b818601526200008b62000408565b90600382526223222960e91b81830152855197848911620003ed576000988954976001988981811c91168015620003e2575b85821014620003ce579081878493116200037b575b5084908783116001146200031a578c926200030e575b5050600019600383901b1c191690881b1789555b8251948511620002fa5786548781811c91168015620002ef575b83821014620002db5790818587969594931162000282575b50819385116001146200021d575050879262000211575b5050600019600383901b1c191690831b1782555b3315620001f857600a549160018060a01b0319923384821617600a55604051923391167f8be0079c531659141344cd1fd0a4f28419497f9722a3daafe3b4186f6b6457e08780a3600e558215620001e95750819060135416176013557fcb0aeffe884eb88fb2a31a2f3e4bd1d2763bdee48ba93b28c6e87501228cf7436040519280a2614c5a9081620004298239f35b6356e7ec5f60e01b8152600490fd5b604051631e4fbdf760e01b815260048101859052602490fd5b01519050388062000145565b87959392919316858a52838a20938a905b8282106200026857505084116200024e575b505050811b01825562000159565b015160001960f88460031b161c1916905538808062000240565b84840151865589979095019493840193908101906200022e565b909192939450878a52828a208580880160051c820192858910620002d1575b9188978b9297969594930160051c01915b828110620002c25750506200012e565b8c81558897508a9101620002b2565b92508192620002a1565b634e487b7160e01b8a52602260045260248afd5b90607f169062000116565b634e487b7160e01b89526041600452602489fd5b015190503880620000e8565b908c91858c9516838052878420935b888282106200036457505084116200034a575b505050811b018955620000fc565b015160001960f88460031b161c191690553880806200033c565b8385015186558e9790950194938401930162000329565b9091508b8052848c208780850160051c820192878610620003c4575b918c91869594930160051c01915b828110620003b5575050620000d2565b8e81558594508c9101620003a5565b9250819262000397565b634e487b7160e01b8c52602260045260248cfd5b90607f1690620000bd565b634e487b7160e01b600052604160045260246000fd5b600080fd5b60408051919082016001600160401b03811183821017620003ed5760405256fe6080604052600436101561001257600080fd5b60003560e01c806301ffc9a71461031757806306fdde0314610312578063081812fc1461030d578063095ea7b3146103085780630c0564d61461030357806312506f4d146102fe578063153a9040146102f957806318160ddd146102f45780631c321ea3146102ef57806323b872dd146102ea57806328bde1d3146102e55780632f745c59146102e05780632fd7bb53146102db5780633013ce29146102d6578063333c6438146102d15780633cd1f0f7146102cc57806342842e0e146102c7578063446db1e0146102c25780634afa7e53146102bd5780634e6c3bbe146102b85780634f6ccce7146102b357806350038737146102ae57806350f5eda1146102a9578063567e55ef146102a45780635eb945b01461029f5780635fe1dec31461029a5780636352211e146102955780636a326ab11461029057806370a082311461028b578063715018a61461028657806371827cd514610281578063761805e51461027c5780637cf1f53e146102775780638da5cb5b146102725780638e6ea4ef1461026d57806395d89b4114610268578063a22cb46514610263578063a4cd6d261461025e578063b88d4fde14610259578063c4e7ee4d14610254578063c777ada21461024f578063c87b56dd1461024a578063ca0cf88314610245578063cc334e3714610240578063d6dae3641461023b578063e01b421714610236578063e985e9c5146102315763f2fde38b1461022c57600080fd5b612eb3565b612e62565b612cba565b612a99565b6128c2565b612744565b61263e565b612618565b612575565b6124ab565b6122cd565b612210565b61216b565b611ed8565b611eaf565b611cf0565b611c68565b611a8c565b611a2e565b611a0b565b611990565b611960565b61182d565b6116d8565b61162b565b611473565b61129e565b611280565b6110e4565b611016565b610f41565b610f0d565b610edd565b610db0565b610d87565b610d3b565b610d0c565b610ab2565b610a6e565b6109a1565b610983565b610931565b61085b565b6106a4565b61055c565b6104f2565b61040f565b610333565b6001600160e01b031981160361032e57565b600080fd5b3461032e57602036600319011261032e5760206004356103528161031c565b63ffffffff60e01b1663780e9d6360e01b8114908115610378575b506040519015158152f35b6380ac58cd60e01b8114915081156103aa575b8115610399575b503861036d565b6301ffc9a760e01b14905038610392565b635b5e139f60e01b8114915061038b565b919082519283825260005b8481106103e7575050826000602080949584010152601f8019910116010190565b6020818301810151848301820152016103c6565b90602061040c9281815201906103bb565b90565b3461032e576000806003193601126104ef576040519080805461043181612fa6565b808552916001918083169081156104c5575060011461046b575b6104678561045b818703826123ff565b604051918291826103fb565b0390f35b80809450527f290decd9548b62a8d60345a988386fc84ba6bc95484008f6362f93160ef3e5635b8284106104ad57505050810160200161045b8261046761044b565b80546020858701810191909152909301928101610492565b8695506104679693506020925061045b94915060ff191682840152151560051b820101929361044b565b80fd5b3461032e57602036600319011261032e5760043561050f8161321a565b506000526004602052602060018060a01b0360406000205416604051908152f35b600435906001600160a01b038216820361032e57565b602435906001600160a01b038216820361032e57565b3461032e57604036600319011261032e57610575610530565b602435906105828261321a565b3315158061064c575b8061061e575b61060257610600926105e19181906001600160a01b0385811691167f8c5be1e5ebec7d5bd14f71427d1e84f3dd0314c0f7b2291e5b200ac8c7c3b925600080a46000526004602052604060002090565b80546001600160a01b0319166001600160a01b03909216919091179055565b005b60405163a9fbf51f60e01b8152336004820152602490fd5b0390fd5b506001600160a01b038116600090815260056020908152604080832033845290915290205460ff1615610591565b506001600160a01b03811633141561058b565b90815180825260208080930193019160005b82811061067f575050505090565b835185529381019392810192600101610671565b90602061040c92818152019061065f565b3461032e57602036600319011261032e576106bd610530565b6106c681612f6d565b6106cf81614b67565b9160005b8281106106f057604051602080825281906104679082018761065f565b806106fe61070e9284613255565b61070882876149e2565b526145f0565b6106d3565b908082519081815260208091019281808460051b8301019501936000915b8483106107415750505050505090565b909192939495848061075f600193601f198682030187528a516103bb565b9801930193019194939290610731565b602080820190808352835180925260409283810182858560051b8401019601946000925b8584106107a4575050505050505090565b90919293949596858061084a600193603f198682030188528b516108376108186107ea6107da84516101008088528701906103bb565b87850151868203898801526103bb565b838b0151858c01526060808501516001600160a01b0316908601526080808501519086830390870152610713565b60a08381015115159085015260c08084015190858303908601526103bb565b9160e080920151918184039101526103bb565b990194019401929594939190610793565b3461032e57602036600319011261032e576004356108793382614706565b8015610916575b61088990614922565b80600052600b6020526040600020546108a18161495d565b9160005b8281106108ba5760405180610467868261076f565b806108f66108f16108e1610911946108dc87600052600b602052604060002090565b6149f6565b600052600c602052604060002090565b614420565b61090082876149e2565b5261090b81866149e2565b506145f0565b6108a5565b506000818152600d602052604090206002015460ff16610880565b3461032e57604036600319011261032e57602060ff610977610951610546565b6004356000526012845260406000209060018060a01b0316600052602052604060002090565b54166040519015158152f35b3461032e57600036600319011261032e576020600854604051908152f35b3461032e57604036600319011261032e576004356109bd610546565b6000828152600260205260409020549091906001600160a01b031615610a21576060916109e98261321a565b906109fe816109f88186614706565b94614811565b60405193151584521515602084015260018060a01b038091169116146040820152f35b60249060405190637399e49160e01b82526004820152fd5b606090600319011261032e576001600160a01b0390600435828116810361032e5791602435908116810361032e579060443590565b3461032e57610600610a7f36610a39565b91613084565b9181601f8401121561032e578235916001600160401b03831161032e576020838186019501011161032e57565b3461032e5760208060031936011261032e576004356001600160401b03811161032e57610ae3903690600401610a85565b90610aed33612f6d565b92610af784614b67565b9360005b818110610cef575050600091825b8551811015610b7357610b1c81876149e2565b516000818152600260205260409020546001600160a01b0316610b49575b50610b44906145f0565b610b09565b610b449194610b65610b6c92600052600b602052604060002090565b5490613a00565b9390610b3a565b509092610b80859361495d565b600090815b8551811015610cad57610b9881876149e2565b516000818152600260205260409020546001600160a01b031615610bbb565b1590565b610ca357610bd381600052600b602052604060002090565b549060005b828110610bf057505050610beb906145f0565b610b85565b610c0e6108f16108e1836108dc86600052600b602052604060002090565b610c22610c1c368a8c612474565b82614b09565b610c36575b50610c31906145f0565b610bd8565b6000805b888110610c6c575b50610c275786610c6591610c5a610c319499896149e2565b5261090b81886149e2565b9590610c27565b610c7681896149e2565b51518051908e012083518051908f012014610c9957610c94906145f0565b610c3a565b505060018c610c42565b50610beb906145f0565b5090610cb88161495d565b9160005b828110610cd15760405180610467868261076f565b80610cdf610cea92846149e2565b5161090082876149e2565b610cbc565b80610cfd610d079233613255565b61070882896149e2565b610afb565b3461032e57604036600319011261032e576020610d33610d2a610530565b60243590613255565b604051908152f35b3461032e57602036600319011261032e576004356000818152600260205260409020546001600160a01b031615610a2157600052600d6020526020600460406000200154604051908152f35b3461032e57600036600319011261032e576013546040516001600160a01b039091168152602090f35b3461032e57602036600319011261032e57610de6610dcc610530565b6001600160a01b0316600090815260106020526040902090565b8054610df181614b67565b90600092835b828110610e0f57848452604051806104678682610693565b610e39610e29610e1f83856132cb565b90549060031b1c90565b600052600f602052604060002090565b5480151580610ebd575b610e57575b50610e52906145f0565b610df7565b6000805b878110610e91575b5090610e52929115610e77575b5090610e48565b610e8a610e83886145f0565b97876149e2565b5238610e70565b82610e9c82896149e2565b5114610eb057610eab906145f0565b610e5b565b5060019050610e52610e63565b506000818152600260205260409020546001600160a01b03161515610e43565b3461032e57604036600319011261032e576020610f03610efb610546565b600435614706565b6040519015158152f35b3461032e57610600610f1e36610a39565b9060405192610f2c846123e4565b60008452610f3b838383613084565b3361396a565b3461032e576000806003193601126104ef57600854610f5f81614b67565b9082805b828110610f7b57848452604051806104678682610693565b80610f88610fb2926132e8565b6000818152600260205260409020546001600160a01b0316151580610fca575b610fb757506145f0565b610f63565b610fc3610e83886145f0565b523861090b565b50808452600d60205260ff600260408620015416610fa8565b90604060031983011261032e5760043591602435906001600160401b03821161032e5761101291600401610a85565b9091565b3461032e5761102436610fe3565b6000838152600260205260409020546001600160a01b0316156110cb579161108961107161109e936104679561105a3386614706565b80156110b0575b61106a90614922565b3691612474565b6020815191012091600052600b602052604060002090565b60019160005201602052604060002054151590565b60405190151581529081906020820190565b506000858152600d602052604090206002015460ff16611061565b604051637399e49160e01b815260048101849052602490fd5b3461032e576110f236610fe3565b600083815260026020526040902054919290916001600160a01b0316156112665761111d3382614706565b801561123a575b61112d90614922565b61114181600052600b602052604060002090565b549261114c8461495d565b92600094855b8181106111d55750506111648561495d565b9360005b8681106111b7575050610467947f9b1c441ad9f47b62e532c79b3794fa85444c1a503346a65cd85501508cd2bc65916111a8604051928392339684614aec565b0390a36040519182918261076f565b806111c56111d092846149e2565b51610c5a82896149e2565b611168565b6111f36108f16108e1836108dc89600052600b602052604060002090565b611201610c1c368688612474565b611215575b50611210906145f0565b611152565b8761123391611228611210949a8a6149e2565b5261090b81896149e2565b9690611206565b5061112d61125f600261125784600052600d602052604060002090565b015460ff1690565b9050611124565b604051637399e49160e01b81526004810191909152602490fd5b3461032e57602036600319011261032e576020610d336004356132e8565b3461032e57602036600319011261032e576004356112c681600052600f602052604060002090565b8054801561145a576112d79061321a565b336001600160a01b03909116036114415760018181015490918291611304906001600160a01b0316610dcc565b6000835b6113e7575b50506113259150546000526011602052604060002090565b6000825b611379575b8361135261134682600052600f602052604060002090565b60016000918281550155565b7f8c5a6faf8dae8a30a56c22fbcb6e105d3d45c9abfbf62015d17366f59a2ffda4600080a2005b8154808210156113e15784611391610e1f84866132cb565b146113a657506113a0906145f0565b82611329565b6113d99350906113ce6113c7610e1f6113c16113d495613540565b866132cb565b91846132cb565b90613596565b6136cb565b38808061132e565b5061132e565b81548082101561143b57866113ff610e1f84866132cb565b14611414575061140e906145f0565b83611308565b611325945061143392916113ce6113c7610e1f6113c16113d495613540565b82913861130d565b5061130d565b6040516336e7a3d960e11b815260048101839052602490fd5b604051635e308a3760e01b815260048101849052602490fd5b3461032e5760408060031936011261032e576001600160401b0360043581811161032e576114a5903690600401610a85565b92909160243590811161032e576114c0903690600401610a85565b92909360085493600185018095116115dd5783516114dd816123e4565b6000815233156115c5576001600160a01b036114f9873361333c565b166115ad5795859261159c7f90bddb5884aa47cbefb24cf96e29bcd7daa1b02fe38a55ef02ff51197cb6d2d3936115356104679a873333613871565b61158f611540612420565b61154b36868b612474565b8152611558368488612474565b602082015260008a820152336060820152426080820152600060a082015261158a88600052600d602052604060002090565b613b37565b8751938493339885613cb0565b0390a3519081529081906020820190565b84516339e3563760e11b815260006004820152602490fd5b8451633250574960e11b815260006004820152602490fd5b61352a565b9181601f8401121561032e578235916001600160401b03831161032e576020808501948460051b01011161032e57565b8015150361032e57565b6084359061162982611612565b565b3461032e5760e036600319011261032e576001600160401b0360243581811161032e5761165d60049136908301610a85565b60449291923584811161032e576116779036908401610a85565b60649291923586811161032e5761169190369086016115e2565b9061169a61161c565b9260a43589811161032e576116b29036908901610a85565b96909560c4359a8b1161032e576116cf6106009b36908b01610a85565b9a909935614113565b3461032e57606036600319011261032e576004356024356116f881611612565b600082815260026020526040902054604435906001600160a01b0316156110cb576117228361321a565b336001600160a01b03909116036118145781836117ef926117867ff473ca6c6c330ce0e937d075ca2c506af1927f94387452786dab4a6b16e16e1995600261177485600052600d602052604060002090565b019060ff801983541691151516179055565b82156117f4576117da817f1933109b5c774b8c03e2bdff7661bc5e90c1ef6fbd7917a7ef2499030c2394f49260046117c886600052600d602052604060002090565b01556040519081529081906020820190565b0390a260405190151581529081906020820190565b0390a2005b50600461180d600092600052600d602052604060002090565b015561109e565b604051633907167960e21b815260048101849052602490fd5b3461032e5761183b36610fe3565b6000838152600260205260409020549192916001600160a01b03161561194757611868610bb73384614811565b61192e577f20c80d94f2726b1b4ec74bb63f2096894561f559edc7d7c0d18dff238744801290602061189b368387612474565b8181519101206119156119106118bb87600052600b602052604060002090565b926118de6118d9828660019160005201602052604060002054151590565b614a00565b6118ff816118f96108f182600052600c602052604060002090565b95614503565b50600052600c602052604060002090565b614a4c565b015190611929604051928392339784614ac6565b0390a3005b604051633907167960e21b815260048101839052602490fd5b604051637399e49160e01b815260048101839052602490fd5b3461032e57602036600319011261032e57602061197e60043561321a565b6040516001600160a01b039091168152f35b3461032e57602036600319011261032e576119a9610530565b6119b1612f41565b6001600160a01b031680156119f957601380546001600160a01b031916821790557fcb0aeffe884eb88fb2a31a2f3e4bd1d2763bdee48ba93b28c6e87501228cf743600080a2005b6040516356e7ec5f60e01b8152600490fd5b3461032e57602036600319011261032e576020610d33611a29610530565b612f6d565b3461032e576000806003193601126104ef57611a48612f41565b600a80546001600160a01b0319811690915581906001600160a01b03167f8be0079c531659141344cd1fd0a4f28419497f9722a3daafe3b4186f6b6457e08280a380f35b3461032e57602036600319011261032e576004356000818152600260205260409020546001600160a01b031615611266576004611ad382600052600d602052604060002090565b0154908115611c4e57611b1b611b16610bb7611b0f611afc856000526012602052604060002090565b3360009081526020919091526040902090565b5460ff1690565b614659565b611b8c602083611b2a8461321a565b601354611b4f90611b439081906001600160a01b031681565b6001600160a01b031690565b6040516323b872dd60e01b81523360048201526001600160a01b039092166024830152604482019290925292839190829060009082906064820190565b03925af18015611c4957611ba891600091611c1b575b506146ba565b611be7611bda33611bc3846000526012602052604060002090565b9060018060a01b0316600052602052604060002090565b805460ff19166001179055565b60405191825233917f51a3d83436ccc0e8b49cf68572cd56b2a546dd8c7b43381fbea5bbb1496835d1908060208101611929565b611c3c915060203d8111611c42575b611c3481836123ff565b8101906146a5565b38611ba2565b503d611c2a565b613835565b604051635cdc984d60e01b81526004810191909152602490fd5b3461032e57602036600319011261032e576004356000818152600260205260409020546001600160a01b031615610a2157611ca33382614706565b8015611cd5575b611cb390614922565b600052600b602052610467604060002054604051918291829190602083019252565b506000818152600d602052604090206002015460ff16611caa565b3461032e57608036600319011261032e57600435611d0c610546565b9060443591611d1a83611612565b606435611d2681611612565b6000838152600260205260409020546001600160a01b0316156110cb57611d4c8361321a565b6001600160a01b03903390821603611e9657917fed6133e45d92afaf23ed76b65a2d239187b039cc66dcf993242e99210f6b1d9e611e5794926104679694831694611d988615156145b2565b611e5c600e5480988196611db3611dae846145f0565b600e55565b610dcc611dbe61242d565b8a81526001600160a01b038316602082015286151560408201528715156060820152611df485600052600f602052604060002090565b81518155602082015160019190910180546001600160a01b0319166001600160a01b0392909216919091178155906040810151825460609092015161ffff60a01b1990921690151560a01b60ff60a01b161790151560a81b60ff60a81b16179055565b6135b4565b611e7484611e57876000526011602052604060002090565b6040805191151582529115156020820152a46040519081529081906020820190565b604051633907167960e21b815260048101859052602490fd5b3461032e57600036600319011261032e57600a546040516001600160a01b039091168152602090f35b3461032e57604036600319011261032e576001600160401b0360043581811161032e57611f099036906004016115e2565b909160243590811161032e57611f23903690600401610a85565b92906000805b8481106120d95750611f3a9061495d565b93600093845b818110611f7e578686611f528161495d565b9160005b828110611f6b5760405180610467868261076f565b80610cdf611f7992846149e2565b611f56565b611f89818387614b57565b356000818152600260205260409020546001600160a01b03161580156120a3575b61209957611fc281600052600b602052604060002090565b549060005b828110611fdf57505050611fda906145f0565b611f40565b611ffd6108f16108e1836108dc86600052600b602052604060002090565b61200b610c1c36898b612474565b61201f575b5061201a906145f0565b611fc7565b8a6000805b8c811061205f575b5015612039575b50612010565b996120579161204c8261201a959d6149e2565b5261090b818d6149e2565b98908a612033565b61206981846149e2565b515180516020809201209085519081519101201461208f5761208a906145f0565b612024565b505060013861202c565b50611fda906145f0565b506120b1610bb73383614706565b8015611faa57506120d4610bb7600261125784600052600d602052604060002090565b611faa565b6120e4818686614b57565b356000818152600260205260409020546001600160a01b031615158061213c575b612119575b50612114906145f0565b611f29565b6121149192610b6561213592600052600b602052604060002090565b919061210a565b506121473382614706565b806121055750612166600261125783600052600d602052604060002090565b612105565b3461032e576000806003193601126104ef576040519080600180549161219083612fa6565b808652928281169081156104c557506001146121b6576104678561045b818703826123ff565b92508083527fb10e2d527612073b26eecdfd717e6a320cf44b4afac2b0732d9fcbe2b7fa0cf65b8284106121f857505050810160200161045b8261046761044b565b805460208587018101919091529093019281016121dd565b3461032e57604036600319011261032e57612229610530565b60243561223581611612565b6001600160a01b0382169182156122b457816122736122849233600052600560205260406000209060018060a01b0316600052602052604060002090565b9060ff801983541691151516179055565b60405190151581527f17307eab39ab6107e8899845ad3d59bd9653f200f220920489ca2b5937696c3160203392a3005b604051630b61174360e31b815260048101849052602490fd5b3461032e57604036600319011261032e57600435600081815260026020526040902054602435906001600160a01b0316156119475761230b8261321a565b336001600160a01b0390911603612379576117ef7f1933109b5c774b8c03e2bdff7661bc5e90c1ef6fbd7917a7ef2499030c2394f49161236261235d600261125787600052600d602052604060002090565b6145ff565b8060046117c886600052600d602052604060002090565b60405163779163db60e11b815260048101839052602490fd5b634e487b7160e01b600052604160045260246000fd5b60c081019081106001600160401b038211176123c357604052565b612392565b61010081019081106001600160401b038211176123c357604052565b602081019081106001600160401b038211176123c357604052565b90601f801991011681019081106001600160401b038211176123c357604052565b60405190611629826123a8565b60405190608082018281106001600160401b038211176123c357604052565b60405190611629826123c8565b6001600160401b0381116123c357601f01601f191660200190565b92919261248082612459565b9161248e60405193846123ff565b82948184528183011161032e578281602093846000960137010152565b3461032e57608036600319011261032e576124c4610530565b6124cc610546565b90604435606435926001600160401b03841161032e573660238501121561032e57612504610600943690602481600401359101612474565b92610f3b838383613084565b6020815260c060a0612546612530855184602087015260e08601906103bb565b6020860151858203601f190160408701526103bb565b93604081015115156060850152600180831b036060820151166080850152608081015182850152015191015290565b3461032e57602036600319011261032e5760043560008060a060405161259a816123a8565b606081526060602082015282604082015282606082015282608082015201526125d882600052600260205260018060a01b0360406000205416151590565b6125f557604051637399e49160e01b815260048101839052602490fd5b6040816104679361260c9352600d602052206148c1565b60405191829182612510565b3461032e57604036600319011261032e576020610f03612636610546565b600435614811565b3461032e57602036600319011261032e5761265a60043561321a565b506000604051612669816123e4565b52610467604051612679816123e4565b600081526040519182916020835260208301906103bb565b90815180825260208080930193019160005b8281106126b1575050505090565b83511515855293810193928101926001016126a3565b92906126df909594929560808552608085019061065f565b6020908481038286015281808851928381520197019160005b828110612727575050505084612719918461040c9697036040860152612691565b916060818403910152612691565b83516001600160a01b0316895297810197928101926001016126f8565b3461032e57602036600319011261032e576004356000818152600260205260409020546001600160a01b03161561126657612789906000526011602052604060002090565b805490600090815b83811061288957506127a282614b67565b916127ac81614b67565b936127bf6127b983614b67565b92614b67565b92600090815b8381106127dd576040518061046788888c8c856126c7565b6127ed610e29610e1f83856132cb565b8054612803575b506127fe906145f0565b6127c5565b8361287d6001612882938b6128298799612823610e1f6127fe9a8c6132cb565b926149e2565b5201546128526001600160a01b038216612843858f6149e2565b6001600160a01b039091169052565b60ff9061286f828260a01c16612868868d6149e2565b9015159052565b60a81c16612868838b6149e2565b6145f0565b92906127f4565b612899610e29610e1f83856132cb565b546128ad575b6128a8906145f0565b612791565b916128ba6128a8916145f0565b92905061289f565b3461032e57604036600319011261032e576004356024356001600160401b03811161032e576128f59036906004016115e2565b6000838152600260205260409020549092906001600160a01b0316156112665761291f3382614706565b8015612a75575b61292f90614922565b61294381600052600b602052604060002090565b549161294e8361495d565b92600094855b8281106129e557505050506129688361495d565b9160005b8481106129d2575050610467927f9b1c441ad9f47b62e532c79b3794fa85444c1a503346a65cd85501508cd2bc65604051806111a8339482919060408352600d60408401526c6d756c7469706c652d7461677360981b6060840152602060808401930152565b80610cdf6129e092846149e2565b61296c565b612a036108f16108e1836108dc89600052600b602052604060002090565b600160005b848110612a3f575b50612a25575b50612a20906145f0565b612954565b87612a3891611228612a20949a8a6149e2565b9690612a16565b612a59610bb7612a5361106a84898c614be3565b85614b09565b612a6b57612a66906145f0565b612a08565b5050600038612a10565b5061292f612a92600261125784600052600d602052604060002090565b9050612926565b3461032e57606036600319011261032e57600460243581356044356001600160401b03811161032e57612acf9036908501610a85565b600083815260026020526040902054919490916001600160a01b031615612c8b576000848152600260205260409020546001600160a01b031615612c6f57612b1a610bb73385614811565b612c5157612b2b610bb73386614811565b612c3557507ff5a2de3bb50528fdfd306fb128b19d95e1ebfe38d74cca6fa80fb1a1b25345d390612b5d368287612474565b6020815191012090612bff612b7c85600052600b602052604060002090565b92612b9f612b9a828660019160005201602052604060002054151590565b614321565b612bb387600052600b602052604060002090565b612bd8612bd3610bb7848460019160005201602052604060002054151590565b61436d565b612bf982612bf36108f182600052600c602052604060002090565b96614503565b506142ca565b50612c30602083015192612c1660a0820151151590565b9060e060c082015191015191604051958695339b876144b1565b0390a4005b604051633907167960e21b815290810184815281906020010390fd5b604051633907167960e21b8152908101928352918291506020010390fd5b604051637399e49160e01b815290810184815281906020010390fd5b604051637399e49160e01b8152908101928352918291506020010390fd5b90602061040c928181520190610713565b3461032e5760208060031936011261032e576004356000818152600260205260409020546001600160a01b03161561126657612cf63382614706565b8015612e3e575b612d0690614922565b612d1a81600052600b602052604060002090565b5491612d2d612d2884613dca565b614b99565b9260009283905b828210612d72578585612d4681614b99565b9160005b828110612d5f57604051806104678682612ca9565b80610cdf612d6d92846149e2565b612d4a565b9391612d956108f16108e1846108dc899a989a600052600b602052604060002090565b6080019460005b86518051821015612e265781612db1916149e2565b516000898201815b888110612df2575b505015612dd8575b50612dd3906145f0565b612d9c565b85612deb91611228612dd394988a6149e2565b9490612dc9565b612dfc818b6149e2565b518c81519101208451832014612e1a57612e15906145f0565b612db9565b50505060013880612dc1565b505091612e38919395509593956145f0565b90612d34565b50612d06612e5b600261125784600052600d602052604060002090565b9050612cfd565b3461032e57604036600319011261032e57602060ff610977612e82610530565b612e8a610546565b6001600160a01b0391821660009081526005865260408082209290931681526020919091522090565b3461032e57602036600319011261032e57612ecc610530565b612ed4612f41565b6001600160a01b03908116908115612f2857600a54826bffffffffffffffffffffffff60a01b821617600a55167f8be0079c531659141344cd1fd0a4f28419497f9722a3daafe3b4186f6b6457e0600080a3005b604051631e4fbdf760e01b815260006004820152602490fd5b600a546001600160a01b03163303612f5557565b60405163118cdaa760e01b8152336004820152602490fd5b6001600160a01b03168015612f8d57600052600360205260406000205490565b6040516322718ad960e21b815260006004820152602490fd5b90600182811c92168015612fd6575b6020831014612fc057565b634e487b7160e01b600052602260045260246000fd5b91607f1691612fb5565b9060405191826000825492612ff484612fa6565b908184526001948581169081600014613061575060011461301e575b5050611629925003836123ff565b9093915060005260209081600020936000915b81831061304957505061162993508201013880613010565b85548884018501529485019487945091830191613031565b91505061162994506020925060ff191682840152151560051b8201013880613010565b6001600160a01b038281169290919083156131dd5760008581526002602052604090205485906001600160a01b031694336131cd575b848616958615801561319f575b6001600160a01b0385166000908152600360205260409020600181540190556130fe856105e1866000526002602052604060002090565b8383897fddf252ad1be2c89b69c2b068fc378daa952ba7f163c4a11628f55a4df523b3ef600080a41561317f5750613135826135ed565b850361316f575b5050169182820361314c57505050565b60649350604051926364283d7b60e01b8452600484015260248301526044820152fd5b6131789161354f565b388461313c565b8282880361318f575b5050613135565b61319891613645565b3882613188565b6131a8846131f6565b6001600160a01b038216600090815260036020526040902080546000190190556130c7565b6131d8823388613451565b6130ba565b604051633250574960e11b815260006004820152602490fd5b61320a906000526004602052604060002090565b80546001600160a01b0319169055565b6000818152600260205260409020546001600160a01b031690811561323d575090565b60249060405190637e27328960e01b82526004820152fd5b61325e81612f6d565b82101561328a5760018060a01b0316600052600660205260406000209060005260205260406000205490565b60405163295f44f760e21b81526001600160a01b039190911660048201526024810191909152604490fd5b634e487b7160e01b600052603260045260246000fd5b80548210156132e35760005260206000200190600090565b6132b5565b60085481101561331d5760086000527ff3f7a9fe364faab93b216da50a3214154f22a0a2b415b23a84c8169e8b636ee3015490565b6044906040519063295f44f760e21b8252600060048301526024820152fd5b6000828152600260205260409020546001600160a01b0316916001600160a01b038084168015918215613423575b84169182159081156133ff575b61338f866105e1876000526002602052604060002090565b8484847fddf252ad1be2c89b69c2b068fc378daa952ba7f163c4a11628f55a4df523b3ef600080a4156133e9576133c5846135ed565b156133d657505061040c91506136fa565b036133e057505090565b61040c9161354f565b8183146133c5576133fa8487613645565b6133c5565b6001600160a01b038616600090815260036020526040902060018154019055613377565b61342c846131f6565b6001600160a01b0386166000908152600360205260409020805460001901905561336a565b6001600160a01b039082821680151590816134bc575b50156134735750505050565b1661349157604051637e27328960e01b815260048101839052602490fd5b60405163177e802f60e01b81526001600160a01b039190911660048201526024810191909152604490fd5b828416808214925082156134f4575b5081156134da575b5038613467565b9050846000526004602052826040600020541614386134d3565b909150600052600560205260ff6135218560406000209060018060a01b0316600052602052604060002090565b541690386134cb565b634e487b7160e01b600052601160045260246000fd5b6000198101919082116115dd57565b9061355982612f6d565b6000198101929083116115dd576001600160a01b031660009081526006602090815260408083208584528252808320849055928252600790522055565b916135b09183549060031b91821b91600019901b19161790565b9055565b805490600160401b8210156123c357816135d69160016135b0940181556132cb565b819391549060031b91821b91600019901b19161790565b60085481600052600960205280604060002055600160401b8110156123c35760018101806008558110156132e35760086000527ff3f7a9fe364faab93b216da50a3214154f22a0a2b415b23a84c8169e8b636ee30155565b9061364f82612f6d565b9160009282845260209060078252604093848620549360018060a01b031686526006835284862093828103613693575b508552600782528484812055845252812055565b828752848452858720548188528087892055875260078452858720553861367f565b634e487b7160e01b600052603160045260246000fd5b80549081156136f557600019918201916136e583836132cb565b909182549160031b1b1916905555565b6136b5565b60088054600019928382018281116115dd5760009282845260096020528060408520549210156132e3578484527ff3f7a9fe364faab93b216da50a3214154f22a0a2b415b23a84c8169e8b636ee29283820154918310156132e35784926137966137a79388865280837ff3f7a9fe364faab93b216da50a3214154f22a0a2b415b23a84c8169e8b636ee301556000526009602052604060002090565b556000526009602052604060002090565b5582549384156136f557840193808510156132e357838352015555565b9081602091031261032e575161040c8161031c565b61040c939260809260018060a01b0316825260006020830152604082015281606082015201906103bb565b6001600160a01b03918216815291166020820152604081019190915260806060820181905261040c929101906103bb565b6040513d6000823e3d90fd5b3d1561386c573d9061385282612459565b9161386060405193846123ff565b82523d6000602084013e565b606090565b91929092833b613882575b50505050565b6138a6916020916040519384928392630a85bd0160e11b97888552600485016137d9565b038160006001600160a01b0388165af16000918161393a575b506138fe57826138cd613841565b80519190826138f757604051633250574960e11b81526001600160a01b0383166004820152602490fd5b9050602001fd5b6001600160e01b0319160361391757503880808061387c565b604051633250574960e11b81526001600160a01b03919091166004820152602490fd5b61395c91925060203d8111613963575b61395481836123ff565b8101906137c4565b90386138bf565b503d61394a565b92939193843b61397c575b5050505050565b60209161399f6040519485938493630a85bd0160e11b9889865260048601613804565b038160006001600160a01b0388165af1600091816139e0575b506139c657826138cd613841565b6001600160e01b0319160361391757503880808080613975565b6139f991925060203d81116139635761395481836123ff565b90386139b8565b919082018092116115dd57565b818110613a18575050565b60008155600101613a0d565b9190601f8111613a3357505050565b611629926000526020600020906020601f840160051c83019310613a5f575b601f0160051c0190613a0d565b9091508190613a52565b91909182516001600160401b0381116123c357613a9081613a8a8454612fa6565b84613a24565b602080601f8311600114613acc575081929394600092613ac1575b50508160011b916000199060031b1c1916179055565b015190503880613aab565b90601f19831695613ae285600052602060002090565b926000905b888210613b1f57505083600195969710613b06575b505050811b019055565b015160001960f88460031b161c19169055388080613afc565b80600185968294968601518155019501930190613ae7565b90805180516001600160401b0381116123c357613b5e81613b588654612fa6565b86613a24565b6020918290601f8311600114613c1957928260049593613ba49360a096600092613c0e575b50508160011b916000199060031b1c19161786555b82015160018601613a69565b613bfd60028501613bcd613bbb6040850151151590565b829060ff801983541691151516179055565b60608301516001600160a01b03168154610100600160a81b03191660089190911b610100600160a81b0316179055565b608081015160038501550151910155565b015190503880613b83565b90601f19831691613c2f87600052602060002090565b9260005b818110613c78575093613ba49360a096936001938360049a9810613c5f575b505050811b018655613b98565b015160001960f88460031b161c19169055388080613c52565b929386600181928786015181550195019301613c33565b908060209392818452848401376000828201840152601f01601f1916010190565b9290613cc99061040c9593604086526040860191613c8f565b926020818503910152613c8f565b91602061040c938181520191613c8f565b15613cef57565b60405162461bcd60e51b815260206004820152601d60248201527f46696c6520616c72656164792065786973747320696e20666f6c6465720000006044820152606490fd5b6001600160401b0381116123c35760051b60200190565b92919092613d5884613d34565b91613d6660405193846123ff565b829480845260208094019060051b83019282841161032e5780915b848310613d9057505050505050565b82356001600160401b03811161032e57820184601f8201121561032e578691613dbf8683858095359101612474565b815201920191613d81565b90600a820291808304600a14901517156115dd57565b613dea8154612fa6565b9081613df4575050565b81601f60009311600114613e06575055565b908083918252613e25601f60208420940160051c840160018501613a0d565b5555565b90600160401b81116123c357815491818155828210613e4757505050565b600052602060002091820191015b818110613e60575050565b80613e6c600192613de0565b01613e55565b90805190613e808284613e29565b600092835260208084209091849083015b848610613ea057505050505050565b805180516001600160401b0381116123c3578591613ec882613ec28854612fa6565b88613a24565b8290601f8311600114613f10579180600195928695948892613f05575b5050600019600383901b1c191690841b1786555b01930195019491613e91565b015190503880613ee5565b90601f19831691613f2688600052602060002090565b92875b818110613f695750916001969391858897969410613f50575b505050831b83018655613ef9565b015160001960f88460031b161c19169055388080613f42565b8284015185558a966001909501949384019301613f29565b600760e061162993613f94815185613a69565b613fa5602082015160018601613a69565b6040810151600285015560608101516003850180546001600160a01b0319166001600160a01b03909216919091179055613fe6608082015160048601613e72565b61400b613ff660a0830151151590565b600586019060ff801983541691151516179055565b61401c60c082015160068601613a69565b01519101613a69565b999795929b9a9896949390614046906140579360c08d5260c08d0191613c8f565b9060209c8d8c8403908d0152613c8f565b99888b0360408a0152818b52808b019a818360051b8201019b846000925b8584106140b757505050505050509161040c96979161409c6140a994606089019015159052565b8683036080880152613c8f565b9260a0818503910152613c8f565b9091929394959d8e601f1983830301855235601e198436030181121561032e57830186813591016001600160401b03821161032e57813603811361032e578792839261410292613c8f565b9f0196959460010193019190614075565b99949a959096919a989398979297614143610bb78c600052600260205260018060a01b0360406000205416151590565b6142b157614154610bb7338d614811565b614298578b1561427d57614169368d8a612474565b80519060200120806141858d600052600b602052604060002090565b6000918252600101602052604090205461419f9015613ce8565b6141a761244c565b6141b2368f8c612474565b81526141bf368d8d612474565b60208201524260408201523360608201526141db368585613d4b565b608082015284151560a08201526141f3368888612474565b60c0820152614203368a8a612474565b60e082015261421c82600052600c602052604060002090565b9061422691613f81565b61423a8c600052600b602052604060002090565b90614244916142ca565b50604051998a99339d6142579a8c614025565b037f115437a80f41d58d89a2dd7cf51172c46e28cb919affa34036f3637be484623991a3565b60405162caca1560e41b81528061061a8e8b60048401613cd7565b604051633907167960e21b8152600481018c9052602490fd5b604051637399e49160e01b8152600481018c9052602490fd5b600082815260018201602052604090205461431a57805490600160401b8210156123c357826143036135d68460018096018555846132cb565b905580549260005201602052604060002055600190565b5050600090565b1561432857565b60405162461bcd60e51b815260206004820152601f60248201527f46696c65206e6f7420666f756e6420696e20736f7572636520666f6c646572006044820152606490fd5b1561437457565b60405162461bcd60e51b815260206004820152602960248201527f46696c6520616c72656164792065786973747320696e2064657374696e61746960448201526837b7103337b63232b960b91b6064820152608490fd5b9081546143d781613d34565b926143e560405194856123ff565b818452600090815260208082208186015b848410614404575050505050565b600183819261441285612fe0565b8152019201930192906143f6565b906144aa600761442e61244c565b9361443881612fe0565b855261444660018201612fe0565b60208601526002810154604086015260038101546001600160a01b03166060860152614474600482016143cb565b608086015261449361448a600583015460ff1690565b151560a0870152565b61449f60068201612fe0565b60c086015201612fe0565b60e0830152565b94906144f5936144d26144e09261040c99979560a08a5260a08a0191613c8f565b9087820360208901526103bb565b911515604086015284820360608601526103bb565b9160808184039101526103bb565b60018101918060005282602052604060002054928315156000146145a95760001992848401908582116115dd5780549485019485116115dd57600095858361456697614557950361456c575b5050506136cb565b90600052602052604060002090565b55600190565b6145906113ce916145806145a094876132cb565b90549060031b1c928391876132cb565b8590600052602052604060002090565b5538808061454f565b50505050600090565b156145b957565b60405162461bcd60e51b815260206004820152600f60248201526e496e76616c6964206772616e74656560881b6044820152606490fd5b60001981146115dd5760010190565b1561460657565b60405162461bcd60e51b815260206004820152602560248201527f43616e206f6e6c792073657420707269636520666f72207075626c696320666f6044820152646c6465727360d81b6064820152608490fd5b1561466057565b60405162461bcd60e51b815260206004820152601760248201527f416c7265616479206861732070616964206163636573730000000000000000006044820152606490fd5b9081602091031261032e575161040c81611612565b156146c157565b60405162461bcd60e51b815260206004820152601760248201527f5061796d656e74207472616e73666572206661696c65640000000000000000006044820152606490fd5b6000818152600260205260409020546001600160a01b0316156112665761472c8161321a565b6001600160a01b038381169116146147c0576001600160a01b03821660009081526010602052604081208054915b8281106147c75750505061477d600261125783600052600d602052604060002090565b614788575050600090565b600461479e82600052600d602052604060002090565b0154156147c05761040c91611bc3611b0f926000526012602052604060002090565b5050600190565b6147d7610e29610e1f83856132cb565b8481541490816147ff575b506147f5576147f0906145f0565b61475a565b5050505050600190565b6001015460a01c60ff169050386147e2565b6000818152600260205260409020549091906001600160a01b0316156119475761483a8261321a565b6001600160a01b038281169116146147c0576001600160a01b03166000908152601060205260408120805492915b8381106148785750505050600090565b614888610e29610e1f83856132cb565b8381541490816148af575b506148a6576148a1906145f0565b614868565b50505050600190565b6001015460a81c60ff16905038614893565b906040516148ce816123a8565b60a0600482946148dd81612fe0565b84526148eb60018201612fe0565b6020850152600281015460ff81161515604086015260081c6000196001851b01166060850152600381015460808501520154910152565b1561492957565b60405162461bcd60e51b815260206004820152600c60248201526b155b985d5d1a1bdc9a5e995960a21b6044820152606490fd5b9061496782613d34565b604090614976825191826123ff565b8381528093614987601f1991613d34565b0191600091825b84811061499c575050505050565b60209083516149aa816123c8565b606080825283908082840152878784015287818401528060808401528760a08401528060c084015260e083015282850101520161498e565b80518210156132e35760209160051b010190565b90610e1f916132cb565b15614a0757565b60405162461bcd60e51b815260206004820152601860248201527f46696c65206e6f7420666f756e6420696e20666f6c64657200000000000000006044820152606490fd5b614a5581613de0565b6001614a62818301613de0565b6000908160028401558160038401556004830180549083815581614aa2575b505050816007916005611629940155614a9c60068201613de0565b01613de0565b835260208320908101905b81811015614a815780614ac08492613de0565b01614aad565b9161040c9391614ade91604085526040850191613c8f565b9160208184039101526103bb565b939291602091614b0491604087526040870191613c8f565b930152565b9080516020809201209060005b60808401518051821015614b4d57614b2f8285926149e2565b51838151910120146148a657614b466080916145f0565b9050614b16565b5050505050600090565b91908110156132e35760051b0190565b90614b7182613d34565b614b7e60405191826123ff565b8281528092614b8f601f1991613d34565b0190602036910137565b90614ba382613d34565b614bb060405191826123ff565b8281528092614bc1601f1991613d34565b019060005b828110614bd257505050565b806060602080938501015201614bc6565b91908110156132e35760051b81013590601e198136030182121561032e5701908135916001600160401b03831161032e57602001823603811361032e57919056fea2646970667358221220e4c340bb4472530dc4a99af8430a1e22f1e22a6a823b7d639400a4763731c37f64736f6c63430008140033",
  "linkReferences": {},
  "deployedLinkReferences": {}
}