{
  "_format": "hh-sol-artifact-1",
  "contractName": "FolderNFT",
  "sourceName": "contracts/FILDOS.sol",
  "abi": [
    {
      "inputs": [],
      "stateMutability": "nonpayable",
      "type": "constructor"
    },
    {
      "inputs": [],
      "name": "ERC721EnumerableForbiddenBatchMint",
      "type": "error"
    },
    {
      "inputs": [
        {
          "internalType": "address",
          "name": "sender",
          "type": "address"
        },
        {
          "internalType": "uint256",
          "name": "tokenId",
          "type": "uint256"
        },
        {
          "internalType": "address",
          "name": "owner",
          "type": "address"
        }
      ],
      "name": "ERC721IncorrectOwner",
      "type": "error"
    },
    {
      "inputs": [
        {
          "internalType": "address",
          "name": "operator",
          "type": "address"
        },
        {
          "internalType": "uint256",
          "name": "tokenId",
          "type": "uint256"
        }
      ],
      "name": "ERC721InsufficientApproval",
      "type": "error"
    },
    {
      "inputs": [
        {
          "internalType": "address",
          "name": "approver",
          "type": "address"
        }
      ],
      "name": "ERC721InvalidApprover",
      "type": "error"
    },
    {
      "inputs": [
        {
          "internalType": "address",
          "name": "operator",
          "type": "address"
        }
      ],
      "name": "ERC721InvalidOperator",
      "type": "error"
    },
    {
      "inputs": [
        {
          "internalType": "address",
          "name": "owner",
          "type": "address"
        }
      ],
      "name": "ERC721InvalidOwner",
      "type": "error"
    },
    {
      "inputs": [
        {
          "internalType": "address",
          "name": "receiver",
          "type": "address"
        }
      ],
      "name": "ERC721InvalidReceiver",
      "type": "error"
    },
    {
      "inputs": [
        {
          "internalType": "address",
          "name": "sender",
          "type": "address"
        }
      ],
      "name": "ERC721InvalidSender",
      "type": "error"
    },
    {
      "inputs": [
        {
          "internalType": "uint256",
          "name": "tokenId",
          "type": "uint256"
        }
      ],
      "name": "ERC721NonexistentToken",
      "type": "error"
    },
    {
      "inputs": [
        {
          "internalType": "address",
          "name": "owner",
          "type": "address"
        },
        {
          "internalType": "uint256",
          "name": "index",
          "type": "uint256"
        }
      ],
      "name": "ERC721OutOfBoundsIndex",
      "type": "error"
    },
    {
      "inputs": [
        {
          "internalType": "uint256",
          "name": "tokenId",
          "type": "uint256"
        }
      ],
      "name": "FolderDoesNotExist",
      "type": "error"
    },
    {
      "inputs": [
        {
          "internalType": "string",
          "name": "cid",
          "type": "string"
        }
      ],
      "name": "InvalidCID",
      "type": "error"
    },
    {
      "inputs": [
        {
          "internalType": "uint256",
          "name": "tokenId",
          "type": "uint256"
        }
      ],
      "name": "NotFolderAccess",
      "type": "error"
    },
    {
      "inputs": [
        {
          "internalType": "uint256",
          "name": "tokenId",
          "type": "uint256"
        }
      ],
      "name": "NotFolderOwner",
      "type": "error"
    },
    {
      "inputs": [
        {
          "internalType": "uint256",
          "name": "shareId",
          "type": "uint256"
        }
      ],
      "name": "NotShareOwner",
      "type": "error"
    },
    {
      "inputs": [
        {
          "internalType": "address",
          "name": "owner",
          "type": "address"
        }
      ],
      "name": "OwnableInvalidOwner",
      "type": "error"
    },
    {
      "inputs": [
        {
          "internalType": "address",
          "name": "account",
          "type": "address"
        }
      ],
      "name": "OwnableUnauthorizedAccount",
      "type": "error"
    },
    {
      "inputs": [
        {
          "internalType": "uint256",
          "name": "shareId",
          "type": "uint256"
        }
      ],
      "name": "ShareNotFound",
      "type": "error"
    },
    {
      "anonymous": false,
      "inputs": [
        {
          "indexed": true,
          "internalType": "address",
          "name": "owner",
          "type": "address"
        },
        {
          "indexed": true,
          "internalType": "address",
          "name": "approved",
          "type": "address"
        },
        {
          "indexed": true,
          "internalType": "uint256",
          "name": "tokenId",
          "type": "uint256"
        }
      ],
      "name": "Approval",
      "type": "event"
    },
    {
      "anonymous": false,
      "inputs": [
        {
          "indexed": true,
          "internalType": "address",
          "name": "owner",
          "type": "address"
        },
        {
          "indexed": true,
          "internalType": "address",
          "name": "operator",
          "type": "address"
        },
        {
          "indexed": false,
          "internalType": "bool",
          "name": "approved",
          "type": "bool"
        }
      ],
      "name": "ApprovalForAll",
      "type": "event"
    },
    {
      "anonymous": false,
      "inputs": [
        {
          "indexed": true,
          "internalType": "uint256",
          "name": "tokenId",
          "type": "uint256"
        },
        {
          "indexed": false,
          "internalType": "string",
          "name": "cid",
          "type": "string"
        },
        {
          "indexed": false,
          "internalType": "string",
          "name": "filename",
          "type": "string"
        },
        {
          "indexed": true,
          "internalType": "address",
          "name": "owner",
          "type": "address"
        },
        {
          "indexed": false,
          "internalType": "string[]",
          "name": "tags",
          "type": "string[]"
        }
      ],
      "name": "FileAdded",
      "type": "event"
    },
    {
      "anonymous": false,
      "inputs": [
        {
          "indexed": true,
          "internalType": "uint256",
          "name": "fromTokenId",
          "type": "uint256"
        },
        {
          "indexed": true,
          "internalType": "uint256",
          "name": "toTokenId",
          "type": "uint256"
        },
        {
          "indexed": false,
          "internalType": "string",
          "name": "cid",
          "type": "string"
        },
        {
          "indexed": false,
          "internalType": "string",
          "name": "filename",
          "type": "string"
        },
        {
          "indexed": true,
          "internalType": "address",
          "name": "mover",
          "type": "address"
        }
      ],
      "name": "FileMoved",
      "type": "event"
    },
    {
      "anonymous": false,
      "inputs": [
        {
          "indexed": true,
          "internalType": "uint256",
          "name": "tokenId",
          "type": "uint256"
        },
        {
          "indexed": true,
          "internalType": "address",
          "name": "owner",
          "type": "address"
        },
        {
          "indexed": false,
          "internalType": "string",
          "name": "name",
          "type": "string"
        },
        {
          "indexed": false,
          "internalType": "string",
          "name": "folderType",
          "type": "string"
        }
      ],
      "name": "FolderMinted",
      "type": "event"
    },
    {
      "anonymous": false,
      "inputs": [
        {
          "indexed": true,
          "internalType": "uint256",
          "name": "tokenId",
          "type": "uint256"
        },
        {
          "indexed": false,
          "internalType": "bool",
          "name": "isPublic",
          "type": "bool"
        }
      ],
      "name": "FolderPublicityChanged",
      "type": "event"
    },
    {
      "anonymous": false,
      "inputs": [
        {
          "indexed": true,
          "internalType": "uint256",
          "name": "tokenId",
          "type": "uint256"
        },
        {
          "indexed": false,
          "internalType": "string",
          "name": "newType",
          "type": "string"
        }
      ],
      "name": "FolderTypeChanged",
      "type": "event"
    },
    {
      "anonymous": false,
      "inputs": [
        {
          "indexed": true,
          "internalType": "address",
          "name": "previousOwner",
          "type": "address"
        },
        {
          "indexed": true,
          "internalType": "address",
          "name": "newOwner",
          "type": "address"
        }
      ],
      "name": "OwnershipTransferred",
      "type": "event"
    },
    {
      "anonymous": false,
      "inputs": [
        {
          "indexed": true,
          "internalType": "uint256",
          "name": "shareId",
          "type": "uint256"
        },
        {
          "indexed": true,
          "internalType": "uint256",
          "name": "folderId",
          "type": "uint256"
        },
        {
          "indexed": true,
          "internalType": "address",
          "name": "grantee",
          "type": "address"
        },
        {
          "indexed": false,
          "internalType": "bool",
          "name": "canRead",
          "type": "bool"
        },
        {
          "indexed": false,
          "internalType": "bool",
          "name": "canWrite",
          "type": "bool"
        }
      ],
      "name": "ShareCreated",
      "type": "event"
    },
    {
      "anonymous": false,
      "inputs": [
        {
          "indexed": true,
          "internalType": "uint256",
          "name": "shareId",
          "type": "uint256"
        }
      ],
      "name": "ShareRevoked",
      "type": "event"
    },
    {
      "anonymous": false,
      "inputs": [
        {
          "indexed": true,
          "internalType": "address",
          "name": "from",
          "type": "address"
        },
        {
          "indexed": true,
          "internalType": "address",
          "name": "to",
          "type": "address"
        },
        {
          "indexed": true,
          "internalType": "uint256",
          "name": "tokenId",
          "type": "uint256"
        }
      ],
      "name": "Transfer",
      "type": "event"
    },
    {
      "inputs": [
        {
          "internalType": "uint256",
          "name": "tokenId",
          "type": "uint256"
        },
        {
          "internalType": "string",
          "name": "cid",
          "type": "string"
        },
        {
          "internalType": "string",
          "name": "filename",
          "type": "string"
        },
        {
          "internalType": "string[]",
          "name": "tags",
          "type": "string[]"
        }
      ],
      "name": "addFile",
      "outputs": [],
      "stateMutability": "nonpayable",
      "type": "function"
    },
    {
      "inputs": [
        {
          "internalType": "address",
          "name": "to",
          "type": "address"
        },
        {
          "internalType": "uint256",
          "name": "tokenId",
          "type": "uint256"
        }
      ],
      "name": "approve",
      "outputs": [],
      "stateMutability": "nonpayable",
      "type": "function"
    },
    {
      "inputs": [
        {
          "internalType": "address",
          "name": "owner",
          "type": "address"
        }
      ],
      "name": "balanceOf",
      "outputs": [
        {
          "internalType": "uint256",
          "name": "",
          "type": "uint256"
        }
      ],
      "stateMutability": "view",
      "type": "function"
    },
    {
      "inputs": [
        {
          "internalType": "uint256",
          "name": "tokenId",
          "type": "uint256"
        },
        {
          "internalType": "address",
          "name": "user",
          "type": "address"
        }
      ],
      "name": "canRead",
      "outputs": [
        {
          "internalType": "bool",
          "name": "",
          "type": "bool"
        }
      ],
      "stateMutability": "view",
      "type": "function"
    },
    {
      "inputs": [
        {
          "internalType": "uint256",
          "name": "tokenId",
          "type": "uint256"
        },
        {
          "internalType": "address",
          "name": "user",
          "type": "address"
        }
      ],
      "name": "canWrite",
      "outputs": [
        {
          "internalType": "bool",
          "name": "",
          "type": "bool"
        }
      ],
      "stateMutability": "view",
      "type": "function"
    },
    {
      "inputs": [
        {
          "internalType": "uint256",
          "name": "tokenId",
          "type": "uint256"
        }
      ],
      "name": "getApproved",
      "outputs": [
        {
          "internalType": "address",
          "name": "",
          "type": "address"
        }
      ],
      "stateMutability": "view",
      "type": "function"
    },
    {
      "inputs": [
        {
          "internalType": "uint256",
          "name": "tokenId",
          "type": "uint256"
        }
      ],
      "name": "getFiles",
      "outputs": [
        {
          "components": [
            {
              "internalType": "string",
              "name": "cid",
              "type": "string"
            },
            {
              "internalType": "string",
              "name": "filename",
              "type": "string"
            },
            {
              "internalType": "uint256",
              "name": "timestamp",
              "type": "uint256"
            },
            {
              "internalType": "address",
              "name": "owner",
              "type": "address"
            },
            {
              "internalType": "string[]",
              "name": "tags",
              "type": "string[]"
            }
          ],
          "internalType": "struct FolderNFT.FileEntry[]",
          "name": "",
          "type": "tuple[]"
        }
      ],
      "stateMutability": "view",
      "type": "function"
    },
    {
      "inputs": [
        {
          "internalType": "uint256",
          "name": "tokenId",
          "type": "uint256"
        },
        {
          "internalType": "address",
          "name": "user",
          "type": "address"
        }
      ],
      "name": "getFolderAccess",
      "outputs": [
        {
          "internalType": "bool",
          "name": "canRead_",
          "type": "bool"
        },
        {
          "internalType": "bool",
          "name": "canWrite_",
          "type": "bool"
        },
        {
          "internalType": "bool",
          "name": "isOwner",
          "type": "bool"
        }
      ],
      "stateMutability": "view",
      "type": "function"
    },
    {
      "inputs": [
        {
          "internalType": "uint256",
          "name": "tokenId",
          "type": "uint256"
        }
      ],
      "name": "getFolderData",
      "outputs": [
        {
          "components": [
            {
              "internalType": "string",
              "name": "name",
              "type": "string"
            },
            {
              "internalType": "string",
              "name": "folderType",
              "type": "string"
            },
            {
              "internalType": "bool",
              "name": "isPublic",
              "type": "bool"
            },
            {
              "internalType": "address",
              "name": "owner",
              "type": "address"
            },
            {
              "internalType": "uint256",
              "name": "createdAt",
              "type": "uint256"
            }
          ],
          "internalType": "struct FolderNFT.FolderInfo",
          "name": "data_",
          "type": "tuple"
        }
      ],
      "stateMutability": "view",
      "type": "function"
    },
    {
      "inputs": [
        {
          "internalType": "address",
          "name": "owner",
          "type": "address"
        }
      ],
      "name": "getFoldersOwnedBy",
      "outputs": [
        {
          "internalType": "uint256[]",
          "name": "",
          "type": "uint256[]"
        }
      ],
      "stateMutability": "view",
      "type": "function"
    },
    {
      "inputs": [
        {
          "internalType": "address",
          "name": "user",
          "type": "address"
        }
      ],
      "name": "getFoldersSharedTo",
      "outputs": [
        {
          "internalType": "uint256[]",
          "name": "",
          "type": "uint256[]"
        }
      ],
      "stateMutability": "view",
      "type": "function"
    },
    {
      "inputs": [],
      "name": "getPublicFolders",
      "outputs": [
        {
          "internalType": "uint256[]",
          "name": "",
          "type": "uint256[]"
        }
      ],
      "stateMutability": "view",
      "type": "function"
    },
    {
      "inputs": [
        {
          "internalType": "address",
          "name": "owner",
          "type": "address"
        },
        {
          "internalType": "address",
          "name": "operator",
          "type": "address"
        }
      ],
      "name": "isApprovedForAll",
      "outputs": [
        {
          "internalType": "bool",
          "name": "",
          "type": "bool"
        }
      ],
      "stateMutability": "view",
      "type": "function"
    },
    {
      "inputs": [
        {
          "internalType": "string",
          "name": "name",
          "type": "string"
        },
        {
          "internalType": "string",
          "name": "folderType",
          "type": "string"
        }
      ],
      "name": "mintFolder",
      "outputs": [
        {
          "internalType": "uint256",
          "name": "",
          "type": "uint256"
        }
      ],
      "stateMutability": "nonpayable",
      "type": "function"
    },
    {
      "inputs": [
        {
          "internalType": "uint256",
          "name": "fromTokenId",
          "type": "uint256"
        },
        {
          "internalType": "uint256",
          "name": "toTokenId",
          "type": "uint256"
        },
        {
          "internalType": "string",
          "name": "cid",
          "type": "string"
        }
      ],
      "name": "moveFile",
      "outputs": [],
      "stateMutability": "nonpayable",
      "type": "function"
    },
    {
      "inputs": [],
      "name": "name",
      "outputs": [
        {
          "internalType": "string",
          "name": "",
          "type": "string"
        }
      ],
      "stateMutability": "view",
      "type": "function"
    },
    {
      "inputs": [],
      "name": "owner",
      "outputs": [
        {
          "internalType": "address",
          "name": "",
          "type": "address"
        }
      ],
      "stateMutability": "view",
      "type": "function"
    },
    {
      "inputs": [
        {
          "internalType": "uint256",
          "name": "tokenId",
          "type": "uint256"
        }
      ],
      "name": "ownerOf",
      "outputs": [
        {
          "internalType": "address",
          "name": "",
          "type": "address"
        }
      ],
      "stateMutability": "view",
      "type": "function"
    },
    {
      "inputs": [],
      "name": "renounceOwnership",
      "outputs": [],
      "stateMutability": "nonpayable",
      "type": "function"
    },
    {
      "inputs": [
        {
          "internalType": "uint256",
          "name": "shareId",
          "type": "uint256"
        }
      ],
      "name": "revokeShare",
      "outputs": [],
      "stateMutability": "nonpayable",
      "type": "function"
    },
    {
      "inputs": [
        {
          "internalType": "address",
          "name": "from",
          "type": "address"
        },
        {
          "internalType": "address",
          "name": "to",
          "type": "address"
        },
        {
          "internalType": "uint256",
          "name": "tokenId",
          "type": "uint256"
        }
      ],
      "name": "safeTransferFrom",
      "outputs": [],
      "stateMutability": "nonpayable",
      "type": "function"
    },
    {
      "inputs": [
        {
          "internalType": "address",
          "name": "from",
          "type": "address"
        },
        {
          "internalType": "address",
          "name": "to",
          "type": "address"
        },
        {
          "internalType": "uint256",
          "name": "tokenId",
          "type": "uint256"
        },
        {
          "internalType": "bytes",
          "name": "data",
          "type": "bytes"
        }
      ],
      "name": "safeTransferFrom",
      "outputs": [],
      "stateMutability": "nonpayable",
      "type": "function"
    },
    {
      "inputs": [
        {
          "internalType": "address",
          "name": "operator",
          "type": "address"
        },
        {
          "internalType": "bool",
          "name": "approved",
          "type": "bool"
        }
      ],
      "name": "setApprovalForAll",
      "outputs": [],
      "stateMutability": "nonpayable",
      "type": "function"
    },
    {
      "inputs": [
        {
          "internalType": "uint256",
          "name": "tokenId",
          "type": "uint256"
        },
        {
          "internalType": "bool",
          "name": "isPublic",
          "type": "bool"
        }
      ],
      "name": "setFolderPublic",
      "outputs": [],
      "stateMutability": "nonpayable",
      "type": "function"
    },
    {
      "inputs": [
        {
          "internalType": "uint256",
          "name": "tokenId",
          "type": "uint256"
        },
        {
          "internalType": "address",
          "name": "grantee",
          "type": "address"
        },
        {
          "internalType": "bool",
          "name": "canRead_",
          "type": "bool"
        },
        {
          "internalType": "bool",
          "name": "canWrite_",
          "type": "bool"
        }
      ],
      "name": "shareFolder",
      "outputs": [
        {
          "internalType": "uint256",
          "name": "",
          "type": "uint256"
        }
      ],
      "stateMutability": "nonpayable",
      "type": "function"
    },
    {
      "inputs": [
        {
          "internalType": "bytes4",
          "name": "interfaceId",
          "type": "bytes4"
        }
      ],
      "name": "supportsInterface",
      "outputs": [
        {
          "internalType": "bool",
          "name": "",
          "type": "bool"
        }
      ],
      "stateMutability": "view",
      "type": "function"
    },
    {
      "inputs": [],
      "name": "symbol",
      "outputs": [
        {
          "internalType": "string",
          "name": "",
          "type": "string"
        }
      ],
      "stateMutability": "view",
      "type": "function"
    },
    {
      "inputs": [
        {
          "internalType": "uint256",
          "name": "index",
          "type": "uint256"
        }
      ],
      "name": "tokenByIndex",
      "outputs": [
        {
          "internalType": "uint256",
          "name": "",
          "type": "uint256"
        }
      ],
      "stateMutability": "view",
      "type": "function"
    },
    {
      "inputs": [
        {
          "internalType": "address",
          "name": "owner",
          "type": "address"
        },
        {
          "internalType": "uint256",
          "name": "index",
          "type": "uint256"
        }
      ],
      "name": "tokenOfOwnerByIndex",
      "outputs": [
        {
          "internalType": "uint256",
          "name": "",
          "type": "uint256"
        }
      ],
      "stateMutability": "view",
      "type": "function"
    },
    {
      "inputs": [
        {
          "internalType": "uint256",
          "name": "tokenId",
          "type": "uint256"
        }
      ],
      "name": "tokenURI",
      "outputs": [
        {
          "internalType": "string",
          "name": "",
          "type": "string"
        }
      ],
      "stateMutability": "view",
      "type": "function"
    },
    {
      "inputs": [],
      "name": "totalSupply",
      "outputs": [
        {
          "internalType": "uint256",
          "name": "",
          "type": "uint256"
        }
      ],
      "stateMutability": "view",
      "type": "function"
    },
    {
      "inputs": [
        {
          "internalType": "address",
          "name": "from",
          "type": "address"
        },
        {
          "internalType": "address",
          "name": "to",
          "type": "address"
        },
        {
          "internalType": "uint256",
          "name": "tokenId",
          "type": "uint256"
        }
      ],
      "name": "transferFrom",
      "outputs": [],
      "stateMutability": "nonpayable",
      "type": "function"
    },
    {
      "inputs": [
        {
          "internalType": "address",
          "name": "newOwner",
          "type": "address"
        }
      ],
      "name": "transferOwnership",
      "outputs": [],
      "stateMutability": "nonpayable",
      "type": "function"
    }
  ],
  "bytecode": "0x60806040526001600d553480156200001657600080fd5b503360405180604001604052806009815260200168119bdb19195c93919560ba1b8152506040518060400160405280600381526020016223222960e91b8152508160009081620000679190620001b1565b506001620000768282620001b1565b5050506001600160a01b038116620000a857604051631e4fbdf760e01b81526000600482015260240160405180910390fd5b620000b381620000ba565b506200027d565b600a80546001600160a01b038381166001600160a01b0319831681179093556040519116919082907f8be0079c531659141344cd1fd0a4f28419497f9722a3daafe3b4186f6b6457e090600090a35050565b634e487b7160e01b600052604160045260246000fd5b600181811c908216806200013757607f821691505b6020821081036200015857634e487b7160e01b600052602260045260246000fd5b50919050565b601f821115620001ac57600081815260208120601f850160051c81016020861015620001875750805b601f850160051c820191505b81811015620001a85782815560010162000193565b5050505b505050565b81516001600160401b03811115620001cd57620001cd6200010c565b620001e581620001de845462000122565b846200015e565b602080601f8311600181146200021d5760008415620002045750858301515b600019600386901b1c1916600185901b178555620001a8565b600085815260208120601f198616915b828110156200024e578886015182559484019460019091019084016200022d565b50858210156200026d5787850151600019600388901b60f8161c191681555b5050505050600190811b01905550565b61380b806200028d6000396000f3fe608060405234801561001057600080fd5b50600436106101fb5760003560e01c8063500387371161011a578063a22cb465116100ad578063c87b56dd1161007c578063c87b56dd14610467578063d6dae3641461047a578063db47cc631461048d578063e985e9c5146104a0578063f2fde38b146104b357600080fd5b8063a22cb4651461040e578063b88d4fde14610421578063c4e7ee4d14610434578063c777ada21461045457600080fd5b8063715018a6116100e9578063715018a6146103da5780637cf1f53e146103e25780638da5cb5b146103f557806395d89b411461040657600080fd5b8063500387371461038e57806350f5eda1146103a15780636352211e146103b457806370a08231146103c757600080fd5b806323b872dd116101925780633cd1f0f7116101615780633cd1f0f71461034d57806342842e0e14610360578063446db1e0146103735780634f6ccce71461037b57600080fd5b806323b872dd14610301578063299ef2f7146103145780632f745c5914610327578063333c64381461033a57600080fd5b80630c0564d6116101ce5780630c0564d61461027d57806312506f4d1461029d57806318160ddd146102bd5780631c321ea3146102cf57600080fd5b806301ffc9a71461020057806306fdde0314610228578063081812fc1461023d578063095ea7b314610268575b600080fd5b61021361020e366004612b7c565b6104c6565b60405190151581526020015b60405180910390f35b6102306104f1565b60405161021f9190612be9565b61025061024b366004612bfc565b610583565b6040516001600160a01b03909116815260200161021f565b61027b610276366004612c2c565b6105ac565b005b61029061028b366004612c56565b6105bb565b60405161021f9190612c71565b6102b06102ab366004612bfc565b61065c565b60405161021f9190612cb5565b6008545b60405190815260200161021f565b6102e26102dd366004612db4565b610960565b604080519315158452911515602084015215159082015260600161021f565b61027b61030f366004612de0565b6109cc565b61027b610322366004612e64565b610a57565b6102c1610335366004612c2c565b610c5c565b610290610348366004612c56565b610cc1565b61021361035b366004612db4565b610e0a565b61027b61036e366004612de0565b610f21565b610290610f41565b6102c1610389366004612bfc565b610ffe565b61027b61039c366004612bfc565b611057565b6102c16103af366004612f37565b6111e2565b6102506103c2366004612bfc565b611371565b6102c16103d5366004612c56565b61137c565b61027b6113c4565b6102c16103f0366004612fb2565b6113d8565b600a546001600160a01b0316610250565b61023061157d565b61027b61041c366004612fff565b61158c565b61027b61042f3660046130c6565b611597565b610447610442366004612bfc565b6115af565b60405161021f9190613141565b610213610462366004612db4565b611787565b610230610475366004612bfc565b611871565b61027b6104883660046131af565b6118e6565b61027b61049b3660046131f5565b611f07565b6102136104ae366004613218565b611fbe565b61027b6104c1366004612c56565b611fec565b60006001600160e01b0319821663780e9d6360e01b14806104eb57506104eb8261202a565b92915050565b60606000805461050090613242565b80601f016020809104026020016040519081016040528092919081815260200182805461052c90613242565b80156105795780601f1061054e57610100808354040283529160200191610579565b820191906000526020600020905b81548152906001019060200180831161055c57829003601f168201915b5050505050905090565b600061058e8261207a565b506000828152600460205260409020546001600160a01b03166104eb565b6105b78282336120b3565b5050565b606060006105c88361137c565b90506000816001600160401b038111156105e4576105e4613029565b60405190808252806020026020018201604052801561060d578160200160208202803683370190505b50905060005b82811015610654576106258582610c5c565b8282815181106106375761063761327c565b60209081029190910101528061064c816132a8565b915050610613565b509392505050565b60606106688233610e0a565b8061068457506000828152600c602052604090206002015460ff165b6106c45760405162461bcd60e51b815260206004820152600c60248201526b155b985d5d1a1bdc9a5e995960a21b60448201526064015b60405180910390fd5b6000828152600b6020908152604080832080548251818502810185019093528083529193909284015b8282101561095557838290600052602060002090600502016040518060a001604052908160008201805461072090613242565b80601f016020809104026020016040519081016040528092919081815260200182805461074c90613242565b80156107995780601f1061076e57610100808354040283529160200191610799565b820191906000526020600020905b81548152906001019060200180831161077c57829003601f168201915b505050505081526020016001820180546107b290613242565b80601f01602080910402602001604051908101604052809291908181526020018280546107de90613242565b801561082b5780601f106108005761010080835404028352916020019161082b565b820191906000526020600020905b81548152906001019060200180831161080e57829003601f168201915b50505050508152602001600282015481526020016003820160009054906101000a90046001600160a01b03166001600160a01b03166001600160a01b0316815260200160048201805480602002602001604051908101604052809291908181526020016000905b8282101561093e5783829060005260206000200180546108b190613242565b80601f01602080910402602001604051908101604052809291908181526020018280546108dd90613242565b801561092a5780601f106108ff5761010080835404028352916020019161092a565b820191906000526020600020905b81548152906001019060200180831161090d57829003601f168201915b505050505081526020019060010190610892565b5050505081525050815260200190600101906106ed565b505050509050919050565b600080600061096e856120c0565b61098e57604051637399e49160e01b8152600481018690526024016106bb565b836001600160a01b03166109a186611371565b6001600160a01b03161490506109b78585610e0a565b92506109c38585611787565b91509250925092565b6001600160a01b0382166109f657604051633250574960e11b8152600060048201526024016106bb565b6000610a038383336120dd565b9050836001600160a01b0316816001600160a01b031614610a51576040516364283d7b60e01b81526001600160a01b03808616600483015260248201849052821660448201526064016106bb565b50505050565b610a60876120c0565b610a8057604051637399e49160e01b8152600481018890526024016106bb565b610a8a8733611787565b610aaa57604051633907167960e21b8152600481018890526024016106bb565b6000859003610acf57858560405162caca1560e41b81526004016106bb9291906132ea565b600b60008881526020019081526020016000206040518060a0016040528088888080601f016020809104026020016040519081016040528093929190818152602001838380828437600092019190915250505090825250604080516020601f890181900481028201810190925287815291810191908890889081908401838280828437600092019190915250505090825250426020820152336040820152606001610b7a84866132fe565b90528154600181018355600092835260209092208151919260050201908190610ba390826133db565b5060208201516001820190610bb890826133db565b506040820151600282015560608201516003820180546001600160a01b0319166001600160a01b0390921691909117905560808201518051610c04916004840191602090910190612a42565b505050336001600160a01b0316877f0708d075a28932b89a86495f1fb44a424539de915441c627a57bc2936de888f2888888888888604051610c4b9695949392919061349a565b60405180910390a350505050505050565b6000610c678361137c565b8210610c985760405163295f44f760e21b81526001600160a01b0384166004820152602481018390526044016106bb565b506001600160a01b03919091166000908152600660209081526040808320938352929052205490565b6001600160a01b0381166000908152600f602052604081208054606092906001600160401b03811115610cf657610cf6613029565b604051908082528060200260200182016040528015610d1f578160200160208202803683370190505b5090506000805b8354811015610e00576000600e6000868481548110610d4757610d4761327c565b9060005260206000200154815260200190815260200160002090508060000154600014610ded576000805b84811015610db9578260000154868281518110610d9157610d9161327c565b602002602001015103610da75760019150610db9565b80610db1816132a8565b915050610d72565b5080610deb5781548585610dcc816132a8565b965081518110610dde57610dde61327c565b6020026020010181815250505b505b5080610df8816132a8565b915050610d26565b5081529392505050565b6000610e15836120c0565b610e3557604051637399e49160e01b8152600481018490526024016106bb565b6000838152600c602052604090206002015460ff1615610e57575060016104eb565b816001600160a01b0316610e6a84611371565b6001600160a01b031603610e80575060016104eb565b6001600160a01b0382166000908152600f60205260408120905b8154811015610f16576000600e6000848481548110610ebb57610ebb61327c565b906000526020600020015481526020019081526020016000209050858160000154148015610ef457506001810154600160a01b900460ff165b15610f0557600193505050506104eb565b50610f0f816132a8565b9050610e9a565b506000949350505050565b610f3c83838360405180602001604052806000815250611597565b505050565b60606000610f4e60085490565b6001600160401b03811115610f6557610f65613029565b604051908082528060200260200182016040528015610f8e578160200160208202803683370190505b509050600060015b6008548111610ff6576000818152600c602052604090206002015460ff1615610fe457808383610fc5816132a8565b945081518110610fd757610fd761327c565b6020026020010181815250505b80610fee816132a8565b915050610f96565b508152919050565b600061100960085490565b82106110325760405163295f44f760e21b815260006004820152602481018390526044016106bb565b600882815481106110455761104561327c565b90600052602060002001549050919050565b6000818152600e60205260408120805490910361108a57604051635e308a3760e01b8152600481018390526024016106bb565b8054339061109790611371565b6001600160a01b0316146110c1576040516336e7a3d960e11b8152600481018390526024016106bb565b60018101546001600160a01b03166000908152600f60205260408120905b815481101561119357838282815481106110fb576110fb61327c565b906000526020600020015403611181578154829061111b90600190613560565b8154811061112b5761112b61327c565b90600052602060002001548282815481106111485761114861327c565b90600052602060002001819055508180548061116657611166613573565b60019003818190600052602060002001600090559055611193565b8061118b816132a8565b9150506110df565b506000838152600e602052604080822082815560010180546001600160b01b03191690555184917f8c5a6faf8dae8a30a56c22fbcb6e105d3d45c9abfbf62015d17366f59a2ffda491a2505050565b600033816111ef60085490565b6111fa906001613589565b905061120682826121b2565b6040518060a0016040528088888080601f016020809104026020016040519081016040528093929190818152602001838380828437600092019190915250505090825250604080516020601f890181900481028201810190925287815291810191908890889081908401838280828437600092018290525093855250505060208083018290526001600160a01b03861660408085019190915242606090940193909352848252600c905220815181906112bf90826133db565b50602082015160018201906112d490826133db565b5060408281015160028301805460608601516001600160a81b0319909116921515610100600160a81b031916929092176101006001600160a01b0393841602179055608090930151600390920191909155519083169082907f90bddb5884aa47cbefb24cf96e29bcd7daa1b02fe38a55ef02ff51197cb6d2d39061135f908b908b908b908b9061359c565b60405180910390a39695505050505050565b60006104eb8261207a565b60006001600160a01b0382166113a8576040516322718ad960e21b8152600060048201526024016106bb565b506001600160a01b031660009081526003602052604090205490565b6113cc6121cc565b6113d660006121f9565b565b60006113e3856120c0565b61140357604051637399e49160e01b8152600481018690526024016106bb565b3361140d86611371565b6001600160a01b03161461143757604051633907167960e21b8152600481018690526024016106bb565b6001600160a01b03841661147f5760405162461bcd60e51b815260206004820152600f60248201526e496e76616c6964206772616e74656560881b60448201526064016106bb565b600d805460009182611490836132a8565b90915550604080516080810182528881526001600160a01b0388811660208084018281528a15158587018181528b15156060880181815260008b8152600e87528a812099518a5594516001998a018054945192511515600160a81b0260ff60a81b19931515600160a01b026001600160a81b031990961692909a16919091179390931716969096179055838252600f8352868220805496870181558252908290209094018690558451938452830191909152929350889184917fed6133e45d92afaf23ed76b65a2d239187b039cc66dcf993242e99210f6b1d9e910160405180910390a495945050505050565b60606001805461050090613242565b6105b733838361224b565b6115a28484846109cc565b610a5133858585856122ea565b6115ec6040518060a00160405280606081526020016060815260200160001515815260200160006001600160a01b03168152602001600081525090565b6115f5826120c0565b61161557604051637399e49160e01b8152600481018390526024016106bb565b6000828152600c602052604090819020815160a0810190925280548290829061163d90613242565b80601f016020809104026020016040519081016040528092919081815260200182805461166990613242565b80156116b65780601f1061168b576101008083540402835291602001916116b6565b820191906000526020600020905b81548152906001019060200180831161169957829003601f168201915b505050505081526020016001820180546116cf90613242565b80601f01602080910402602001604051908101604052809291908181526020018280546116fb90613242565b80156117485780601f1061171d57610100808354040283529160200191611748565b820191906000526020600020905b81548152906001019060200180831161172b57829003601f168201915b5050509183525050600282015460ff81161515602083015261010090046001600160a01b0316604082015260039091015460609091015290505b919050565b6000611792836120c0565b6117b257604051637399e49160e01b8152600481018490526024016106bb565b816001600160a01b03166117c584611371565b6001600160a01b0316036117db575060016104eb565b6001600160a01b0382166000908152600f60205260408120905b8154811015610f16576000600e60008484815481106118165761181661327c565b90600052602060002001548152602001908152602001600020905085816000015414801561184f57506001810154600160a81b900460ff165b1561186057600193505050506104eb565b5061186a816132a8565b90506117f5565b606061187c8261207a565b50600061189460408051602081019091526000815290565b905060008151116118b457604051806020016040528060008152506118df565b806118be84612415565b6040516020016118cf9291906135ce565b6040516020818303038152906040525b9392505050565b6118ef846120c0565b61190f57604051637399e49160e01b8152600481018590526024016106bb565b611918836120c0565b61193857604051637399e49160e01b8152600481018490526024016106bb565b6119428433611787565b61196257604051633907167960e21b8152600481018590526024016106bb565b61196c8333611787565b61198c57604051633907167960e21b8152600481018490526024016106bb565b6000848152600b60209081526040808320815160a08101835260608082529381018490529182018490528282019390935260808101919091526000199060005b8354811015611ca75785856040516119e59291906135fd565b60405180910390208482815481106119ff576119ff61327c565b9060005260206000209060050201600001604051611a1d919061360d565b604051809103902003611c9557809250838181548110611a3f57611a3f61327c565b90600052602060002090600502016040518060a0016040529081600082018054611a6890613242565b80601f0160208091040260200160405190810160405280929190818152602001828054611a9490613242565b8015611ae15780601f10611ab657610100808354040283529160200191611ae1565b820191906000526020600020905b815481529060010190602001808311611ac457829003601f168201915b50505050508152602001600182018054611afa90613242565b80601f0160208091040260200160405190810160405280929190818152602001828054611b2690613242565b8015611b735780601f10611b4857610100808354040283529160200191611b73565b820191906000526020600020905b815481529060010190602001808311611b5657829003601f168201915b50505050508152602001600282015481526020016003820160009054906101000a90046001600160a01b03166001600160a01b03166001600160a01b0316815260200160048201805480602002602001604051908101604052809291908181526020016000905b82821015611c86578382906000526020600020018054611bf990613242565b80601f0160208091040260200160405190810160405280929190818152602001828054611c2590613242565b8015611c725780601f10611c4757610100808354040283529160200191611c72565b820191906000526020600020905b815481529060010190602001808311611c5557829003601f168201915b505050505081526020019060010190611bda565b50505050815250509150611ca7565b80611c9f816132a8565b9150506119cc565b506000198203611cf95760405162461bcd60e51b815260206004820152601f60248201527f46696c65206e6f7420666f756e6420696e20736f7572636520666f6c6465720060448201526064016106bb565b82548390611d0990600190613560565b81548110611d1957611d1961327c565b9060005260206000209060050201838381548110611d3957611d3961327c565b6000918252602090912060059091020180611d548382613683565b50600181810190611d6790840182613683565b506002828101549082015560038083015490820180546001600160a01b0319166001600160a01b0390921691909117905560048083018054611dac9284019190612a98565b5090505082805480611dc057611dc0613573565b60008281526020812060001990920191600583020190611de08282612ae0565b611dee600183016000612ae0565b6000600283018190556003830180546001600160a01b0319169055611e17906004840190612b1a565b505090556000868152600b6020908152604082208054600181018255908352912082518392600502909101908190611e4f90826133db565b5060208201516001820190611e6490826133db565b506040820151600282015560608201516003820180546001600160a01b0319166001600160a01b0390921691909117905560808201518051611eb0916004840191602090910190612a42565b505050336001600160a01b031686887f6e5df78c414fd81e8f18eaa4771ece772cb2fa0713d18c039a23be9c0cb5120388888660200151604051611ef693929190613755565b60405180910390a450505050505050565b611f10826120c0565b611f3057604051637399e49160e01b8152600481018390526024016106bb565b33611f3a83611371565b6001600160a01b031614611f6457604051633907167960e21b8152600481018390526024016106bb565b6000828152600c6020908152604091829020600201805460ff1916841515908117909155915191825283917ff473ca6c6c330ce0e937d075ca2c506af1927f94387452786dab4a6b16e16e19910160405180910390a25050565b6001600160a01b03918216600090815260056020908152604080832093909416825291909152205460ff1690565b611ff46121cc565b6001600160a01b03811661201e57604051631e4fbdf760e01b8152600060048201526024016106bb565b612027816121f9565b50565b60006001600160e01b031982166380ac58cd60e01b148061205b57506001600160e01b03198216635b5e139f60e01b145b806104eb57506301ffc9a760e01b6001600160e01b03198316146104eb565b6000818152600260205260408120546001600160a01b0316806104eb57604051637e27328960e01b8152600481018490526024016106bb565b610f3c83838360016124a7565b6000908152600260205260409020546001600160a01b0316151590565b6000806120eb8585856125ad565b90506001600160a01b0381166121485761214384600880546000838152600960205260408120829055600182018355919091527ff3f7a9fe364faab93b216da50a3214154f22a0a2b415b23a84c8169e8b636ee30155565b61216b565b846001600160a01b0316816001600160a01b03161461216b5761216b81856126a6565b6001600160a01b0385166121875761218284612727565b6121aa565b846001600160a01b0316816001600160a01b0316146121aa576121aa85856127d6565b949350505050565b6105b7828260405180602001604052806000815250612826565b600a546001600160a01b031633146113d65760405163118cdaa760e01b81523360048201526024016106bb565b600a80546001600160a01b038381166001600160a01b0319831681179093556040519116919082907f8be0079c531659141344cd1fd0a4f28419497f9722a3daafe3b4186f6b6457e090600090a35050565b6001600160a01b03821661227d57604051630b61174360e31b81526001600160a01b03831660048201526024016106bb565b6001600160a01b03838116600081815260056020908152604080832094871680845294825291829020805460ff191686151590811790915591519182527f17307eab39ab6107e8899845ad3d59bd9653f200f220920489ca2b5937696c31910160405180910390a3505050565b6001600160a01b0383163b1561240e57604051630a85bd0160e11b81526001600160a01b0384169063150b7a029061232c908890889087908790600401613785565b6020604051808303816000875af1925050508015612367575060408051601f3d908101601f19168201909252612364918101906137b8565b60015b6123d0573d808015612395576040519150601f19603f3d011682016040523d82523d6000602084013e61239a565b606091505b5080516000036123c857604051633250574960e11b81526001600160a01b03851660048201526024016106bb565b805181602001fd5b6001600160e01b03198116630a85bd0160e11b1461240c57604051633250574960e11b81526001600160a01b03851660048201526024016106bb565b505b5050505050565b606060006124228361283e565b60010190506000816001600160401b0381111561244157612441613029565b6040519080825280601f01601f19166020018201604052801561246b576020820181803683370190505b5090508181016020015b600019016f181899199a1a9b1b9c1cb0b131b232b360811b600a86061a8153600a850494508461247557509392505050565b80806124bb57506001600160a01b03821615155b1561257d5760006124cb8461207a565b90506001600160a01b038316158015906124f75750826001600160a01b0316816001600160a01b031614155b801561250a57506125088184611fbe565b155b156125335760405163a9fbf51f60e01b81526001600160a01b03841660048201526024016106bb565b811561257b5783856001600160a01b0316826001600160a01b03167f8c5be1e5ebec7d5bd14f71427d1e84f3dd0314c0f7b2291e5b200ac8c7c3b92560405160405180910390a45b505b5050600090815260046020526040902080546001600160a01b0319166001600160a01b0392909216919091179055565b6000828152600260205260408120546001600160a01b03908116908316156125da576125da818486612916565b6001600160a01b03811615612618576125f76000856000806124a7565b6001600160a01b038116600090815260036020526040902080546000190190555b6001600160a01b03851615612647576001600160a01b0385166000908152600360205260409020805460010190555b60008481526002602052604080822080546001600160a01b0319166001600160a01b0389811691821790925591518793918516917fddf252ad1be2c89b69c2b068fc378daa952ba7f163c4a11628f55a4df523b3ef91a4949350505050565b60006126b18361137c565b6000838152600760209081526040808320546001600160a01b038816845260069092529091209192509081831461270857600083815260208281526040808320548584528184208190558352600790915290208290555b6000938452600760209081526040808620869055938552525081205550565b60085460009061273990600190613560565b600083815260096020526040812054600880549394509092849081106127615761276161327c565b9060005260206000200154905080600883815481106127825761278261327c565b60009182526020808320909101929092558281526009909152604080822084905585825281205560088054806127ba576127ba613573565b6001900381819060005260206000200160009055905550505050565b600060016127e38461137c565b6127ed9190613560565b6001600160a01b039093166000908152600660209081526040808320868452825280832085905593825260079052919091209190915550565b612830838361297a565b610f3c3360008585856122ea565b60008072184f03e93ff9f4daa797ed6e38ed64bf6a1f0160401b831061287d5772184f03e93ff9f4daa797ed6e38ed64bf6a1f0160401b830492506040015b6d04ee2d6d415b85acef810000000083106128a9576d04ee2d6d415b85acef8100000000830492506020015b662386f26fc1000083106128c757662386f26fc10000830492506010015b6305f5e10083106128df576305f5e100830492506008015b61271083106128f357612710830492506004015b60648310612905576064830492506002015b600a83106104eb5760010192915050565b6129218383836129df565b610f3c576001600160a01b03831661294f57604051637e27328960e01b8152600481018290526024016106bb565b60405163177e802f60e01b81526001600160a01b0383166004820152602481018290526044016106bb565b6001600160a01b0382166129a457604051633250574960e11b8152600060048201526024016106bb565b60006129b2838360006120dd565b90506001600160a01b03811615610f3c576040516339e3563760e11b8152600060048201526024016106bb565b60006001600160a01b038316158015906121aa5750826001600160a01b0316846001600160a01b03161480612a195750612a198484611fbe565b806121aa5750506000908152600460205260409020546001600160a01b03908116911614919050565b828054828255906000526020600020908101928215612a88579160200282015b82811115612a885782518290612a7890826133db565b5091602001919060010190612a62565b50612a94929150612b34565b5090565b828054828255906000526020600020908101928215612a885760005260206000209182015b82811115612a885781612ad08482613683565b5091600101919060010190612abd565b508054612aec90613242565b6000825580601f10612afc575050565b601f0160209004906000526020600020908101906120279190612b51565b508054600082559060005260206000209081019061202791905b80821115612a94576000612b488282612ae0565b50600101612b34565b5b80821115612a945760008155600101612b52565b6001600160e01b03198116811461202757600080fd5b600060208284031215612b8e57600080fd5b81356118df81612b66565b60005b83811015612bb4578181015183820152602001612b9c565b50506000910152565b60008151808452612bd5816020860160208601612b99565b601f01601f19169290920160200192915050565b6020815260006118df6020830184612bbd565b600060208284031215612c0e57600080fd5b5035919050565b80356001600160a01b038116811461178257600080fd5b60008060408385031215612c3f57600080fd5b612c4883612c15565b946020939093013593505050565b600060208284031215612c6857600080fd5b6118df82612c15565b6020808252825182820181905260009190848201906040850190845b81811015612ca957835183529284019291840191600101612c8d565b50909695505050505050565b602080825282518282018190526000919060409081850190600581811b8701840188860187805b85811015612da457603f198b8503018752825160a08151818752612d0282880182612bbd565b9150508a8201518682038c880152612d1a8282612bbd565b838c0151888d01526060808501516001600160a01b031690890152608093840151888203948901949094528351808252938d01939092508c8301915080891b83018d01865b82811015612d8d57601f19858303018452612d7b828751612bbd565b958f0195938f01939150600101612d5f565b509a8d019a97505050938a01935050600101612cdc565b50919a9950505050505050505050565b60008060408385031215612dc757600080fd5b82359150612dd760208401612c15565b90509250929050565b600080600060608486031215612df557600080fd5b612dfe84612c15565b9250612e0c60208501612c15565b9150604084013590509250925092565b60008083601f840112612e2e57600080fd5b5081356001600160401b03811115612e4557600080fd5b602083019150836020828501011115612e5d57600080fd5b9250929050565b60008060008060008060006080888a031215612e7f57600080fd5b8735965060208801356001600160401b0380821115612e9d57600080fd5b612ea98b838c01612e1c565b909850965060408a0135915080821115612ec257600080fd5b612ece8b838c01612e1c565b909650945060608a0135915080821115612ee757600080fd5b818a0191508a601f830112612efb57600080fd5b813581811115612f0a57600080fd5b8b60208260051b8501011115612f1f57600080fd5b60208301945080935050505092959891949750929550565b60008060008060408587031215612f4d57600080fd5b84356001600160401b0380821115612f6457600080fd5b612f7088838901612e1c565b90965094506020870135915080821115612f8957600080fd5b50612f9687828801612e1c565b95989497509550505050565b8035801515811461178257600080fd5b60008060008060808587031215612fc857600080fd5b84359350612fd860208601612c15565b9250612fe660408601612fa2565b9150612ff460608601612fa2565b905092959194509250565b6000806040838503121561301257600080fd5b61301b83612c15565b9150612dd760208401612fa2565b634e487b7160e01b600052604160045260246000fd5b604051601f8201601f191681016001600160401b038111828210171561306757613067613029565b604052919050565b60006001600160401b0383111561308857613088613029565b61309b601f8401601f191660200161303f565b90508281528383830111156130af57600080fd5b828260208301376000602084830101529392505050565b600080600080608085870312156130dc57600080fd5b6130e585612c15565b93506130f360208601612c15565b92506040850135915060608501356001600160401b0381111561311557600080fd5b8501601f8101871361312657600080fd5b6131358782356020840161306f565b91505092959194509250565b602081526000825160a0602084015261315d60c0840182612bbd565b90506020840151601f1984830301604085015261317a8282612bbd565b91505060408401511515606084015260018060a01b036060850151166080840152608084015160a08401528091505092915050565b600080600080606085870312156131c557600080fd5b843593506020850135925060408501356001600160401b038111156131e957600080fd5b612f9687828801612e1c565b6000806040838503121561320857600080fd5b82359150612dd760208401612fa2565b6000806040838503121561322b57600080fd5b61323483612c15565b9150612dd760208401612c15565b600181811c9082168061325657607f821691505b60208210810361327657634e487b7160e01b600052602260045260246000fd5b50919050565b634e487b7160e01b600052603260045260246000fd5b634e487b7160e01b600052601160045260246000fd5b6000600182016132ba576132ba613292565b5060010190565b81835281816020850137506000828201602090810191909152601f909101601f19169091010190565b6020815260006121aa6020830184866132c1565b60006001600160401b038084111561331857613318613029565b8360051b602061332981830161303f565b86815291850191818101903684111561334157600080fd5b865b848110156133895780358681111561335b5760008081fd5b880136601f82011261336d5760008081fd5b61337b36823587840161306f565b845250918301918301613343565b50979650505050505050565b601f821115610f3c57600081815260208120601f850160051c810160208610156133bc5750805b601f850160051c820191505b8181101561240c578281556001016133c8565b81516001600160401b038111156133f4576133f4613029565b613408816134028454613242565b84613395565b602080601f83116001811461343d57600084156134255750858301515b600019600386901b1c1916600185901b17855561240c565b600085815260208120601f198616915b8281101561346c5788860151825594840194600190910190840161344d565b508582101561348a5787850151600019600388901b60f8161c191681555b5050505050600190811b01905550565b6060815260006134ae60608301888a6132c1565b6020838203818501526134c282888a6132c1565b84810360408601528581529150808201600586901b830182018760005b8881101561354e57858303601f190184528135368b9003601e1901811261350557600080fd5b8a0185810190356001600160401b0381111561352057600080fd5b80360382131561352f57600080fd5b61353a8582846132c1565b9587019594505050908401906001016134df565b50909c9b505050505050505050505050565b818103818111156104eb576104eb613292565b634e487b7160e01b600052603160045260246000fd5b808201808211156104eb576104eb613292565b6040815260006135b06040830186886132c1565b82810360208401526135c38185876132c1565b979650505050505050565b600083516135e0818460208801612b99565b8351908301906135f4818360208801612b99565b01949350505050565b8183823760009101908152919050565b600080835461361b81613242565b60018281168015613633576001811461364857613677565b60ff1984168752821515830287019450613677565b8760005260208060002060005b8581101561366e5781548a820152908401908201613655565b50505082870194505b50929695505050505050565b81810361368e575050565b6136988254613242565b6001600160401b038111156136af576136af613029565b6136bd816134028454613242565b6000601f8211600181146136f157600083156136d95750848201545b600019600385901b1c1916600184901b17845561240e565b600085815260209020601f19841690600086815260209020845b8381101561372b578286015482556001958601959091019060200161370b565b508583101561348a5793015460001960f8600387901b161c19169092555050600190811b01905550565b6040815260006137696040830185876132c1565b828103602084015261377b8185612bbd565b9695505050505050565b6001600160a01b038581168252841660208201526040810183905260806060820181905260009061377b90830184612bbd565b6000602082840312156137ca57600080fd5b81516118df81612b6656fea264697066735822122097f7579c2aa3a0e66352d5893f4e256ddd6ce2208142bb3eb3a8635432049f2f64736f6c63430008140033",
  "linkReferences": {},
  "deployedLinkReferences": {}
}