{
  "_format": "hh-sol-artifact-1",
  "contractName": "FolderNFT",
  "sourceName": "contracts/FILDOS.sol",
  "abi": [
    {
      "inputs": [],
      "stateMutability": "nonpayable",
      "type": "constructor"
    },
    {
      "inputs": [],
      "name": "ERC721EnumerableForbiddenBatchMint",
      "type": "error"
    },
    {
      "inputs": [
        {
          "internalType": "address",
          "name": "sender",
          "type": "address"
        },
        {
          "internalType": "uint256",
          "name": "tokenId",
          "type": "uint256"
        },
        {
          "internalType": "address",
          "name": "owner",
          "type": "address"
        }
      ],
      "name": "ERC721IncorrectOwner",
      "type": "error"
    },
    {
      "inputs": [
        {
          "internalType": "address",
          "name": "operator",
          "type": "address"
        },
        {
          "internalType": "uint256",
          "name": "tokenId",
          "type": "uint256"
        }
      ],
      "name": "ERC721InsufficientApproval",
      "type": "error"
    },
    {
      "inputs": [
        {
          "internalType": "address",
          "name": "approver",
          "type": "address"
        }
      ],
      "name": "ERC721InvalidApprover",
      "type": "error"
    },
    {
      "inputs": [
        {
          "internalType": "address",
          "name": "operator",
          "type": "address"
        }
      ],
      "name": "ERC721InvalidOperator",
      "type": "error"
    },
    {
      "inputs": [
        {
          "internalType": "address",
          "name": "owner",
          "type": "address"
        }
      ],
      "name": "ERC721InvalidOwner",
      "type": "error"
    },
    {
      "inputs": [
        {
          "internalType": "address",
          "name": "receiver",
          "type": "address"
        }
      ],
      "name": "ERC721InvalidReceiver",
      "type": "error"
    },
    {
      "inputs": [
        {
          "internalType": "address",
          "name": "sender",
          "type": "address"
        }
      ],
      "name": "ERC721InvalidSender",
      "type": "error"
    },
    {
      "inputs": [
        {
          "internalType": "uint256",
          "name": "tokenId",
          "type": "uint256"
        }
      ],
      "name": "ERC721NonexistentToken",
      "type": "error"
    },
    {
      "inputs": [
        {
          "internalType": "address",
          "name": "owner",
          "type": "address"
        },
        {
          "internalType": "uint256",
          "name": "index",
          "type": "uint256"
        }
      ],
      "name": "ERC721OutOfBoundsIndex",
      "type": "error"
    },
    {
      "inputs": [
        {
          "internalType": "uint256",
          "name": "tokenId",
          "type": "uint256"
        }
      ],
      "name": "FolderDoesNotExist",
      "type": "error"
    },
    {
      "inputs": [
        {
          "internalType": "string",
          "name": "cid",
          "type": "string"
        }
      ],
      "name": "InvalidCID",
      "type": "error"
    },
    {
      "inputs": [
        {
          "internalType": "uint256",
          "name": "tokenId",
          "type": "uint256"
        }
      ],
      "name": "NotFolderAccess",
      "type": "error"
    },
    {
      "inputs": [
        {
          "internalType": "uint256",
          "name": "tokenId",
          "type": "uint256"
        }
      ],
      "name": "NotFolderOwner",
      "type": "error"
    },
    {
      "inputs": [
        {
          "internalType": "uint256",
          "name": "shareId",
          "type": "uint256"
        }
      ],
      "name": "NotShareOwner",
      "type": "error"
    },
    {
      "inputs": [
        {
          "internalType": "address",
          "name": "owner",
          "type": "address"
        }
      ],
      "name": "OwnableInvalidOwner",
      "type": "error"
    },
    {
      "inputs": [
        {
          "internalType": "address",
          "name": "account",
          "type": "address"
        }
      ],
      "name": "OwnableUnauthorizedAccount",
      "type": "error"
    },
    {
      "inputs": [
        {
          "internalType": "uint256",
          "name": "shareId",
          "type": "uint256"
        }
      ],
      "name": "ShareNotFound",
      "type": "error"
    },
    {
      "anonymous": false,
      "inputs": [
        {
          "indexed": true,
          "internalType": "address",
          "name": "owner",
          "type": "address"
        },
        {
          "indexed": true,
          "internalType": "address",
          "name": "approved",
          "type": "address"
        },
        {
          "indexed": true,
          "internalType": "uint256",
          "name": "tokenId",
          "type": "uint256"
        }
      ],
      "name": "Approval",
      "type": "event"
    },
    {
      "anonymous": false,
      "inputs": [
        {
          "indexed": true,
          "internalType": "address",
          "name": "owner",
          "type": "address"
        },
        {
          "indexed": true,
          "internalType": "address",
          "name": "operator",
          "type": "address"
        },
        {
          "indexed": false,
          "internalType": "bool",
          "name": "approved",
          "type": "bool"
        }
      ],
      "name": "ApprovalForAll",
      "type": "event"
    },
    {
      "anonymous": false,
      "inputs": [
        {
          "indexed": true,
          "internalType": "uint256",
          "name": "tokenId",
          "type": "uint256"
        },
        {
          "indexed": false,
          "internalType": "string",
          "name": "cid",
          "type": "string"
        },
        {
          "indexed": false,
          "internalType": "string",
          "name": "filename",
          "type": "string"
        },
        {
          "indexed": true,
          "internalType": "address",
          "name": "owner",
          "type": "address"
        },
        {
          "indexed": false,
          "internalType": "string[]",
          "name": "tags",
          "type": "string[]"
        }
      ],
      "name": "FileAdded",
      "type": "event"
    },
    {
      "anonymous": false,
      "inputs": [
        {
          "indexed": true,
          "internalType": "uint256",
          "name": "fromTokenId",
          "type": "uint256"
        },
        {
          "indexed": true,
          "internalType": "uint256",
          "name": "toTokenId",
          "type": "uint256"
        },
        {
          "indexed": false,
          "internalType": "string",
          "name": "cid",
          "type": "string"
        },
        {
          "indexed": false,
          "internalType": "string",
          "name": "filename",
          "type": "string"
        },
        {
          "indexed": true,
          "internalType": "address",
          "name": "mover",
          "type": "address"
        }
      ],
      "name": "FileMoved",
      "type": "event"
    },
    {
      "anonymous": false,
      "inputs": [
        {
          "indexed": true,
          "internalType": "uint256",
          "name": "tokenId",
          "type": "uint256"
        },
        {
          "indexed": false,
          "internalType": "string",
          "name": "cid",
          "type": "string"
        },
        {
          "indexed": false,
          "internalType": "string",
          "name": "filename",
          "type": "string"
        },
        {
          "indexed": true,
          "internalType": "address",
          "name": "remover",
          "type": "address"
        }
      ],
      "name": "FileRemoved",
      "type": "event"
    },
    {
      "anonymous": false,
      "inputs": [
        {
          "indexed": true,
          "internalType": "address",
          "name": "searcher",
          "type": "address"
        },
        {
          "indexed": true,
          "internalType": "uint256",
          "name": "folderId",
          "type": "uint256"
        },
        {
          "indexed": false,
          "internalType": "string",
          "name": "tag",
          "type": "string"
        },
        {
          "indexed": false,
          "internalType": "uint256",
          "name": "resultsCount",
          "type": "uint256"
        }
      ],
      "name": "FilesSearched",
      "type": "event"
    },
    {
      "anonymous": false,
      "inputs": [
        {
          "indexed": true,
          "internalType": "uint256",
          "name": "tokenId",
          "type": "uint256"
        },
        {
          "indexed": true,
          "internalType": "address",
          "name": "owner",
          "type": "address"
        },
        {
          "indexed": false,
          "internalType": "string",
          "name": "name",
          "type": "string"
        },
        {
          "indexed": false,
          "internalType": "string",
          "name": "folderType",
          "type": "string"
        }
      ],
      "name": "FolderMinted",
      "type": "event"
    },
    {
      "anonymous": false,
      "inputs": [
        {
          "indexed": true,
          "internalType": "uint256",
          "name": "tokenId",
          "type": "uint256"
        },
        {
          "indexed": false,
          "internalType": "bool",
          "name": "isPublic",
          "type": "bool"
        }
      ],
      "name": "FolderPublicityChanged",
      "type": "event"
    },
    {
      "anonymous": false,
      "inputs": [
        {
          "indexed": true,
          "internalType": "uint256",
          "name": "tokenId",
          "type": "uint256"
        },
        {
          "indexed": false,
          "internalType": "string",
          "name": "newType",
          "type": "string"
        }
      ],
      "name": "FolderTypeChanged",
      "type": "event"
    },
    {
      "anonymous": false,
      "inputs": [
        {
          "indexed": true,
          "internalType": "address",
          "name": "previousOwner",
          "type": "address"
        },
        {
          "indexed": true,
          "internalType": "address",
          "name": "newOwner",
          "type": "address"
        }
      ],
      "name": "OwnershipTransferred",
      "type": "event"
    },
    {
      "anonymous": false,
      "inputs": [
        {
          "indexed": true,
          "internalType": "uint256",
          "name": "shareId",
          "type": "uint256"
        },
        {
          "indexed": true,
          "internalType": "uint256",
          "name": "folderId",
          "type": "uint256"
        },
        {
          "indexed": true,
          "internalType": "address",
          "name": "grantee",
          "type": "address"
        },
        {
          "indexed": false,
          "internalType": "bool",
          "name": "canRead",
          "type": "bool"
        },
        {
          "indexed": false,
          "internalType": "bool",
          "name": "canWrite",
          "type": "bool"
        }
      ],
      "name": "ShareCreated",
      "type": "event"
    },
    {
      "anonymous": false,
      "inputs": [
        {
          "indexed": true,
          "internalType": "uint256",
          "name": "shareId",
          "type": "uint256"
        }
      ],
      "name": "ShareRevoked",
      "type": "event"
    },
    {
      "anonymous": false,
      "inputs": [
        {
          "indexed": true,
          "internalType": "address",
          "name": "from",
          "type": "address"
        },
        {
          "indexed": true,
          "internalType": "address",
          "name": "to",
          "type": "address"
        },
        {
          "indexed": true,
          "internalType": "uint256",
          "name": "tokenId",
          "type": "uint256"
        }
      ],
      "name": "Transfer",
      "type": "event"
    },
    {
      "inputs": [
        {
          "internalType": "uint256",
          "name": "tokenId",
          "type": "uint256"
        },
        {
          "internalType": "string",
          "name": "cid",
          "type": "string"
        },
        {
          "internalType": "string",
          "name": "filename",
          "type": "string"
        },
        {
          "internalType": "string[]",
          "name": "tags",
          "type": "string[]"
        }
      ],
      "name": "addFile",
      "outputs": [],
      "stateMutability": "nonpayable",
      "type": "function"
    },
    {
      "inputs": [
        {
          "internalType": "address",
          "name": "to",
          "type": "address"
        },
        {
          "internalType": "uint256",
          "name": "tokenId",
          "type": "uint256"
        }
      ],
      "name": "approve",
      "outputs": [],
      "stateMutability": "nonpayable",
      "type": "function"
    },
    {
      "inputs": [
        {
          "internalType": "address",
          "name": "owner",
          "type": "address"
        }
      ],
      "name": "balanceOf",
      "outputs": [
        {
          "internalType": "uint256",
          "name": "",
          "type": "uint256"
        }
      ],
      "stateMutability": "view",
      "type": "function"
    },
    {
      "inputs": [
        {
          "internalType": "uint256",
          "name": "tokenId",
          "type": "uint256"
        },
        {
          "internalType": "address",
          "name": "user",
          "type": "address"
        }
      ],
      "name": "canRead",
      "outputs": [
        {
          "internalType": "bool",
          "name": "",
          "type": "bool"
        }
      ],
      "stateMutability": "view",
      "type": "function"
    },
    {
      "inputs": [
        {
          "internalType": "uint256",
          "name": "tokenId",
          "type": "uint256"
        },
        {
          "internalType": "address",
          "name": "user",
          "type": "address"
        }
      ],
      "name": "canWrite",
      "outputs": [
        {
          "internalType": "bool",
          "name": "",
          "type": "bool"
        }
      ],
      "stateMutability": "view",
      "type": "function"
    },
    {
      "inputs": [
        {
          "internalType": "uint256",
          "name": "tokenId",
          "type": "uint256"
        },
        {
          "internalType": "string",
          "name": "cid",
          "type": "string"
        }
      ],
      "name": "fileExists",
      "outputs": [
        {
          "internalType": "bool",
          "name": "",
          "type": "bool"
        }
      ],
      "stateMutability": "view",
      "type": "function"
    },
    {
      "inputs": [
        {
          "internalType": "uint256",
          "name": "tokenId",
          "type": "uint256"
        }
      ],
      "name": "getApproved",
      "outputs": [
        {
          "internalType": "address",
          "name": "",
          "type": "address"
        }
      ],
      "stateMutability": "view",
      "type": "function"
    },
    {
      "inputs": [
        {
          "internalType": "uint256",
          "name": "tokenId",
          "type": "uint256"
        }
      ],
      "name": "getFileCount",
      "outputs": [
        {
          "internalType": "uint256",
          "name": "",
          "type": "uint256"
        }
      ],
      "stateMutability": "view",
      "type": "function"
    },
    {
      "inputs": [
        {
          "internalType": "uint256",
          "name": "tokenId",
          "type": "uint256"
        }
      ],
      "name": "getFiles",
      "outputs": [
        {
          "components": [
            {
              "internalType": "string",
              "name": "cid",
              "type": "string"
            },
            {
              "internalType": "string",
              "name": "filename",
              "type": "string"
            },
            {
              "internalType": "uint256",
              "name": "timestamp",
              "type": "uint256"
            },
            {
              "internalType": "address",
              "name": "owner",
              "type": "address"
            },
            {
              "internalType": "string[]",
              "name": "tags",
              "type": "string[]"
            }
          ],
          "internalType": "struct FolderNFT.FileEntry[]",
          "name": "",
          "type": "tuple[]"
        }
      ],
      "stateMutability": "view",
      "type": "function"
    },
    {
      "inputs": [
        {
          "internalType": "uint256",
          "name": "tokenId",
          "type": "uint256"
        },
        {
          "internalType": "address",
          "name": "user",
          "type": "address"
        }
      ],
      "name": "getFolderAccess",
      "outputs": [
        {
          "internalType": "bool",
          "name": "canRead_",
          "type": "bool"
        },
        {
          "internalType": "bool",
          "name": "canWrite_",
          "type": "bool"
        },
        {
          "internalType": "bool",
          "name": "isOwner",
          "type": "bool"
        }
      ],
      "stateMutability": "view",
      "type": "function"
    },
    {
      "inputs": [
        {
          "internalType": "uint256",
          "name": "tokenId",
          "type": "uint256"
        }
      ],
      "name": "getFolderData",
      "outputs": [
        {
          "components": [
            {
              "internalType": "string",
              "name": "name",
              "type": "string"
            },
            {
              "internalType": "string",
              "name": "folderType",
              "type": "string"
            },
            {
              "internalType": "bool",
              "name": "isPublic",
              "type": "bool"
            },
            {
              "internalType": "address",
              "name": "owner",
              "type": "address"
            },
            {
              "internalType": "uint256",
              "name": "createdAt",
              "type": "uint256"
            }
          ],
          "internalType": "struct FolderNFT.FolderInfo",
          "name": "data_",
          "type": "tuple"
        }
      ],
      "stateMutability": "view",
      "type": "function"
    },
    {
      "inputs": [
        {
          "internalType": "uint256",
          "name": "tokenId",
          "type": "uint256"
        }
      ],
      "name": "getFolderTags",
      "outputs": [
        {
          "internalType": "string[]",
          "name": "",
          "type": "string[]"
        }
      ],
      "stateMutability": "view",
      "type": "function"
    },
    {
      "inputs": [
        {
          "internalType": "address",
          "name": "owner",
          "type": "address"
        }
      ],
      "name": "getFoldersOwnedBy",
      "outputs": [
        {
          "internalType": "uint256[]",
          "name": "",
          "type": "uint256[]"
        }
      ],
      "stateMutability": "view",
      "type": "function"
    },
    {
      "inputs": [
        {
          "internalType": "address",
          "name": "user",
          "type": "address"
        }
      ],
      "name": "getFoldersSharedTo",
      "outputs": [
        {
          "internalType": "uint256[]",
          "name": "",
          "type": "uint256[]"
        }
      ],
      "stateMutability": "view",
      "type": "function"
    },
    {
      "inputs": [],
      "name": "getPublicFolders",
      "outputs": [
        {
          "internalType": "uint256[]",
          "name": "",
          "type": "uint256[]"
        }
      ],
      "stateMutability": "view",
      "type": "function"
    },
    {
      "inputs": [
        {
          "internalType": "address",
          "name": "owner",
          "type": "address"
        },
        {
          "internalType": "address",
          "name": "operator",
          "type": "address"
        }
      ],
      "name": "isApprovedForAll",
      "outputs": [
        {
          "internalType": "bool",
          "name": "",
          "type": "bool"
        }
      ],
      "stateMutability": "view",
      "type": "function"
    },
    {
      "inputs": [
        {
          "internalType": "string",
          "name": "name",
          "type": "string"
        },
        {
          "internalType": "string",
          "name": "folderType",
          "type": "string"
        }
      ],
      "name": "mintFolder",
      "outputs": [
        {
          "internalType": "uint256",
          "name": "",
          "type": "uint256"
        }
      ],
      "stateMutability": "nonpayable",
      "type": "function"
    },
    {
      "inputs": [
        {
          "internalType": "uint256",
          "name": "fromTokenId",
          "type": "uint256"
        },
        {
          "internalType": "uint256",
          "name": "toTokenId",
          "type": "uint256"
        },
        {
          "internalType": "string",
          "name": "cid",
          "type": "string"
        }
      ],
      "name": "moveFile",
      "outputs": [],
      "stateMutability": "nonpayable",
      "type": "function"
    },
    {
      "inputs": [],
      "name": "name",
      "outputs": [
        {
          "internalType": "string",
          "name": "",
          "type": "string"
        }
      ],
      "stateMutability": "view",
      "type": "function"
    },
    {
      "inputs": [],
      "name": "owner",
      "outputs": [
        {
          "internalType": "address",
          "name": "",
          "type": "address"
        }
      ],
      "stateMutability": "view",
      "type": "function"
    },
    {
      "inputs": [
        {
          "internalType": "uint256",
          "name": "tokenId",
          "type": "uint256"
        }
      ],
      "name": "ownerOf",
      "outputs": [
        {
          "internalType": "address",
          "name": "",
          "type": "address"
        }
      ],
      "stateMutability": "view",
      "type": "function"
    },
    {
      "inputs": [
        {
          "internalType": "uint256",
          "name": "tokenId",
          "type": "uint256"
        },
        {
          "internalType": "string",
          "name": "cid",
          "type": "string"
        }
      ],
      "name": "removeFile",
      "outputs": [],
      "stateMutability": "nonpayable",
      "type": "function"
    },
    {
      "inputs": [],
      "name": "renounceOwnership",
      "outputs": [],
      "stateMutability": "nonpayable",
      "type": "function"
    },
    {
      "inputs": [
        {
          "internalType": "uint256",
          "name": "shareId",
          "type": "uint256"
        }
      ],
      "name": "revokeShare",
      "outputs": [],
      "stateMutability": "nonpayable",
      "type": "function"
    },
    {
      "inputs": [
        {
          "internalType": "address",
          "name": "from",
          "type": "address"
        },
        {
          "internalType": "address",
          "name": "to",
          "type": "address"
        },
        {
          "internalType": "uint256",
          "name": "tokenId",
          "type": "uint256"
        }
      ],
      "name": "safeTransferFrom",
      "outputs": [],
      "stateMutability": "nonpayable",
      "type": "function"
    },
    {
      "inputs": [
        {
          "internalType": "address",
          "name": "from",
          "type": "address"
        },
        {
          "internalType": "address",
          "name": "to",
          "type": "address"
        },
        {
          "internalType": "uint256",
          "name": "tokenId",
          "type": "uint256"
        },
        {
          "internalType": "bytes",
          "name": "data",
          "type": "bytes"
        }
      ],
      "name": "safeTransferFrom",
      "outputs": [],
      "stateMutability": "nonpayable",
      "type": "function"
    },
    {
      "inputs": [
        {
          "internalType": "uint256",
          "name": "tokenId",
          "type": "uint256"
        },
        {
          "internalType": "string[]",
          "name": "tags",
          "type": "string[]"
        }
      ],
      "name": "searchFilesByMultipleTags",
      "outputs": [
        {
          "components": [
            {
              "internalType": "string",
              "name": "cid",
              "type": "string"
            },
            {
              "internalType": "string",
              "name": "filename",
              "type": "string"
            },
            {
              "internalType": "uint256",
              "name": "timestamp",
              "type": "uint256"
            },
            {
              "internalType": "address",
              "name": "owner",
              "type": "address"
            },
            {
              "internalType": "string[]",
              "name": "tags",
              "type": "string[]"
            }
          ],
          "internalType": "struct FolderNFT.FileEntry[]",
          "name": "",
          "type": "tuple[]"
        }
      ],
      "stateMutability": "nonpayable",
      "type": "function"
    },
    {
      "inputs": [
        {
          "internalType": "uint256",
          "name": "tokenId",
          "type": "uint256"
        },
        {
          "internalType": "string",
          "name": "tag",
          "type": "string"
        }
      ],
      "name": "searchFilesByTag",
      "outputs": [
        {
          "components": [
            {
              "internalType": "string",
              "name": "cid",
              "type": "string"
            },
            {
              "internalType": "string",
              "name": "filename",
              "type": "string"
            },
            {
              "internalType": "uint256",
              "name": "timestamp",
              "type": "uint256"
            },
            {
              "internalType": "address",
              "name": "owner",
              "type": "address"
            },
            {
              "internalType": "string[]",
              "name": "tags",
              "type": "string[]"
            }
          ],
          "internalType": "struct FolderNFT.FileEntry[]",
          "name": "",
          "type": "tuple[]"
        }
      ],
      "stateMutability": "nonpayable",
      "type": "function"
    },
    {
      "inputs": [
        {
          "internalType": "uint256[]",
          "name": "folderIds",
          "type": "uint256[]"
        },
        {
          "internalType": "string",
          "name": "tag",
          "type": "string"
        }
      ],
      "name": "searchFilesByTagAcrossFolders",
      "outputs": [
        {
          "components": [
            {
              "internalType": "string",
              "name": "cid",
              "type": "string"
            },
            {
              "internalType": "string",
              "name": "filename",
              "type": "string"
            },
            {
              "internalType": "uint256",
              "name": "timestamp",
              "type": "uint256"
            },
            {
              "internalType": "address",
              "name": "owner",
              "type": "address"
            },
            {
              "internalType": "string[]",
              "name": "tags",
              "type": "string[]"
            }
          ],
          "internalType": "struct FolderNFT.FileEntry[]",
          "name": "",
          "type": "tuple[]"
        }
      ],
      "stateMutability": "view",
      "type": "function"
    },
    {
      "inputs": [
        {
          "internalType": "string",
          "name": "tag",
          "type": "string"
        }
      ],
      "name": "searchMyFilesByTag",
      "outputs": [
        {
          "components": [
            {
              "internalType": "string",
              "name": "cid",
              "type": "string"
            },
            {
              "internalType": "string",
              "name": "filename",
              "type": "string"
            },
            {
              "internalType": "uint256",
              "name": "timestamp",
              "type": "uint256"
            },
            {
              "internalType": "address",
              "name": "owner",
              "type": "address"
            },
            {
              "internalType": "string[]",
              "name": "tags",
              "type": "string[]"
            }
          ],
          "internalType": "struct FolderNFT.FileEntry[]",
          "name": "",
          "type": "tuple[]"
        }
      ],
      "stateMutability": "view",
      "type": "function"
    },
    {
      "inputs": [
        {
          "internalType": "address",
          "name": "operator",
          "type": "address"
        },
        {
          "internalType": "bool",
          "name": "approved",
          "type": "bool"
        }
      ],
      "name": "setApprovalForAll",
      "outputs": [],
      "stateMutability": "nonpayable",
      "type": "function"
    },
    {
      "inputs": [
        {
          "internalType": "uint256",
          "name": "tokenId",
          "type": "uint256"
        },
        {
          "internalType": "bool",
          "name": "isPublic",
          "type": "bool"
        }
      ],
      "name": "setFolderPublic",
      "outputs": [],
      "stateMutability": "nonpayable",
      "type": "function"
    },
    {
      "inputs": [
        {
          "internalType": "uint256",
          "name": "tokenId",
          "type": "uint256"
        },
        {
          "internalType": "address",
          "name": "grantee",
          "type": "address"
        },
        {
          "internalType": "bool",
          "name": "canRead_",
          "type": "bool"
        },
        {
          "internalType": "bool",
          "name": "canWrite_",
          "type": "bool"
        }
      ],
      "name": "shareFolder",
      "outputs": [
        {
          "internalType": "uint256",
          "name": "",
          "type": "uint256"
        }
      ],
      "stateMutability": "nonpayable",
      "type": "function"
    },
    {
      "inputs": [
        {
          "internalType": "bytes4",
          "name": "interfaceId",
          "type": "bytes4"
        }
      ],
      "name": "supportsInterface",
      "outputs": [
        {
          "internalType": "bool",
          "name": "",
          "type": "bool"
        }
      ],
      "stateMutability": "view",
      "type": "function"
    },
    {
      "inputs": [],
      "name": "symbol",
      "outputs": [
        {
          "internalType": "string",
          "name": "",
          "type": "string"
        }
      ],
      "stateMutability": "view",
      "type": "function"
    },
    {
      "inputs": [
        {
          "internalType": "uint256",
          "name": "index",
          "type": "uint256"
        }
      ],
      "name": "tokenByIndex",
      "outputs": [
        {
          "internalType": "uint256",
          "name": "",
          "type": "uint256"
        }
      ],
      "stateMutability": "view",
      "type": "function"
    },
    {
      "inputs": [
        {
          "internalType": "address",
          "name": "owner",
          "type": "address"
        },
        {
          "internalType": "uint256",
          "name": "index",
          "type": "uint256"
        }
      ],
      "name": "tokenOfOwnerByIndex",
      "outputs": [
        {
          "internalType": "uint256",
          "name": "",
          "type": "uint256"
        }
      ],
      "stateMutability": "view",
      "type": "function"
    },
    {
      "inputs": [
        {
          "internalType": "uint256",
          "name": "tokenId",
          "type": "uint256"
        }
      ],
      "name": "tokenURI",
      "outputs": [
        {
          "internalType": "string",
          "name": "",
          "type": "string"
        }
      ],
      "stateMutability": "view",
      "type": "function"
    },
    {
      "inputs": [],
      "name": "totalSupply",
      "outputs": [
        {
          "internalType": "uint256",
          "name": "",
          "type": "uint256"
        }
      ],
      "stateMutability": "view",
      "type": "function"
    },
    {
      "inputs": [
        {
          "internalType": "address",
          "name": "from",
          "type": "address"
        },
        {
          "internalType": "address",
          "name": "to",
          "type": "address"
        },
        {
          "internalType": "uint256",
          "name": "tokenId",
          "type": "uint256"
        }
      ],
      "name": "transferFrom",
      "outputs": [],
      "stateMutability": "nonpayable",
      "type": "function"
    },
    {
      "inputs": [
        {
          "internalType": "address",
          "name": "newOwner",
          "type": "address"
        }
      ],
      "name": "transferOwnership",
      "outputs": [],
      "stateMutability": "nonpayable",
      "type": "function"
    }
  ],
  "bytecode": "0x60806040526001600e553480156200001657600080fd5b503360405180604001604052806009815260200168119bdb19195c93919560ba1b8152506040518060400160405280600381526020016223222960e91b8152508160009081620000679190620001b1565b506001620000768282620001b1565b5050506001600160a01b038116620000a857604051631e4fbdf760e01b81526000600482015260240160405180910390fd5b620000b381620000ba565b506200027d565b600a80546001600160a01b038381166001600160a01b0319831681179093556040519116919082907f8be0079c531659141344cd1fd0a4f28419497f9722a3daafe3b4186f6b6457e090600090a35050565b634e487b7160e01b600052604160045260246000fd5b600181811c908216806200013757607f821691505b6020821081036200015857634e487b7160e01b600052602260045260246000fd5b50919050565b601f821115620001ac57600081815260208120601f850160051c81016020861015620001875750805b601f850160051c820191505b81811015620001a85782815560010162000193565b5050505b505050565b81516001600160401b03811115620001cd57620001cd6200010c565b620001e581620001de845462000122565b846200015e565b602080601f8311600181146200021d5760008415620002045750858301515b600019600386901b1c1916600185901b178555620001a8565b600085815260208120601f198616915b828110156200024e578886015182559484019460019091019084016200022d565b50858210156200026d5787850151600019600388901b60f8161c191681555b5050505050600190811b01905550565b615a97806200028d6000396000f3fe608060405234801561001057600080fd5b50600436106102535760003560e01c806350f5eda111610146578063a22cb465116100c3578063cc334e3711610087578063cc334e3714610544578063d6dae36414610557578063db47cc631461056a578063e01b42171461057d578063e985e9c51461059d578063f2fde38b146105b057600080fd5b8063a22cb465146104d8578063b88d4fde146104eb578063c4e7ee4d146104fe578063c777ada21461051e578063c87b56dd1461053157600080fd5b8063761805e51161010a578063761805e5146104865780637cf1f53e146104995780638da5cb5b146104ac5780638e6ea4ef146104bd57806395d89b41146104d057600080fd5b806350f5eda1146104325780635fe1dec3146104455780636352211e1461045857806370a082311461046b578063715018a61461047e57600080fd5b8063299ef2f7116101d4578063446db1e011610198578063446db1e0146103de5780634afa7e53146103e65780634e6c3bbe146103f95780634f6ccce71461040c578063500387371461041f57600080fd5b8063299ef2f71461037f5780632f745c5914610392578063333c6438146103a55780633cd1f0f7146103b857806342842e0e146103cb57600080fd5b806312506f4d1161021b57806312506f4d146102f557806318160ddd146103155780631c321ea31461032757806323b872dd1461035957806328bde1d31461036c57600080fd5b806301ffc9a71461025857806306fdde0314610280578063081812fc14610295578063095ea7b3146102c05780630c0564d6146102d5575b600080fd5b61026b610266366004614d69565b6105c3565b60405190151581526020015b60405180910390f35b6102886105ee565b6040516102779190614dd6565b6102a86102a3366004614de9565b610680565b6040516001600160a01b039091168152602001610277565b6102d36102ce366004614e19565b6106a9565b005b6102e86102e3366004614e43565b6106b8565b6040516102779190614e5e565b610308610303366004614de9565b610759565b6040516102779190614ef7565b6008545b604051908152602001610277565b61033a610335366004614fb7565b610abf565b6040805193151584529115156020840152151590820152606001610277565b6102d3610367366004614fe3565b610b2b565b61030861037a366004615067565b610bb6565b6102d361038d3660046150ec565b6111a6565b6103196103a0366004614e19565b61142c565b6102e86103b3366004614e43565b611491565b61026b6103c6366004614fb7565b6115da565b6102d36103d9366004614fe3565b6116f1565b6102e8611711565b61026b6103f436600461518f565b6117ce565b61030861040736600461518f565b61187c565b61031961041a366004614de9565b611d5b565b6102d361042d366004614de9565b611db4565b6103196104403660046151da565b611f3f565b6102d361045336600461518f565b6120ce565b6102a8610466366004614de9565b6124b0565b610319610479366004614e43565b6124bb565b6102d3612503565b610319610494366004614de9565b612517565b6103196104a7366004615255565b61259b565b600a546001600160a01b03166102a8565b6103086104cb3660046152a2565b612740565b610288612ce5565b6102d36104e63660046152db565b612cf4565b6102d36104f93660046153a2565b612cff565b61051161050c366004614de9565b612d17565b604051610277919061541d565b61026b61052c366004614fb7565b612eef565b61028861053f366004614de9565b612fd9565b61030861055236600461548b565b61304e565b6102d36105653660046154c9565b613589565b6102d361057836600461550f565b6139fe565b61059061058b366004614de9565b613ab5565b6040516102779190615532565b61026b6105ab366004615545565b613fa8565b6102d36105be366004614e43565b613fd6565b60006001600160e01b0319821663780e9d6360e01b14806105e857506105e882614014565b92915050565b6060600080546105fd9061556f565b80601f01602080910402602001604051908101604052809291908181526020018280546106299061556f565b80156106765780601f1061064b57610100808354040283529160200191610676565b820191906000526020600020905b81548152906001019060200180831161065957829003601f168201915b5050505050905090565b600061068b82614064565b506000828152600460205260409020546001600160a01b03166105e8565b6106b482823361409d565b5050565b606060006106c5836124bb565b90506000816001600160401b038111156106e1576106e1615305565b60405190808252806020026020018201604052801561070a578160200160208202803683370190505b50905060005b8281101561075157610722858261142c565b828281518110610734576107346155a9565b602090810291909101015280610749816155d5565b915050610710565b509392505050565b606061076582336115da565b8061078157506000828152600d602052604090206002015460ff165b6107a65760405162461bcd60e51b815260040161079d906155ee565b60405180910390fd5b6000828152600b602052604081206107bd906140aa565b90506000816001600160401b038111156107d9576107d9615305565b60405190808252806020026020018201604052801561081257816020015b6107ff614c3f565b8152602001906001900390816107f75790505b50905060005b82811015610751576000858152600b6020526040812061083890836140b4565b9050600c60008281526020019081526020016000206040518060a00160405290816000820180546108689061556f565b80601f01602080910402602001604051908101604052809291908181526020018280546108949061556f565b80156108e15780601f106108b6576101008083540402835291602001916108e1565b820191906000526020600020905b8154815290600101906020018083116108c457829003601f168201915b505050505081526020016001820180546108fa9061556f565b80601f01602080910402602001604051908101604052809291908181526020018280546109269061556f565b80156109735780601f1061094857610100808354040283529160200191610973565b820191906000526020600020905b81548152906001019060200180831161095657829003601f168201915b50505050508152602001600282015481526020016003820160009054906101000a90046001600160a01b03166001600160a01b03166001600160a01b0316815260200160048201805480602002602001604051908101604052809291908181526020016000905b82821015610a865783829060005260206000200180546109f99061556f565b80601f0160208091040260200160405190810160405280929190818152602001828054610a259061556f565b8015610a725780601f10610a4757610100808354040283529160200191610a72565b820191906000526020600020905b815481529060010190602001808311610a5557829003601f168201915b5050505050815260200190600101906109da565b5050505081525050838381518110610aa057610aa06155a9565b6020026020010181905250508080610ab7906155d5565b915050610818565b6000806000610acd856140c0565b610aed57604051637399e49160e01b81526004810186905260240161079d565b836001600160a01b0316610b00866124b0565b6001600160a01b0316149050610b1685856115da565b9250610b228585612eef565b91509250925092565b6001600160a01b038216610b5557604051633250574960e11b81526000600482015260240161079d565b6000610b628383336140dd565b9050836001600160a01b0316816001600160a01b031614610bb0576040516364283d7b60e01b81526001600160a01b038086166004830152602482018490528216604482015260640161079d565b50505050565b60606000610bc3336124bb565b90506000816001600160401b03811115610bdf57610bdf615305565b604051908082528060200260200182016040528015610c08578160200160208202803683370190505b50905060005b82811015610c4f57610c20338261142c565b828281518110610c3257610c326155a9565b602090810291909101015280610c47816155d5565b915050610c0e565b506000805b8251811015610cc0576000838281518110610c7157610c716155a9565b60200260200101519050610c84816140c0565b15610cad576000818152600b60205260409020610ca0906140aa565b610caa9084615614565b92505b5080610cb8816155d5565b915050610c54565b506000816001600160401b03811115610cdb57610cdb615305565b604051908082528060200260200182016040528015610d1457816020015b610d01614c3f565b815260200190600190039081610cf95790505b5090506000805b84518110156110ed576000858281518110610d3857610d386155a9565b60200260200101519050610d4b816140c0565b610d5557506110db565b6000818152600b60205260408120610d6c906140aa565b905060005b818110156110d7576000838152600b60205260408120610d9190836140b4565b90506000600c60008381526020019081526020016000206040518060a0016040529081600082018054610dc39061556f565b80601f0160208091040260200160405190810160405280929190818152602001828054610def9061556f565b8015610e3c5780601f10610e1157610100808354040283529160200191610e3c565b820191906000526020600020905b815481529060010190602001808311610e1f57829003601f168201915b50505050508152602001600182018054610e559061556f565b80601f0160208091040260200160405190810160405280929190818152602001828054610e819061556f565b8015610ece5780601f10610ea357610100808354040283529160200191610ece565b820191906000526020600020905b815481529060010190602001808311610eb157829003601f168201915b50505050508152602001600282015481526020016003820160009054906101000a90046001600160a01b03166001600160a01b03166001600160a01b0316815260200160048201805480602002602001604051908101604052809291908181526020016000905b82821015610fe1578382906000526020600020018054610f549061556f565b80601f0160208091040260200160405190810160405280929190818152602001828054610f809061556f565b8015610fcd5780601f10610fa257610100808354040283529160200191610fcd565b820191906000526020600020905b815481529060010190602001808311610fb057829003601f168201915b505050505081526020019060010190610f35565b5050505081525050905061102b818f8f8080601f0160208091040260200160405190810160405280939291908181526020018383808284376000920191909152506141b292505050565b156110c2576000805b8881101561108d578260000151805190602001208a828151811061105a5761105a6155a9565b602002602001015160000151805190602001200361107b576001915061108d565b80611085816155d5565b915050611034565b50806110c057818989815181106110a6576110a66155a9565b602002602001018190525087806110bc906155d5565b9850505b505b505080806110cf906155d5565b915050610d71565b5050505b806110e5816155d5565b915050610d1b565b506000816001600160401b0381111561110857611108615305565b60405190808252806020026020018201604052801561114157816020015b61112e614c3f565b8152602001906001900390816111265790505b50905060005b8281101561119957838181518110611161576111616155a9565b602002602001015182828151811061117b5761117b6155a9565b60200260200101819052508080611191906155d5565b915050611147565b5098975050505050505050565b6111af876140c0565b6111cf57604051637399e49160e01b81526004810188905260240161079d565b6111d98733612eef565b6111f957604051633907167960e21b81526004810188905260240161079d565b600085900361121e57858560405162caca1560e41b815260040161079d929190615650565b60008686604051611230929190615664565b604080519182900390912060008a8152600b602052919091209091506112569082614213565b156112a35760405162461bcd60e51b815260206004820152601d60248201527f46696c6520616c72656164792065786973747320696e20666f6c646572000000604482015260640161079d565b6040518060a0016040528088888080601f016020809104026020016040519081016040528093929190818152602001838380828437600092019190915250505090825250604080516020601f89018190048102820181019092528781529181019190889088908190840183828082843760009201919091525050509082525042602082015233604082015260600161133b8486615674565b90526000828152600c60205260409020815181906113599082615751565b506020820151600182019061136e9082615751565b506040820151600282015560608201516003820180546001600160a01b0319166001600160a01b03909216919091179055608082015180516113ba916004840191602090910190614c77565b5050506000888152600b602052604090206113d5908261422b565b50336001600160a01b0316887f0708d075a28932b89a86495f1fb44a424539de915441c627a57bc2936de888f289898989898960405161141a96959493929190615810565b60405180910390a35050505050505050565b6000611437836124bb565b82106114685760405163295f44f760e21b81526001600160a01b03841660048201526024810183905260440161079d565b506001600160a01b03919091166000908152600660209081526040808320938352929052205490565b6001600160a01b03811660009081526010602052604081208054606092906001600160401b038111156114c6576114c6615305565b6040519080825280602002602001820160405280156114ef578160200160208202803683370190505b5090506000805b83548110156115d0576000600f6000868481548110611517576115176155a9565b90600052602060002001548152602001908152602001600020905080600001546000146115bd576000805b84811015611589578260000154868281518110611561576115616155a9565b6020026020010151036115775760019150611589565b80611581816155d5565b915050611542565b50806115bb578154858561159c816155d5565b9650815181106115ae576115ae6155a9565b6020026020010181815250505b505b50806115c8816155d5565b9150506114f6565b5081529392505050565b60006115e5836140c0565b61160557604051637399e49160e01b81526004810184905260240161079d565b6000838152600d602052604090206002015460ff1615611627575060016105e8565b816001600160a01b031661163a846124b0565b6001600160a01b031603611650575060016105e8565b6001600160a01b0382166000908152601060205260408120905b81548110156116e6576000600f600084848154811061168b5761168b6155a9565b9060005260206000200154815260200190815260200160002090508581600001541480156116c457506001810154600160a01b900460ff165b156116d557600193505050506105e8565b506116df816155d5565b905061166a565b506000949350505050565b61170c83838360405180602001604052806000815250612cff565b505050565b6060600061171e60085490565b6001600160401b0381111561173557611735615305565b60405190808252806020026020018201604052801561175e578160200160208202803683370190505b509050600060015b60085481116117c6576000818152600d602052604090206002015460ff16156117b457808383611795816155d5565b9450815181106117a7576117a76155a9565b6020026020010181815250505b806117be816155d5565b915050611766565b508152919050565b60006117d9846140c0565b6117f957604051637399e49160e01b81526004810185905260240161079d565b61180384336115da565b8061181f57506000848152600d602052604090206002015460ff165b61183b5760405162461bcd60e51b815260040161079d906155ee565b6000838360405161184d929190615664565b60408051918290039091206000878152600b602052919091209091506118739082614213565b95945050505050565b6060611887846140c0565b6118a757604051637399e49160e01b81526004810185905260240161079d565b6118b184336115da565b806118cd57506000848152600d602052604090206002015460ff165b6118e95760405162461bcd60e51b815260040161079d906155ee565b6000848152600b60205260408120611900906140aa565b90506000816001600160401b0381111561191c5761191c615305565b60405190808252806020026020018201604052801561195557816020015b611942614c3f565b81526020019060019003908161193a5790505b5090506000805b83811015611c5d576000888152600b6020526040812061197c90836140b4565b90506000600c60008381526020019081526020016000206040518060a00160405290816000820180546119ae9061556f565b80601f01602080910402602001604051908101604052809291908181526020018280546119da9061556f565b8015611a275780601f106119fc57610100808354040283529160200191611a27565b820191906000526020600020905b815481529060010190602001808311611a0a57829003601f168201915b50505050508152602001600182018054611a409061556f565b80601f0160208091040260200160405190810160405280929190818152602001828054611a6c9061556f565b8015611ab95780601f10611a8e57610100808354040283529160200191611ab9565b820191906000526020600020905b815481529060010190602001808311611a9c57829003601f168201915b50505050508152602001600282015481526020016003820160009054906101000a90046001600160a01b03166001600160a01b03166001600160a01b0316815260200160048201805480602002602001604051908101604052809291908181526020016000905b82821015611bcc578382906000526020600020018054611b3f9061556f565b80601f0160208091040260200160405190810160405280929190818152602001828054611b6b9061556f565b8015611bb85780601f10611b8d57610100808354040283529160200191611bb8565b820191906000526020600020905b815481529060010190602001808311611b9b57829003601f168201915b505050505081526020019060010190611b20565b50505050815250509050611c16818a8a8080601f0160208091040260200160405190810160405280939291908181526020018383808284376000920191909152506141b292505050565b15611c485780858581518110611c2e57611c2e6155a9565b60200260200101819052508380611c44906155d5565b9450505b50508080611c55906155d5565b91505061195c565b506000816001600160401b03811115611c7857611c78615305565b604051908082528060200260200182016040528015611cb157816020015b611c9e614c3f565b815260200190600190039081611c965790505b50905060005b82811015611d0957838181518110611cd157611cd16155a9565b6020026020010151828281518110611ceb57611ceb6155a9565b60200260200101819052508080611d01906155d5565b915050611cb7565b5087336001600160a01b03167f9b1c441ad9f47b62e532c79b3794fa85444c1a503346a65cd85501508cd2bc65898986604051611d48939291906158d6565b60405180910390a3979650505050505050565b6000611d6660085490565b8210611d8f5760405163295f44f760e21b8152600060048201526024810183905260440161079d565b60088281548110611da257611da26155a9565b90600052602060002001549050919050565b6000818152600f602052604081208054909103611de757604051635e308a3760e01b81526004810183905260240161079d565b80543390611df4906124b0565b6001600160a01b031614611e1e576040516336e7a3d960e11b81526004810183905260240161079d565b60018101546001600160a01b03166000908152601060205260408120905b8154811015611ef05783828281548110611e5857611e586155a9565b906000526020600020015403611ede5781548290611e78906001906158fa565b81548110611e8857611e886155a9565b9060005260206000200154828281548110611ea557611ea56155a9565b906000526020600020018190555081805480611ec357611ec361590d565b60019003818190600052602060002001600090559055611ef0565b80611ee8816155d5565b915050611e3c565b506000838152600f602052604080822082815560010180546001600160b01b03191690555184917f8c5a6faf8dae8a30a56c22fbcb6e105d3d45c9abfbf62015d17366f59a2ffda491a2505050565b60003381611f4c60085490565b611f57906001615614565b9050611f638282614237565b6040518060a0016040528088888080601f016020809104026020016040519081016040528093929190818152602001838380828437600092019190915250505090825250604080516020601f890181900481028201810190925287815291810191908890889081908401838280828437600092018290525093855250505060208083018290526001600160a01b03861660408085019190915242606090940193909352848252600d9052208151819061201c9082615751565b50602082015160018201906120319082615751565b5060408281015160028301805460608601516001600160a81b0319909116921515610100600160a81b031916929092176101006001600160a01b0393841602179055608090930151600390920191909155519083169082907f90bddb5884aa47cbefb24cf96e29bcd7daa1b02fe38a55ef02ff51197cb6d2d3906120bc908b908b908b908b90615923565b60405180910390a39695505050505050565b6120d7836140c0565b6120f757604051637399e49160e01b81526004810184905260240161079d565b6121018333612eef565b61212157604051633907167960e21b81526004810184905260240161079d565b60008282604051612133929190615664565b60408051918290039091206000868152600b602052919091209091506121599082614213565b6121a55760405162461bcd60e51b815260206004820152601860248201527f46696c65206e6f7420666f756e6420696e20666f6c6465720000000000000000604482015260640161079d565b6000818152600c6020526040808220815160a081019092528054829082906121cc9061556f565b80601f01602080910402602001604051908101604052809291908181526020018280546121f89061556f565b80156122455780601f1061221a57610100808354040283529160200191612245565b820191906000526020600020905b81548152906001019060200180831161222857829003601f168201915b5050505050815260200160018201805461225e9061556f565b80601f016020809104026020016040519081016040528092919081815260200182805461228a9061556f565b80156122d75780601f106122ac576101008083540402835291602001916122d7565b820191906000526020600020905b8154815290600101906020018083116122ba57829003601f168201915b50505050508152602001600282015481526020016003820160009054906101000a90046001600160a01b03166001600160a01b03166001600160a01b0316815260200160048201805480602002602001604051908101604052809291908181526020016000905b828210156123ea57838290600052602060002001805461235d9061556f565b80601f01602080910402602001604051908101604052809291908181526020018280546123899061556f565b80156123d65780601f106123ab576101008083540402835291602001916123d6565b820191906000526020600020905b8154815290600101906020018083116123b957829003601f168201915b50505050508152602001906001019061233e565b505050915250506000868152600b6020526040902090915061240c9083614251565b506000828152600c60205260408120906124268282614ccd565b612434600183016000614ccd565b6000600283018190556003830180546001600160a01b031916905561245d906004840190614d07565b5050336001600160a01b0316857f20c80d94f2726b1b4ec74bb63f2096894561f559edc7d7c0d18dff2387448012868685602001516040516124a193929190615955565b60405180910390a35050505050565b60006105e882614064565b60006001600160a01b0382166124e7576040516322718ad960e21b81526000600482015260240161079d565b506001600160a01b031660009081526003602052604090205490565b61250b61425d565b612515600061428a565b565b6000612522826140c0565b61254257604051637399e49160e01b81526004810183905260240161079d565b61254c82336115da565b8061256857506000828152600d602052604090206002015460ff165b6125845760405162461bcd60e51b815260040161079d906155ee565b6000828152600b602052604090206105e8906140aa565b60006125a6856140c0565b6125c657604051637399e49160e01b81526004810186905260240161079d565b336125d0866124b0565b6001600160a01b0316146125fa57604051633907167960e21b81526004810186905260240161079d565b6001600160a01b0384166126425760405162461bcd60e51b815260206004820152600f60248201526e496e76616c6964206772616e74656560881b604482015260640161079d565b600e805460009182612653836155d5565b90915550604080516080810182528881526001600160a01b0388811660208084018281528a15158587018181528b15156060880181815260008b8152600f87528a812099518a5594516001998a018054945192511515600160a81b0260ff60a81b19931515600160a01b026001600160a81b031990961692909a1691909117939093171696909617905583825260108352868220805496870181558252908290209094018690558451938452830191909152929350889184917fed6133e45d92afaf23ed76b65a2d239187b039cc66dcf993242e99210f6b1d9e910160405180910390a495945050505050565b60606000805b858110156127dd576000878783818110612762576127626155a9565b905060200201359050612774816140c0565b80156127a1575061278581336115da565b806127a157506000818152600d602052604090206002015460ff165b156127ca576000818152600b602052604090206127bd906140aa565b6127c79084615614565b92505b50806127d5816155d5565b915050612746565b506000816001600160401b038111156127f8576127f8615305565b60405190808252806020026020018201604052801561283157816020015b61281e614c3f565b8152602001906001900390816128165790505b5090506000805b87811015612c39576000898983818110612854576128546155a9565b905060200201359050612866816140c0565b1580612896575061287781336115da565b15801561289657506000818152600d602052604090206002015460ff16155b156128a15750612c27565b6000818152600b602052604081206128b8906140aa565b905060005b81811015612c23576000838152600b602052604081206128dd90836140b4565b90506000600c60008381526020019081526020016000206040518060a001604052908160008201805461290f9061556f565b80601f016020809104026020016040519081016040528092919081815260200182805461293b9061556f565b80156129885780601f1061295d57610100808354040283529160200191612988565b820191906000526020600020905b81548152906001019060200180831161296b57829003601f168201915b505050505081526020016001820180546129a19061556f565b80601f01602080910402602001604051908101604052809291908181526020018280546129cd9061556f565b8015612a1a5780601f106129ef57610100808354040283529160200191612a1a565b820191906000526020600020905b8154815290600101906020018083116129fd57829003601f168201915b50505050508152602001600282015481526020016003820160009054906101000a90046001600160a01b03166001600160a01b03166001600160a01b0316815260200160048201805480602002602001604051908101604052809291908181526020016000905b82821015612b2d578382906000526020600020018054612aa09061556f565b80601f0160208091040260200160405190810160405280929190818152602001828054612acc9061556f565b8015612b195780601f10612aee57610100808354040283529160200191612b19565b820191906000526020600020905b815481529060010190602001808311612afc57829003601f168201915b505050505081526020019060010190612a81565b50505050815250509050612b77818d8d8080601f0160208091040260200160405190810160405280939291908181526020018383808284376000920191909152506141b292505050565b15612c0e576000805b88811015612bd9578260000151805190602001208a8281518110612ba657612ba66155a9565b6020026020010151600001518051906020012003612bc75760019150612bd9565b80612bd1816155d5565b915050612b80565b5080612c0c5781898981518110612bf257612bf26155a9565b60200260200101819052508780612c08906155d5565b9850505b505b50508080612c1b906155d5565b9150506128bd565b5050505b80612c31816155d5565b915050612838565b506000816001600160401b03811115612c5457612c54615305565b604051908082528060200260200182016040528015612c8d57816020015b612c7a614c3f565b815260200190600190039081612c725790505b50905060005b8281101561119957838181518110612cad57612cad6155a9565b6020026020010151828281518110612cc757612cc76155a9565b60200260200101819052508080612cdd906155d5565b915050612c93565b6060600180546105fd9061556f565b6106b43383836142dc565b612d0a848484610b2b565b610bb0338585858561437b565b612d546040518060a00160405280606081526020016060815260200160001515815260200160006001600160a01b03168152602001600081525090565b612d5d826140c0565b612d7d57604051637399e49160e01b81526004810183905260240161079d565b6000828152600d602052604090819020815160a08101909252805482908290612da59061556f565b80601f0160208091040260200160405190810160405280929190818152602001828054612dd19061556f565b8015612e1e5780601f10612df357610100808354040283529160200191612e1e565b820191906000526020600020905b815481529060010190602001808311612e0157829003601f168201915b50505050508152602001600182018054612e379061556f565b80601f0160208091040260200160405190810160405280929190818152602001828054612e639061556f565b8015612eb05780601f10612e8557610100808354040283529160200191612eb0565b820191906000526020600020905b815481529060010190602001808311612e9357829003601f168201915b5050509183525050600282015460ff81161515602083015261010090046001600160a01b0316604082015260039091015460609091015290505b919050565b6000612efa836140c0565b612f1a57604051637399e49160e01b81526004810184905260240161079d565b816001600160a01b0316612f2d846124b0565b6001600160a01b031603612f43575060016105e8565b6001600160a01b0382166000908152601060205260408120905b81548110156116e6576000600f6000848481548110612f7e57612f7e6155a9565b906000526020600020015481526020019081526020016000209050858160000154148015612fb757506001810154600160a81b900460ff165b15612fc857600193505050506105e8565b50612fd2816155d5565b9050612f5d565b6060612fe482614064565b506000612ffc60408051602081019091526000815290565b9050600081511161301c5760405180602001604052806000815250613047565b80613026846144a6565b604051602001613037929190615985565b6040516020818303038152906040525b9392505050565b6060613059846140c0565b61307957604051637399e49160e01b81526004810185905260240161079d565b61308384336115da565b8061309f57506000848152600d602052604090206002015460ff165b6130bb5760405162461bcd60e51b815260040161079d906155ee565b6000848152600b602052604081206130d2906140aa565b90506000816001600160401b038111156130ee576130ee615305565b60405190808252806020026020018201604052801561312757816020015b613114614c3f565b81526020019060019003908161310c5790505b5090506000805b83811015613481576000888152600b6020526040812061314e90836140b4565b90506000600c60008381526020019081526020016000206040518060a00160405290816000820180546131809061556f565b80601f01602080910402602001604051908101604052809291908181526020018280546131ac9061556f565b80156131f95780601f106131ce576101008083540402835291602001916131f9565b820191906000526020600020905b8154815290600101906020018083116131dc57829003601f168201915b505050505081526020016001820180546132129061556f565b80601f016020809104026020016040519081016040528092919081815260200182805461323e9061556f565b801561328b5780601f106132605761010080835404028352916020019161328b565b820191906000526020600020905b81548152906001019060200180831161326e57829003601f168201915b50505050508152602001600282015481526020016003820160009054906101000a90046001600160a01b03166001600160a01b03166001600160a01b0316815260200160048201805480602002602001604051908101604052809291908181526020016000905b8282101561339e5783829060005260206000200180546133119061556f565b80601f016020809104026020016040519081016040528092919081815260200182805461333d9061556f565b801561338a5780601f1061335f5761010080835404028352916020019161338a565b820191906000526020600020905b81548152906001019060200180831161336d57829003601f168201915b5050505050815260200190600101906132f2565b5050509152509091506001905060005b8981101561343757613418838c8c848181106133cc576133cc6155a9565b90506020028101906133de91906159b4565b8080601f0160208091040260200160405190810160405280939291908181526020018383808284376000920191909152506141b292505050565b6134255760009150613437565b8061342f816155d5565b9150506133ae565b50801561346b5781868681518110613451576134516155a9565b60200260200101819052508480613467906155d5565b9550505b5050508080613479906155d5565b91505061312e565b506000816001600160401b0381111561349c5761349c615305565b6040519080825280602002602001820160405280156134d557816020015b6134c2614c3f565b8152602001906001900390816134ba5790505b50905060005b8281101561352d578381815181106134f5576134f56155a9565b602002602001015182828151811061350f5761350f6155a9565b60200260200101819052508080613525906155d5565b9150506134db565b5060408051818152600d918101919091526c6d756c7469706c652d7461677360981b606082015260208101839052889033907f9b1c441ad9f47b62e532c79b3794fa85444c1a503346a65cd85501508cd2bc6590608001611d48565b613592846140c0565b6135b257604051637399e49160e01b81526004810185905260240161079d565b6135bb836140c0565b6135db57604051637399e49160e01b81526004810184905260240161079d565b6135e58433612eef565b61360557604051633907167960e21b81526004810185905260240161079d565b61360f8333612eef565b61362f57604051633907167960e21b81526004810184905260240161079d565b60008282604051613641929190615664565b60408051918290039091206000878152600b602052919091209091506136679082614213565b6136b35760405162461bcd60e51b815260206004820152601f60248201527f46696c65206e6f7420666f756e6420696e20736f7572636520666f6c64657200604482015260640161079d565b6000848152600b602052604090206136cb9082614213565b1561372a5760405162461bcd60e51b815260206004820152602960248201527f46696c6520616c72656164792065786973747320696e2064657374696e61746960448201526837b7103337b63232b960b91b606482015260840161079d565b6000818152600c6020526040808220815160a081019092528054829082906137519061556f565b80601f016020809104026020016040519081016040528092919081815260200182805461377d9061556f565b80156137ca5780601f1061379f576101008083540402835291602001916137ca565b820191906000526020600020905b8154815290600101906020018083116137ad57829003601f168201915b505050505081526020016001820180546137e39061556f565b80601f016020809104026020016040519081016040528092919081815260200182805461380f9061556f565b801561385c5780601f106138315761010080835404028352916020019161385c565b820191906000526020600020905b81548152906001019060200180831161383f57829003601f168201915b50505050508152602001600282015481526020016003820160009054906101000a90046001600160a01b03166001600160a01b03166001600160a01b0316815260200160048201805480602002602001604051908101604052809291908181526020016000905b8282101561396f5783829060005260206000200180546138e29061556f565b80601f016020809104026020016040519081016040528092919081815260200182805461390e9061556f565b801561395b5780601f106139305761010080835404028352916020019161395b565b820191906000526020600020905b81548152906001019060200180831161393e57829003601f168201915b5050505050815260200190600101906138c3565b505050915250506000878152600b602052604090209091506139919083614251565b506000858152600b602052604090206139aa908361422b565b50336001600160a01b031685877f6e5df78c414fd81e8f18eaa4771ece772cb2fa0713d18c039a23be9c0cb51203878786602001516040516139ee93929190615955565b60405180910390a4505050505050565b613a07826140c0565b613a2757604051637399e49160e01b81526004810183905260240161079d565b33613a31836124b0565b6001600160a01b031614613a5b57604051633907167960e21b81526004810183905260240161079d565b6000828152600d6020908152604091829020600201805460ff1916841515908117909155915191825283917ff473ca6c6c330ce0e937d075ca2c506af1927f94387452786dab4a6b16e16e19910160405180910390a25050565b6060613ac0826140c0565b613ae057604051637399e49160e01b81526004810183905260240161079d565b613aea82336115da565b80613b0657506000828152600d602052604090206002015460ff165b613b225760405162461bcd60e51b815260040161079d906155ee565b6000828152600b60205260408120613b39906140aa565b90506000613b4882600a6159fa565b6001600160401b03811115613b5f57613b5f615305565b604051908082528060200260200182016040528015613b9257816020015b6060815260200190600190039081613b7d5790505b5090506000805b83811015613ef8576000868152600b60205260408120613bb990836140b4565b90506000600c60008381526020019081526020016000206040518060a0016040529081600082018054613beb9061556f565b80601f0160208091040260200160405190810160405280929190818152602001828054613c179061556f565b8015613c645780601f10613c3957610100808354040283529160200191613c64565b820191906000526020600020905b815481529060010190602001808311613c4757829003601f168201915b50505050508152602001600182018054613c7d9061556f565b80601f0160208091040260200160405190810160405280929190818152602001828054613ca99061556f565b8015613cf65780601f10613ccb57610100808354040283529160200191613cf6565b820191906000526020600020905b815481529060010190602001808311613cd957829003601f168201915b50505050508152602001600282015481526020016003820160009054906101000a90046001600160a01b03166001600160a01b03166001600160a01b0316815260200160048201805480602002602001604051908101604052809291908181526020016000905b82821015613e09578382906000526020600020018054613d7c9061556f565b80601f0160208091040260200160405190810160405280929190818152602001828054613da89061556f565b8015613df55780601f10613dca57610100808354040283529160200191613df5565b820191906000526020600020905b815481529060010190602001808311613dd857829003601f168201915b505050505081526020019060010190613d5d565b5050505081525050905060005b816080015151811015613ee257600082608001518281518110613e3b57613e3b6155a9565b602002602001015190506000805b87811015613e9a578280519060200120898281518110613e6b57613e6b6155a9565b60200260200101518051906020012003613e885760019150613e9a565b80613e92816155d5565b915050613e49565b5080613ecd5781888881518110613eb357613eb36155a9565b60200260200101819052508680613ec9906155d5565b9750505b50508080613eda906155d5565b915050613e16565b5050508080613ef0906155d5565b915050613b99565b506000816001600160401b03811115613f1357613f13615305565b604051908082528060200260200182016040528015613f4657816020015b6060815260200190600190039081613f315790505b50905060005b82811015613f9e57838181518110613f6657613f666155a9565b6020026020010151828281518110613f8057613f806155a9565b60200260200101819052508080613f96906155d5565b915050613f4c565b5095945050505050565b6001600160a01b03918216600090815260056020908152604080832093909416825291909152205460ff1690565b613fde61425d565b6001600160a01b03811661400857604051631e4fbdf760e01b81526000600482015260240161079d565b6140118161428a565b50565b60006001600160e01b031982166380ac58cd60e01b148061404557506001600160e01b03198216635b5e139f60e01b145b806105e857506301ffc9a760e01b6001600160e01b03198316146105e8565b6000818152600260205260408120546001600160a01b0316806105e857604051637e27328960e01b81526004810184905260240161079d565b61170c8383836001614538565b60006105e8825490565b6000613047838361463e565b6000908152600260205260409020546001600160a01b0316151590565b6000806140eb858585614668565b90506001600160a01b0381166141485761414384600880546000838152600960205260408120829055600182018355919091527ff3f7a9fe364faab93b216da50a3214154f22a0a2b415b23a84c8169e8b636ee30155565b61416b565b846001600160a01b0316816001600160a01b03161461416b5761416b8185614761565b6001600160a01b03851661418757614182846147e2565b6141aa565b846001600160a01b0316816001600160a01b0316146141aa576141aa8585614891565b949350505050565b80516020820120600090815b8460800151518110156116e65781856080015182815181106141e2576141e26155a9565b60200260200101518051906020012003614201576001925050506105e8565b8061420b816155d5565b9150506141be565b60008181526001830160205260408120541515613047565b600061304783836148e1565b6106b4828260405180602001604052806000815250614930565b60006130478383614948565b600a546001600160a01b031633146125155760405163118cdaa760e01b815233600482015260240161079d565b600a80546001600160a01b038381166001600160a01b0319831681179093556040519116919082907f8be0079c531659141344cd1fd0a4f28419497f9722a3daafe3b4186f6b6457e090600090a35050565b6001600160a01b03821661430e57604051630b61174360e31b81526001600160a01b038316600482015260240161079d565b6001600160a01b03838116600081815260056020908152604080832094871680845294825291829020805460ff191686151590811790915591519182527f17307eab39ab6107e8899845ad3d59bd9653f200f220920489ca2b5937696c31910160405180910390a3505050565b6001600160a01b0383163b1561449f57604051630a85bd0160e11b81526001600160a01b0384169063150b7a02906143bd908890889087908790600401615a11565b6020604051808303816000875af19250505080156143f8575060408051601f3d908101601f191682019092526143f591810190615a44565b60015b614461573d808015614426576040519150601f19603f3d011682016040523d82523d6000602084013e61442b565b606091505b50805160000361445957604051633250574960e11b81526001600160a01b038516600482015260240161079d565b805181602001fd5b6001600160e01b03198116630a85bd0160e11b1461449d57604051633250574960e11b81526001600160a01b038516600482015260240161079d565b505b5050505050565b606060006144b383614a3b565b60010190506000816001600160401b038111156144d2576144d2615305565b6040519080825280601f01601f1916602001820160405280156144fc576020820181803683370190505b5090508181016020015b600019016f181899199a1a9b1b9c1cb0b131b232b360811b600a86061a8153600a850494508461450657509392505050565b808061454c57506001600160a01b03821615155b1561460e57600061455c84614064565b90506001600160a01b038316158015906145885750826001600160a01b0316816001600160a01b031614155b801561459b57506145998184613fa8565b155b156145c45760405163a9fbf51f60e01b81526001600160a01b038416600482015260240161079d565b811561460c5783856001600160a01b0316826001600160a01b03167f8c5be1e5ebec7d5bd14f71427d1e84f3dd0314c0f7b2291e5b200ac8c7c3b92560405160405180910390a45b505b5050600090815260046020526040902080546001600160a01b0319166001600160a01b0392909216919091179055565b6000826000018281548110614655576146556155a9565b9060005260206000200154905092915050565b6000828152600260205260408120546001600160a01b039081169083161561469557614695818486614b13565b6001600160a01b038116156146d3576146b2600085600080614538565b6001600160a01b038116600090815260036020526040902080546000190190555b6001600160a01b03851615614702576001600160a01b0385166000908152600360205260409020805460010190555b60008481526002602052604080822080546001600160a01b0319166001600160a01b0389811691821790925591518793918516917fddf252ad1be2c89b69c2b068fc378daa952ba7f163c4a11628f55a4df523b3ef91a4949350505050565b600061476c836124bb565b6000838152600760209081526040808320546001600160a01b03881684526006909252909120919250908183146147c357600083815260208281526040808320548584528184208190558352600790915290208290555b6000938452600760209081526040808620869055938552525081205550565b6008546000906147f4906001906158fa565b6000838152600960205260408120546008805493945090928490811061481c5761481c6155a9565b90600052602060002001549050806008838154811061483d5761483d6155a9565b60009182526020808320909101929092558281526009909152604080822084905585825281205560088054806148755761487561590d565b6001900381819060005260206000200160009055905550505050565b6000600161489e846124bb565b6148a891906158fa565b6001600160a01b039093166000908152600660209081526040808320868452825280832085905593825260079052919091209190915550565b6000818152600183016020526040812054614928575081546001818101845560008481526020808220909301849055845484825282860190935260409020919091556105e8565b5060006105e8565b61493a8383614b77565b61170c33600085858561437b565b60008181526001830160205260408120548015614a3157600061496c6001836158fa565b8554909150600090614980906001906158fa565b90508082146149e55760008660000182815481106149a0576149a06155a9565b90600052602060002001549050808760000184815481106149c3576149c36155a9565b6000918252602080832090910192909255918252600188019052604090208390555b85548690806149f6576149f661590d565b6001900381819060005260206000200160009055905585600101600086815260200190815260200160002060009055600193505050506105e8565b60009150506105e8565b60008072184f03e93ff9f4daa797ed6e38ed64bf6a1f0160401b8310614a7a5772184f03e93ff9f4daa797ed6e38ed64bf6a1f0160401b830492506040015b6d04ee2d6d415b85acef81000000008310614aa6576d04ee2d6d415b85acef8100000000830492506020015b662386f26fc100008310614ac457662386f26fc10000830492506010015b6305f5e1008310614adc576305f5e100830492506008015b6127108310614af057612710830492506004015b60648310614b02576064830492506002015b600a83106105e85760010192915050565b614b1e838383614bdc565b61170c576001600160a01b038316614b4c57604051637e27328960e01b81526004810182905260240161079d565b60405163177e802f60e01b81526001600160a01b03831660048201526024810182905260440161079d565b6001600160a01b038216614ba157604051633250574960e11b81526000600482015260240161079d565b6000614baf838360006140dd565b90506001600160a01b0381161561170c576040516339e3563760e11b81526000600482015260240161079d565b60006001600160a01b038316158015906141aa5750826001600160a01b0316846001600160a01b03161480614c165750614c168484613fa8565b806141aa5750506000908152600460205260409020546001600160a01b03908116911614919050565b6040518060a0016040528060608152602001606081526020016000815260200160006001600160a01b03168152602001606081525090565b828054828255906000526020600020908101928215614cbd579160200282015b82811115614cbd5782518290614cad9082615751565b5091602001919060010190614c97565b50614cc9929150614d21565b5090565b508054614cd99061556f565b6000825580601f10614ce9575050565b601f0160209004906000526020600020908101906140119190614d3e565b508054600082559060005260206000209081019061401191905b80821115614cc9576000614d358282614ccd565b50600101614d21565b5b80821115614cc95760008155600101614d3f565b6001600160e01b03198116811461401157600080fd5b600060208284031215614d7b57600080fd5b813561304781614d53565b60005b83811015614da1578181015183820152602001614d89565b50506000910152565b60008151808452614dc2816020860160208601614d86565b601f01601f19169290920160200192915050565b6020815260006130476020830184614daa565b600060208284031215614dfb57600080fd5b5035919050565b80356001600160a01b0381168114612eea57600080fd5b60008060408385031215614e2c57600080fd5b614e3583614e02565b946020939093013593505050565b600060208284031215614e5557600080fd5b61304782614e02565b6020808252825182820181905260009190848201906040850190845b81811015614e9657835183529284019291840191600101614e7a565b50909695505050505050565b600081518084526020808501808196508360051b8101915082860160005b85811015614eea578284038952614ed8848351614daa565b98850198935090840190600101614ec0565b5091979650505050505050565b60006020808301818452808551808352604092508286019150828160051b87010184880160005b83811015614fa957603f19898403018552815160a08151818652614f4482870182614daa565b915050888201518582038a870152614f5c8282614daa565b838a0151878b01526060808501516001600160a01b031690880152608093840151878203948801949094529150614f9590508183614ea2565b968901969450505090860190600101614f1e565b509098975050505050505050565b60008060408385031215614fca57600080fd5b82359150614fda60208401614e02565b90509250929050565b600080600060608486031215614ff857600080fd5b61500184614e02565b925061500f60208501614e02565b9150604084013590509250925092565b60008083601f84011261503157600080fd5b5081356001600160401b0381111561504857600080fd5b60208301915083602082850101111561506057600080fd5b9250929050565b6000806020838503121561507a57600080fd5b82356001600160401b0381111561509057600080fd5b61509c8582860161501f565b90969095509350505050565b60008083601f8401126150ba57600080fd5b5081356001600160401b038111156150d157600080fd5b6020830191508360208260051b850101111561506057600080fd5b60008060008060008060006080888a03121561510757600080fd5b8735965060208801356001600160401b038082111561512557600080fd5b6151318b838c0161501f565b909850965060408a013591508082111561514a57600080fd5b6151568b838c0161501f565b909650945060608a013591508082111561516f57600080fd5b5061517c8a828b016150a8565b989b979a50959850939692959293505050565b6000806000604084860312156151a457600080fd5b8335925060208401356001600160401b038111156151c157600080fd5b6151cd8682870161501f565b9497909650939450505050565b600080600080604085870312156151f057600080fd5b84356001600160401b038082111561520757600080fd5b6152138883890161501f565b9096509450602087013591508082111561522c57600080fd5b506152398782880161501f565b95989497509550505050565b80358015158114612eea57600080fd5b6000806000806080858703121561526b57600080fd5b8435935061527b60208601614e02565b925061528960408601615245565b915061529760608601615245565b905092959194509250565b600080600080604085870312156152b857600080fd5b84356001600160401b03808211156152cf57600080fd5b615213888389016150a8565b600080604083850312156152ee57600080fd5b6152f783614e02565b9150614fda60208401615245565b634e487b7160e01b600052604160045260246000fd5b604051601f8201601f191681016001600160401b038111828210171561534357615343615305565b604052919050565b60006001600160401b0383111561536457615364615305565b615377601f8401601f191660200161531b565b905082815283838301111561538b57600080fd5b828260208301376000602084830101529392505050565b600080600080608085870312156153b857600080fd5b6153c185614e02565b93506153cf60208601614e02565b92506040850135915060608501356001600160401b038111156153f157600080fd5b8501601f8101871361540257600080fd5b6154118782356020840161534b565b91505092959194509250565b602081526000825160a0602084015261543960c0840182614daa565b90506020840151601f198483030160408501526154568282614daa565b91505060408401511515606084015260018060a01b036060850151166080840152608084015160a08401528091505092915050565b6000806000604084860312156154a057600080fd5b8335925060208401356001600160401b038111156154bd57600080fd5b6151cd868287016150a8565b600080600080606085870312156154df57600080fd5b843593506020850135925060408501356001600160401b0381111561550357600080fd5b6152398782880161501f565b6000806040838503121561552257600080fd5b82359150614fda60208401615245565b6020815260006130476020830184614ea2565b6000806040838503121561555857600080fd5b61556183614e02565b9150614fda60208401614e02565b600181811c9082168061558357607f821691505b6020821081036155a357634e487b7160e01b600052602260045260246000fd5b50919050565b634e487b7160e01b600052603260045260246000fd5b634e487b7160e01b600052601160045260246000fd5b6000600182016155e7576155e76155bf565b5060010190565b6020808252600c908201526b155b985d5d1a1bdc9a5e995960a21b604082015260600190565b808201808211156105e8576105e86155bf565b81835281816020850137506000828201602090810191909152601f909101601f19169091010190565b6020815260006141aa602083018486615627565b8183823760009101908152919050565b60006001600160401b038084111561568e5761568e615305565b8360051b602061569f81830161531b565b8681529185019181810190368411156156b757600080fd5b865b848110156156ff578035868111156156d15760008081fd5b880136601f8201126156e35760008081fd5b6156f136823587840161534b565b8452509183019183016156b9565b50979650505050505050565b601f82111561170c57600081815260208120601f850160051c810160208610156157325750805b601f850160051c820191505b8181101561449d5782815560010161573e565b81516001600160401b0381111561576a5761576a615305565b61577e81615778845461556f565b8461570b565b602080601f8311600181146157b3576000841561579b5750858301515b600019600386901b1c1916600185901b17855561449d565b600085815260208120601f198616915b828110156157e2578886015182559484019460019091019084016157c3565b50858210156158005787850151600019600388901b60f8161c191681555b5050505050600190811b01905550565b60608152600061582460608301888a615627565b60208382038185015261583882888a615627565b84810360408601528581529150808201600586901b830182018760005b888110156158c457858303601f190184528135368b9003601e1901811261587b57600080fd5b8a0185810190356001600160401b0381111561589657600080fd5b8036038213156158a557600080fd5b6158b0858284615627565b958701959450505090840190600101615855565b50909c9b505050505050505050505050565b6040815260006158ea604083018587615627565b9050826020830152949350505050565b818103818111156105e8576105e86155bf565b634e487b7160e01b600052603160045260246000fd5b604081526000615937604083018688615627565b828103602084015261594a818587615627565b979650505050505050565b604081526000615969604083018587615627565b828103602084015261597b8185614daa565b9695505050505050565b60008351615997818460208801614d86565b8351908301906159ab818360208801614d86565b01949350505050565b6000808335601e198436030181126159cb57600080fd5b8301803591506001600160401b038211156159e557600080fd5b60200191503681900382131561506057600080fd5b80820281158282048414176105e8576105e86155bf565b6001600160a01b038581168252841660208201526040810183905260806060820181905260009061597b90830184614daa565b600060208284031215615a5657600080fd5b815161304781614d5356fea26469706673582212201dd386abbf1790f4237d5976da6b5457cfaa8e206b88053545a1f6ac60cf619064736f6c63430008140033",
  "linkReferences": {},
  "deployedLinkReferences": {}
}